:100000000C9467050C9484050C9484050C94C62A02
:100010000C9484050C9484050C9484050C9484053C
:100020000C9484050C9484050C94DA190C9416191C
:100030000C94C3260C9484050C9484050C948405BC
:100040000C9484050C9484050C9484050C9484050C
:100050000C9484050C945A260C9484050C94840505
:100060000C9484050C9484050C9484050C948405EC
:100070000C9484050C9484050C9484050C948405DC
:100080000C9484050C9484050C9484050C948405CC
:100090000C9484050C9484050C9484050C948405BC
:1000A0000C9484050C9484050C948405F00AF00AE1
:1000B000240B240B920B370DC00C370DB40B270CFF
:1000C0003A0C3A0CCD0CFA0CD50CD80CE10CDB0C2C
:1000D000E40C99139C13BA13C713CE13EE139C149C
:1000E0009C149C149C149C14F113F313F813221405
:1000F00049144C144F14771428174F17F8184F173A
:10010000F8189B17BE17F818B318C3180005010597
:10011000020503050405050500060106020603069F
:100120000406050600070107020703070407050781
:10013000000801080208030804080508000901096D
:100140000209030904090509000001000200030077
:100150000400050000010101020103010401050181
:10016000000201020202030204020502000301036D
:10017000020303030403050300040104020403044F
:10018000040405040000000000000000000000005E
:10019000000000000000000000000000000000005F
:1001A00000000000000000007E0F00D4FFFFFFC72A
:1001B0000000007800000000000000002A2B28004A
:1001C0000000000000000000000000000000002906
:1001D000000000002C1E3420212224342627252E46
:1001E000362D3738271E1F2021222324252633337E
:1001F000362E37381F0405060708090A0B0C0D0EAA
:100200000F101112131415161718191A1B1C1D2F75
:100210003130232D350405060708090A0B0C0D0E95
:100220000F101112131415161718191A1B1C1D2F55
:100230003130354C00DA028132D9F1DB20A4A62E10
:10024000AF00A0C000A1C800AED580A81FD3004059
:100250008D142000556E646566004C575200525351
:10026000450042617365000A0A004C59520047413B
:100270004D450051575254000A0A0005010980A15A
:1002800001850319012AB700150126B700950175EC
:10029000108100C0050C0901A101850419012AA0E3
:1002A00002150126A002950175108100C00660FFAD
:1002B0000961A1010962150026FF009520750881DA
:1002C000020963150026FF00952075089102C005FC
:1002D000010906A101050719E029E7150025019587
:1002E000087501810295017508810105071900292A
:1002F000FF150026FF009506750881000508190105
:100300002905950575019102950175039101C009B3
:10031000025B00030100A0FA0904000001030101CF
:100320000009211101000122400007058103080096
:10033000010904010002030000000921110100016C
:100340002222000705820320000107050303200085
:10035000010904020001030000000921110100014C
:100360002232000705840320000112010002000070
:10037000000832FC87020100010200010C03530057
:100380006F0066006C00650000001A034A006F00F1
:100390007300650066004100640061006D00630049
:1003A00069006B0000000403090407087F080700C8
:1003B0003E5B4F5B3E003E6B4F6B3E001C3E7C3E07
:1003C0001C00183C7E3C18001C577D571C001C5E0E
:1003D0007F5E1C0000183C180000FFE7C3E7FF0029
:1003E000001824180000FFE7DBE7FF0030483A065A
:1003F0000E00262979292600407F05050700407F49
:1004000005253F005A3CE73C5A007F3E1C1C080073
:10041000081C1C3E7F0014227F2214005F5F005FD7
:100420005F0006097F017F00006689956A006060B1
:100430006060600094A2FFA2940008047E0408009B
:1004400010207E20100008082A1C0800081C2A081A
:1004500008001E10101010000C1E0C1E0C0030386E
:100460003E383000060E3E0E060000000000000080
:1004700000005F000000000700070000147F147FE9
:100480001400242A7F2A12002313086462003649CC
:1004900056205000000807030000001C2241000005
:1004A0000041221C00002A1C7F1C2A0008083E086C
:1004B00008000080703000000808080808000000EC
:1004C000606000002010080402003E5149453E00D3
:1004D00000427F4000007249494946002141494D90
:1004E00033001814127F10002745454539003C4A57
:1004F000494931004121110907003649494936006F
:10050000464949291E000000140000000040340044
:1005100000000008142241001414141414000041B7
:10052000221408000201590906003E415D594E009F
:100530007C1211127C007F49494936003E414141FD
:1005400022007F4141413E007F49494941007F09E6
:10055000090901003E41415173007F0808087F00EE
:1005600000417F4100002040413F01007F081422EC
:1005700041007F40404040007F021C027F007F041A
:1005800008107F003E4141413E007F0909090600F5
:100590003E4151215E007F091929460026494949FB
:1005A000320003017F0103003F4040403F001F2015
:1005B00040201F003F4038403F0063140814630090
:1005C0000304780403006159494D4300007F414111
:1005D0004100020408102000004141417F00040254
:1005E00001020400404040404000000307080000B2
:1005F0002054547840007F28444438003844444410
:100600002800384444287F00385454541800000807
:100610007E09020018A4A49C78007F0804047800D6
:1006200000447D4000002040403D00007F102844F1
:10063000000000417F4000007C04780478007C08C2
:1006400004047800384444443800FC18242418007A
:1006500018242418FC007C0804040800485454544E
:10066000240004043F4424003C4040207C001C2023
:1006700040201C003C4030403C00442810284400EE
:100680004C9090907C004464544C440000083641E7
:100690000000000077000000004136080000020161
:1006A000020402003C2623263C000000000000005B
:1006B000404040F0F8F8FF38FFF8F83FF8F8FF380E
:1006C000FFF8F8F040404000000000000080C0C08B
:1006D000C0800000C0C08000000080C0C000C0C05A
:1006E000000080C0C00000000000C0C0C0C0C0004A
:1006F000C0C000000000000000000000000000007A
:1007000000000000000000000000000000000000E9
:1007100000000000000000000000000000000000D9
:10072000000000000000000000C0F0F8FC3E1E06C3
:10073000010000007F4141417F007F4141417F0036
:100740000080C0E07E5B4F5BFEC00000C000DCD7D5
:10075000DEDEDED7DC00C00000000000000000008C
:100760000000000000000000000000000000000089
:10077000494949FFFFFFFFE0DFBFBF00BFBFDFE028
:10078000FFFFFFFF49494900000000001F3F606074
:10079000E0BF1F007F7F071E381E077F7F007F7F1F
:1007A0000E1F3B716000000000007F7F0C0C0C00EE
:1007B0007E7E007F7E0303007F7E03037E7E030335
:1007C0007F7E000F3E703C063C703E0F00327B493E
:1007D000493F7E007F7E0303001E3F69696F26004C
:1007E000000000000000000000030F1F3F3C787075
:1007F000600000007F4141417F007F4141417F0017
:10080000307B7F7830202030787F3B0003000F7FE3
:100810000F0F0F7F0F00030000000000000000001A
:1008200000000000000000000000000000000000C8
:10083000010101070F0F7F0F7F0F0F7E0F0F7F0F3B
:100840007F0F0F0701010100000000000000000001
:100850000001010000000000000000000000000096
:100860000000000000000000000000000000000088
:100870000000000000000000000000000000000078
:100880000000000000000000000000000000000068
:100890000000000000000000000000000000000058
:1008A0000000000000000000000000000000000048
:1008B0000000000000000000000000000000000038
:1008C0000000000000000000000000000000000028
:1008D0000000000000000000000000000000000018
:1008E0000000000000000000000000AF00AE350076
:1008F0001E001F00200021002200290014001A0001
:100900000800150017002B0004001600070009005E
:100910000A00E1001D001B00060019000500E300AD
:10092000E200E00002512800A80035002700260060
:100930002500240023002A00130012000C001800D8
:100940001C00340033000F000E000D000B00E5000A
:1009500038003700360010001100E700E600E40020
:1009600003512C00000035001E001F002000210054
:100970002200290014001A00090013000A002B00AD
:1009800004001500160017000700E1001D001B0001
:10099000060019000500E300E200E0000100280065
:1009A000A8003500270026002500240023002A0087
:1009B00033001C0018000F000D00340012000C0062
:1009C000080011000B00E500380037003600100069
:1009D0000E00E700E600E40001002C00000001002A
:1009E0003A003B003C003D003E0035001E001F0069
:1009F00020002100220001001E021F02200221020D
:100A0000220201002E002D002E022F0230020100D2
:100A10000100010001000100010044004300420008
:100A2000410040003F00450027002600250024002B
:100A3000230031022702260225022402230201009C
:100A400031003302330030002F00010001000100AB
:100A5000010001000100010001000100010001008E
:100A6000010001004900460065000000000001008F
:100A7000E200E000E1000000390001007A007B00A4
:100A80007C007D0000000100010001000100010068
:100A900001000100010001000100010001002A0025
:100AA00001000100520001004B002A004C004F00E1
:100AB000510050004E000100000001000000010044
:100AC00000000100010001000100010001001124EB
:100AD0001FBECFEFDAE0DEBFCDBF11E0A0E0B1E096
:100AE000E6E6FEE502C005900D92AE3BB107D9F7F0
:100AF00025E0AEEBB1E001C01D92A933B207E1F7EA
:100B00000E94C00D0C94312F0C940000882371F1C9
:100B10009CEF980F913A60F4EBEBF4E0928189132B
:100B200001C01282319694E0E13CF907B9F70DC09B
:100B300090E2980F983058F4982F977081E001C098
:100B4000880F9A95EAF70E947A210C9481219BE5FF
:100B5000980F933020F480E090E00C941C27885A82
:100B6000873120F480E090E00C9406270895CF931D
:100B7000882309F453C09CEF980F913AF8F4C82FDA
:100B8000EDEBF4E083EC94E02191C21721F08E1795
:100B90009F07D1F70DC0EBEBF4E08281C81301C0D1
:100BA0001282319644E0E13CF407B9F70E948121BA
:100BB0006C2F8BEB94E00E94EC2613C090E2980F10
:100BC000983090F4877021E030E0A90102C0440F12
:100BD000551F8A95E2F7CA0190911F05892B8093D2
:100BE0001F05CF910C948121EBE5E80FE33040F431
:100BF000F0E0E457FE4F808190E0CF910C941C27E9
:100C0000885A873158F4E82FF0E0EE0FFF1FE157C4
:100C1000FE4F80819181CF910C940627CF9108954A
:100C2000EF92FF920F931F93CF93DF93CDB7DEB771
:100C300067970FB6F894DEBF0FBECDBF4B8B5C8BB2
:100C40006D8B7E8B8F8B242F0E891F8961111092E3
:100C50001E050115110531F05F3F31F481E02F3F92
:100C600019F403C081E001C080E080FD37C0A22FED
:100C7000B0E081E090E07C01022E01C0EE0C0A940D
:100C8000EAF7852F90E0662319F03091DC0405C067
:100C9000FC01E054FE4F30813E213323C1F046E099
:100CA000489F9001499F300D11242A0F3B1F220FAE
:100CB000331FF901E35FFE4F5491F901E45FFE4FEA
:100CC0002491FC01E054FE4F9081E92A06C0FC010A
:100CD000E054FE4FE0948081E822E08286E0FE014D
:100CE0003D96DF01982F1D929A95E9F72D875E8733
:100CF0006F87198B088BDE01179601900D928A95EC
:100D0000E1F7CE0107960E949B2281113EC086E04A
:100D1000FE013796DE01119601900D928A95E1F75A
:100D2000FF81E8856A857B856115710531F0EF3FAC
:100D300031F481E0FF3F19F403C081E001C080E09D
:100D400080FD23C02091E30430E0C9010196877043
:100D500099274091140550E08417950779F1F9839C
:100D6000EA837D836C8396E0929FD001939FB00DC0
:100D70001124AC51BB4FFE01319601900D929A9512
:100D8000E1F78093E3040E94C92116E080911405E5
:100D90009091E3048917F9F0189FC00111248C5138
:100DA0009B4F0E949B228823B1F08091140590E014
:100DB00001968770992780931405E8CF0E94FC2440
:100DC0001092E30410921405EDEDF4E086E0DF01EB
:100DD0001D928A95E9F767960FB6F894DEBF0FBEAD
:100DE000CDBFDF91CF911F910F91FF90EF900895AC
:100DF0003F924F925F926F927F928F929F92AF92AB
:100E0000BF92CF92DF92EF92FF920F931F93CF93F7
:100E1000DF93CDB7DEB729970FB6F894DEBF0FBECC
:100E2000CDBFFC018081918123813481232B31F05E
:100E30009F3F31F491E08F3F19F403C091E001C06E
:100E400090E090FD71C67F0185E0DE011196019072
:100E50000D928A95E1F7F701228189819A812223F7
:100E600049F00E943F22182F682F89819A810E94A1
:100E7000772403C00E944A24182F69817A81812F28
:100E80000E941F288C01F7018281882399F1C801F3
:100E900090568115F0E29F0748F0905E811520E1A1
:100EA000920720F0915C81159F4118F4C8019927A1
:100EB00008C00F3F110509F010F4C80102C080E01E
:100EC00090E09C01245031092432310518F08B97B1
:100ED0000E9780F4E091F001F0E0EE0FFF1FEB5071
:100EE000FE4F808191818F3F2FE7920719F0019685
:100EF00091838083F7018281882309F4F2C09801ED
:100F000022513F452031310508F0FDC58FEF93E0B8
:100F10000E94392C8111EEC0025167E0862E62E0FA
:100F2000962E002379F08114F4E09F0609F4E2C0C4
:100F3000C4010E94392C811101C001502FEF821A87
:100F4000920AEFCF1E821F8218861986442443948A
:100F50005AE0352E84010F5F1F4FC4010E94392CC7
:100F60008E831F82882309F4C5C09FEF980F9330AA
:100F700060F48F834E8232E0830E911CC8010E9480
:100F8000392C8887811102C0B5C048018E010A5FE3
:100F90001F4FF80120812223E9F2213009F04CC0D3
:100FA0008181813049F46801F2E0CF0ED11CF80153
:100FB00082810E9418250AC0823051F46801F2E053
:100FC000CF0ED11CF80182810E94B705860186C030
:100FD000833049F46801F2E0CF0ED11CF801828120
:100FE0000E948605F3CF843019F00F5F1F4F76C043
:100FF000F80122810E5F1F4F80E090E030E0205327
:1010000031092A30310568F4389EA001399E500D0F
:101010001124C901840F951F0F5F1F4FF801208114
:10102000EDCF009709F45AC0EFE9FFE03197F1F7EF
:1010300000C000000197F5CFE22FF0E0EC54FE4F26
:101040005490822F86958695869590E0FC01EC550C
:10105000FE4F64902770712C022E02C07594679425
:101060000A94E2F7F1E06F227724FC01EC56FE4F80
:10107000A490B12C022E02C0B594A7940A94E2F772
:1010800031E0A322BB24FC01EC57FE4FC490D12CCD
:1010900002C0D594C7942A95E2F781E0C822DD24E6
:1010A0006114710419F081EE0E94B705A114B10416
:1010B00019F086EE0E94B705852D0E941825AB28F1
:1010C00019F086EE0E948605672819F081EE0E94CD
:1010D0008605CD2819F08CE20E9418250F5F1F4F5E
:1010E00058CF0031FFE51F0769F581E00E94A72472
:1010F0000E94C71580911505877009F415C5F70181
:101100008281882309F410C58091DD0182FD0CC520
:1011100082E029960FB6F894DEBF0FBECDBFDF91F7
:10112000CF911F910F91FF90EF90DF90CF90BF90E4
:10113000AF909F908F907F906F905F904F903F9077
:101140000C94B32401312FE5120711F482E0CECFC5
:10115000033F3CE5130799F406E221EE40EE63EF0E
:101160007CE509C0073D2CE5120711F506E221EEEA
:1011700041EE67ED7CE5C7010E944227BBCF043FEB
:101180009CE5190708F05CC1083DECE51E0731F449
:1011900007E225EE45EE68ED7CE5EDCF093DFCE587
:1011A0001F0701F708E221E045EE69ED7CE5E3CF9A
:1011B000882309F47AC110922A0503309DE51907A6
:1011C00058F40A3FECE51E0780F4C80182509C45A4
:1011D000449708F054C109C00136FDE51F0729F006
:1011E000053A2DE5120709F04AC10E94371F909376
:1011F000DD018093DC0101313CE5130709F4C6C031
:1012000008F042C009309CE5190709F49BC000F5BD
:101210000530FCE51F0709F485C078F403303CE590
:10122000130709F478C008F07AC002301C4509F0B1
:10123000F7C08091DC018160F1C00730ECE51E074A
:1012400009F478C008F07AC08091DC018061E6C0C2
:101250000D302CE5120709F487C058F40B308CE5EB
:10126000180709F479C008F07BC08091DC01886020
:101270006FC00F30ECE51E0709F480C008F082C093
:101280008091DC01877FCAC00D3F2CE5120709F46D
:1012900071C000F505318CE5180709F485C068F4C4
:1012A0000331ECE51E0709F475C008F095C00E94F3
:1012B000FC248091DC018F77B1C00B3F2CE5120735
:1012C000A9F108F054C00A3F1C4509F0A9C080915B
:1012D000DD0140C001309DE5190709F489C058F4CB
:1012E0000F3FFCE51F0709F45AC008F069C0809160
:1012F000DD0182602FC001363DE5130709F47EC091
:10130000053A8DE5180709F483C002301D4509F040
:1013100087C060E06EC08091DC0182607FC08091F8
:10132000DC0116C08091DC01886078C08091DD010D
:1013300082604FC08091DC01806270C08091DC01CE
:1013400080646CC00E94FC248091DC01806866C0CF
:10135000846064C081603DC08091DC018E7F5EC08E
:101360008091DC018D7F5AC08091DC0116C0809194
:10137000DD0118C08091DD018D7F2BC08091DC01E3
:101380008F7E4CC08091DC018F7D48C08091DC0154
:101390008F7B44C08091DC01877F8B7F3FC0809131
:1013A000DD018D7F8E7F15C08091DC0182FB2227BD
:1013B00020F991E0922790FB82F990FB83F92EC0EF
:1013C0008091DD01982F909591708E7F892B90FBF5
:1013D00081F98093DD0124C00E94FC248091DC010E
:1013E00087FB222720F991E0922790FB87F916C00E
:1013F00061E08EE090E00E94472C12C08091DC01F9
:1014000084FB222720F991E0922790FB84F906C003
:101410008091DC01982F909590FB80F98093DC01FE
:101420006091DC011091DD0184E090E00E94472C86
:10143000612F82E290E00E94472C0E94FC245ACE49
:10144000053F3CE5130731F406E221EE42EE65EF7D
:101450007CE591CE053F9CE5190730F407E225EEC7
:1014600044EE64EF7CE587CE063FECE51E0709F00D
:101470009FCE07E225EE46EE66EF7CE57CCE063198
:10148000FCE51F0751F580911F058A7A91E009F468
:1014900090E09093CA01882311F065E301C069E2EE
:1014A0008BEB94E00E94EC2615C006311C4509F038
:1014B00045C08091CA01882309F434C385E3EBEB6E
:1014C000F4E09281891301C01282319624E0E13C5C
:1014D000F207B9F70E9481210DCE0A353DE51307C9
:1014E00041F150F401159CE51907A9F00E3D1C458A
:1014F00029F50E940A21FECD0B35FDE51F07D9F025
:101500000C351D45D9F48091DD0182FB882780F9D7
:1015100091E0892711C00E94FC243FEF84E39CE006
:10152000315080409040E1F700C000000E94492601
:10153000E1CD81E001C080E00E94D024F7018281EA
:1015400000811181882349F0C8010E943F22D82ED2
:10155000682FC8010E94772404C0C8010E944A2451
:10156000D82EB8018D2D0E941F280E94441D082FDF
:10157000C92EB82EF7011281858082944FE0842213
:10158000809115058770E1F01123D1F0892F807FBC
:10159000803449F090E2900F983090F0803619F442
:1015A000F6EF0F1769F08091DD0182FD09C082E03E
:1015B0000E94B324809115058770AA24A3948111F9
:1015C000A12C9C2C92943FE09322892D90E08C30AA
:1015D000910508F04CC2FC01EA5AFF4F0C94EC2E26
:1015E0009C2D9F708C2D807FD92E19F0D29420EFE6
:1015F000D2221123B9F0DD2009F4AAC180E2800FC4
:10160000883010F0B11006C080911F05D82AD09202
:101610001F0505C080911E05D82AD0921E050E9484
:10162000812196C1802F0E948605DD2009F41FC20A
:10163000005E083090F1BB2081F1D09480911E05AE
:10164000D822D0921E052CC09C2D9F708C2D807F9F
:10165000D92E803219F0D29490EFD922BB2021F0FC
:1016600021E0B216D9F149C08091DD0182FF1BC093
:10167000112369F0DD2039F080911F05D82AD0921E
:101680001F050E94812180E00E94B705F0C180E023
:101690000E948605DD2009F4EAC18D2D0E947A2181
:1016A0000E948121E4C1112381F0809120058820CE
:1016B00051F031E0831207C0D82AD81609F4D7C1F7
:1016C000D0922005D4C18D2910C0882021F081E05E
:1016D000881609F4CCC10E94742120C0112341F066
:1016E00095E0981508F4C3C18D2D0E940E25BFC149
:1016F000E4E0E81508F4BBC111C0112349F08820CB
:1017000099F3F701858180FF23C18F708583ECCF2A
:10171000882021F0F9E3BF1229C120C18D2D0E943C
:101720000725A5C18C2D86958695837019F081308B
:1017300071F09DC1112331F0802F9C2D93700E9478
:101740001C279BC180E090E00E941C27AEC11123A2
:1017500031F0802F9C2D93700E9406278EC180E06F
:1017600090E00E940627A1C18C2D8370A1F5111174
:1017700082C1402F429546954770440F440F202F59
:101780002F7030E0C901042E01C0880F0A94EAF7D7
:1017900004FF08C02FE030E001C0220F4A95EAF7AD
:1017A000209501C020E03C2D3695369533703230BF
:1017B00069F040F440912105313019F0822B8423E7
:1017C00002C0842B822B0E94F82455C1282B8091C3
:1017D00021058227F8CF112319F08C2D817001C0CB
:1017E0008695882309F447C1402F42954695477056
:1017F000440F440F202F2F7030E0C901042E01C088
:10180000880F0A94EAF704FF08C02FE030E001C017
:10181000220F4A95EAF7209501C020E03C2D36952D
:1018200036953370323051F070F440918A02313085
:1018300019F0822B842308C0842B05C0282B8091AB
:101840008A02822701C0822B0E94A32414C1FC2D8E
:10185000FF70DF2E112339F08F2F0E94ED24802F8F
:101860000E940E2508C1802F0E9407258D2D0E9401
:10187000A72401C1802F22EFB21681F12B1538F079
:1018800030EFB31659F091EFB91619F15DC0E3EFDF
:10189000BE1659F1F4EFBF16C1F056C0112381F006
:1018A00024E0281508F4E3C02C2D2F7181E090E08E
:1018B00001C0880F2A95EAF790918A02892720C0F3
:1018C00035E0381508F4D3C0EFCF8091DD0182FFF9
:1018D0001AC0112329F08C2D8F7128C01123D9F340
:1018E0008C2D8F710E94A724C2C0112341F081E08A
:1018F0009C2D9F7101C0880F9A95EAF701C080E086
:101900000E94A324B4C01123A1F00C2D0F71802FCD
:101910000E94ED248091DD0182FD07C0E8E00E9F6A
:10192000C0011124836080931505802F0E94ED244F
:101930009EC081E00E94B324F1E0F81508F097C042
:1019400082E00E94B32493C0112321F0882019F271
:10195000802F9ACE882021F2893341F42FEF37EE81
:1019600083E0215030408040E1F704C0EFE3FCE920
:101970003197F1F700C00000802F0E94860577C0E4
:101980008B2D90E0FC01E05FF109E730F10508F0F4
:101990003EC0EE59FF4F0C94EC2E112309F485C084
:1019A0009091DC0481E0892715C01093DC0465C0A8
:1019B00081E081270FC0111160C081E08093DC04B9
:1019C00074C011115AC06FC0112339F082E08093A6
:1019D000CB0181E08093DC0450C08091CB01823048
:1019E00019F481E08093CB018091CB01833009F021
:1019F0005CC057C0112339F08091DB04882381F249
:101A00001092DB043AC0F4E0F81550F64EC0809115
:101A1000DB048820F9F0882341F09091DC0481E018
:101A200089278093DC041092DB04112321F0802F9E
:101A30000E94B70522C08FE39CE90197F1F700C02F
:101A40000000802F0E94860586E0F70111928A959A
:101A5000E9F72BC0882389F011110FC09091DC04A5
:101A600081E089278093DC041092DB041EC088EF9C
:101A7000890D843010F40E9432271123B1F08C2D8F
:101A8000807F803619F4F6EFBF1679F08091CB0194
:101A9000823019F483E08093CB018091CB018130B7
:101AA00021F41092CB011092DC04AA20E9F180917C
:101AB000150580FD39C0F7011282859585958595BC
:101AC0000E94ED24C7010E94F806809115058595B6
:101AD0008595859529960FB6F894DEBF0FBECDBFCC
:101AE000DF91CF911F910F91FF90EF90DF90CF90FA
:101AF000BF90AF909F908F907F906F905F904F902E
:101B00003F900C94A72400313FE5130711F481E0C6
:101B100006C001319FE5190709F01ACB82E00E9447
:101B2000ED24E6CA89E2CBCC29960FB6F894DEBF45
:101B30000FBECDBFDF91CF911F910F91FF90EF901E
:101B4000DF90CF90BF90AF909F908F907F906F90DD
:101B50005F904F903F900895982F92959F7019F045
:101B6000892F24E001C020E0982F9695969511F0DA
:101B70002E5F892F982F969509F02F5F822F089559
:101B8000CF93DF93CDB7DEB7AE970FB6F894DEBF35
:101B90000FBECDBF84B7877F84BF0FB6F894A895DA
:101BA00080916000886180936000109260000FBE99
:101BB00090E080E80FB6F894809361009093610004
:101BC0000FBE85B7806885BF85B7806885BF80E117
:101BD0009BE19093BF018093BE010E945A190E941D
:101BE00079198091E20084608093E200789480917A
:101BF00072028823A1F01091E9001F709091EC000F
:101C0000892F817090FD80E8182B1092E900809157
:101C1000E80083FD0E9440161F701093E90082E0E7
:101C200084BD93E095BD9AEF97BD80936E001092AE
:101C3000CC011092CD011092CE011092CF010E94E2
:101C4000FB28811102C00E94EC280E94A71C8093EF
:101C500000010E94A71C81110E94802A809100012E
:101C600080910001882311F090E001C095E09093ED
:101C7000DB0185E0891B8093DA0108E511E0D801DA
:101C80008D918D018F3F11F00E942D1DB1E00D351A
:101C90001B07A9F70DE511E0B3E6EB2EB1E0FB2E33
:101CA000F80181918F018F3F11F00E942D1DE016E8
:101CB000F106B1F78AE0EBE5F2E0DF01282F1D9293
:101CC0002A95E9F7E0EDF1E0DF011D928A95E9F749
:101CD00080E090E00E94412C893E9E4F21F40E94BA
:101CE000FB28811102C00E940A2182E090E00E943C
:101CF000392C8093DF010E94371F9093DD01809380
:101D0000DC010E94481FEFE3FCE93197F1F700C0C6
:101D100000000E94481F80915B0280FF08C06FEFA7
:101D20007FEF80E090E00E94652C0E94492683E0CE
:101D300090E00E94392C0E94F8240E94A71C88235E
:101D400011F083E001C082E08093560280FD02C062
:101D500080E801C080E280938B020E9414296DE02C
:101D600070E087E492E00E94D215892B09F043C00D
:101D70008091560263E070E081FD3AC084E492E015
:101D80000E94D215892BB9F56DE070E084E392E0F2
:101D90000E94D215892B79F50E94AB26DC01CB017C
:101DA000805E914BAF4FBF4F8093220590932305E8
:101DB000A0932405B0932505EEE8F2E080E092E0E0
:101DC000DF019C011D9221503040E1F7F093950412
:101DD000E09394048FEF9FEF90938D0280938C0299
:101DE00081E080932705809326051092570203C057
:101DF00081E492E0C5CF80910001811106C084EF9B
:101E000080930F0185EF80930E0180910F01E82FE1
:101E1000E295EF70F0E041A1282F2F7081E090E073
:101E2000BC0102C0660F771F2A95E2F79B01362F8F
:101E30003095342331A332A1232B22A320910E010C
:101E4000E22FE295EF70F0E031A12F7001C0880F12
:101E50002A95EAF7982F9095932391A392A1892B25
:101E600082A38FE891E00197F1F700C00000209174
:101E70000F01E22FE295EF70F0E080A190E02F706B
:101E800002C0959587952A95E2F7817090910E0191
:101E9000E92FE295EF70F0E020A130E09F7002C0E2
:101EA000359527959A95E2F720FF02C092E001C090
:101EB00090E0892B80932B029091000181E098277C
:101EC00090932A02891B8093DE010E94A71C811136
:101ED00002C00E94832A81E091E090932E058093B6
:101EE0002D05A0E46A2E80917202853009F045C06C
:101EF00000E112E180917202853009F03AC08091D0
:101F00007202843029F10E942C2810923105A8E138
:101F1000B0E00FB6F894A895A09360000FBE609251
:101F2000600083B7817F846083BF83B7816083BF94
:101F30007894889583B78E7F83BF0FB6F894A89561
:101F400080916000886180936000109260000FBEF5
:101F500080917102882309F4CDCF0E94481FEBE5E0
:101F6000F2E08191811111C5B2E0E536FB07C9F7B6
:101F7000C1CF0E94FC240E9432270E94481F782E65
:101F800081110E94AB26EBE5F2E0FCA7EBA7A0EEE7
:101F9000B1E000E010E0C02ED1908D918D2549F187
:101FA000E12CFF24F394982F9F21F1F00E94A71CAD
:101FB000882399F0E9A2CAA2DF2081E009F480E039
:101FC0008BA30E94B7268160782F9DA38CA349A183
:101FD0005AA16BA18DA10E941006F801E052FE4F9C
:101FE0008081F826F0821AC0E394FF0C26E0E2120A
:101FF000DACF0F5F1F4F0A30110569F68FEF8EA3FE
:102000008FA318A60E94B7268160782F9AA789A768
:102010004EA15FA168A58AA50E9410060E94A71C78
:10202000882309F4CAC0C090F501D090F6010D2CA8
:10203000000CEE08FF0810910D01412F50E0E7EF72
:10204000F1E081E090E04817590764F02191319167
:102050004901330FAA08BB08C80CD91CEA1CFB1C99
:102060000196F1CFF7FE03C0C12CD12C760160910F
:10207000F1017091F2018091F3019091F4010E94BD
:1020800080261B012C01A0E6BAEEA70196010E9452
:10209000F92E4B015C0148EC149F90011124C901F9
:1020A000330FAA0BBB0B9C01AD01220D331D441D48
:1020B000551DA5E0B0E00E94F92E9B01AC01C501C1
:1020C000B4010E94AB2E49015A0157FD0CC051EFDB
:1020D00085169104A104B1044CF0F0EF8F2E912CE1
:1020E000A12CB12C03C0812C912C540169EC261633
:1020F00031044104510414F18091F00190E0019603
:1021000069E170E00E94972E8093F001880F991F7B
:10211000FC01EB50FE4F11821082183110F41F5F4A
:1021200001C018E110930D010E94AB266093F101EC
:102130007093F2018093F3019093F40172E0C7165B
:10214000D104E104F1041CF4812C912C5401609120
:10215000EC017091ED018091EE019091EF010E94F0
:1021600080266B017C0185E6C816D104E104F104E8
:1021700084F00E94AB266093EC017093ED01809394
:10218000EE019093EF0180912C028093EB018092FD
:10219000EA011091EB01A091EA01B0E0A11BB109A5
:1021A000A70196010E94042F24E630E040E050E0B1
:1021B0000E94CD2E120F10932C02E0912B025E2F65
:1021C000550F550F20910F01E22FE295EF70F0E0CF
:1021D00080A190E02F7002C0959587952A95E2F72F
:1021E0008170992740910E01E42FE295EF70F0E0A5
:1021F00020A130E04F7002C0359527954A95E2F74F
:10220000F901E170FF2720FF02C0E2E0F0E0E82BD7
:10221000F92BE52BE0932B0210912A02EF70F0E0EE
:10222000ED59FE4F908180912902890F80932902F8
:1022300082308CF0E12FF0E0E95DFD4F80818F5F0F
:102240008083111102C08AEA03C0113031F48BE49B
:102250000E94182502C0B12C02C0BB24B394809107
:1022600029028F3F94F4E12FF0E0E95DFD4F80817A
:1022700081508083111102C089EA03C0113019F422
:102280008EE40E941825BB24B39480912902082E65
:10229000000C990B62E070E00E94972E8093290257
:1022A000B1100E94D51E80912705882309F4ECC146
:1022B00080915802909159020E949C26C29708F47E
:1022C000E0C00E94B726909359028093580260E0C4
:1022D00080E00E949C280E94A71C882371F188E757
:1022E00092E00E94641580918A020E94AC0D182F22
:1022F000882329F0813031F48EE692E005C083E72F
:1023000092E002C08AE692E00E94721587E692E0AF
:102310000E946415123049F028F0133049F48AE520
:1023200092E008C082E692E005C08EE592E002C02D
:1023300084E592E00E947215A4C0E0902C02F12C7A
:10234000F0923502E0923402809132029091330291
:102350000E949C26813591050CF45AC0B7010F2CC0
:10236000000C880B990B0E94922D20E030E046E192
:1023700053E40E94E82C20E030E040E052E40E9468
:102380001E2E9B01AC0160E070E080E092E40E94B0
:102390007B2C0E945A2D162FC62ED72E862F972FB4
:1023A00090931101809310010E948F1581E0810F9D
:1023B0000E948F1582E0810F0E948F1500E210E0CD
:1023C000C016D10634F4802F0E948F1501501109D8
:1023D000F7CF80E090E0FC01E35FFC4F2291218386
:1023E0009F012E58324028173907C1F780589F4F58
:1023F0008115A2E09A0779F78FEF9FEF90938D02F6
:1024000080938C020E94B72690933302809332020D
:102410004AE06DE272E0C7010E94042C8091340210
:1024200090913502843691055CF063E08EE00E9465
:102430009C2882E591E00E94771563E082E11BC051
:102440008A3091055CF063E08FE00E949C2882E571
:1024500091E00E94771563E083E10DC0181619061C
:1024600084F463E080E10E949C2882E591E00E9470
:10247000771563E084E10E949C288DE292E00E943F
:10248000771580912705882309F4E3C020918C02F9
:1024900030918D022115310509F4DBC0809157027E
:1024A0008111D7C0282E312C88248394912C082E9A
:1024B00002C0880C991C0A94E2F7A901482159210D
:1024C000452B11F48F5FEECF90915602910165E09C
:1024D000220F331F6A95E1F790FD12C08295880F95
:1024E000807680931401220F232F221F330B319506
:1024F00020931701815E809315011092180112C07C
:1025000045E0369527954A95E1F7220F220F220FD5
:102510002093140110921701295F2093150183E085
:102520008093180124E630E047E050E062E171E07A
:1025300088E70E94CB29892B09F08BC08091560235
:1025400080FD23C0C10125E0880F991F2A95E1F77E
:10255000AC0142575D4F04E610E020E230E060E459
:1025600088E70E94F229892B09F073C00E9446284F
:102570008094909480918C0290918D02882299226F
:1025800090928D0280928C0264C080E2E6E3F2E0D9
:10259000DF011D928A95E9F795E0220C331C9A958C
:1025A000E1F7E7E7F1E0FEA7EDA763E771E0ADA58E
:1025B000BEA58D91BEA7ADA7FB019191BF01910171
:1025C000290F311DA90142575D4F2A0190E08A5C15
:1025D0009D4FFC0107E09F01281B390BEE24E3947B
:1025E00001C0EE0C2A95EAF7A201F12CDA011D9147
:1025F000AD011E21202F2F192770D22E022E000C84
:10260000330BB12F01C0BB0FDA94EAF7DB2E319503
:10261000219531092770332701C016952A95EAF7CD
:10262000D12A1081D12AD082F39428E0F212DECF91
:10263000015031960F3F79F64DA55EA54B5751409D
:1026400009F0B5CF04E610E020E230E046E352E0C6
:1026500086CF809126058823B9F00E94AB26009191
:102660002205109123052091240530912505DC01D8
:10267000CB01801B910BA20BB30B8F3F9F4FAF4F32
:10268000BF4710F40E942C28711001C0B1100E94A5
:1026900046280E94322790915A02891380935A0249
:1026A00080917202843009F01ECC83E08093E900AF
:1026B0008091E80082FF17CC8091E80085FF23C05D
:1026C0000E94B11A81111DC080E2E82EF12C8E010A
:1026D0000F5F1F4F09C08091F100D8018D938D01CC
:1026E000B1E0EB1AF10869F08091E80085FDF3CFC5
:1026F0008091E8008B778093E8000E94B11A8823CC
:1027000099F391E001C090E08091E8008B7780938D
:10271000E800992309F4E7CBE9818E2F90E0FC01D2
:102720003197E331F10508F007C1E759FF4F0C94E9
:10273000EC2E1A8289E05AC08A81823009F43BC1AA
:10274000833051F0813009F0F7C00E94AB269B83A3
:102750008C837D836E83F2C0FE013396CE010D968D
:10276000ABA5BCA52D91BCA7ABA72193E817F90792
:10277000B9F7E4C08A81823009F0DEC06B817C81C8
:102780008D819E810E94F22E0E94CA28D7C04C8162
:102790006B818A810E94F9279D8314C10D811E815E
:1027A0001027012710278C81EB809A81BCE0EB9EDB
:1027B00070011124E8E79E9FE00CF11C1124E80E43
:1027C000F11CE80EF11C612FC70187960E94472C6F
:1027D000602FC70188960E94472CB0C00E94C52771
:1027E000ADC080E15AC081E08A8389EF8B83A6C0A7
:1027F000EA80FB80FE24EF24FE240C8110E09E0181
:102800002F5F3F4F59016901C701895F9D4F9601B5
:102810002A193B092017310708F090C039EFE31659
:1028200031E0F30630F40E94392CD60114968C93D3
:1028300002C0F6011482FFEFEF1AFF0A2FEFC21A4F
:10284000D20AE2CFEA80FB80FE24EF24FE240C8132
:1028500010E0AE014F5F5F4F5A016A01C701895F07
:102860009D4F96012A193B092017310708F066C0D1
:1028700059EFE51651E0F50628F4D60114966C914F
:102880000E94472CBFEFEB1AFB0AEFEFCE1ADE0ACD
:10289000E5CF0E94B52752C084E08A834FC0EA800A
:1028A000FB80FE24EF24FE240C8110E09E012F5FAC
:1028B0003F4F59016901C701879696012A193B09C3
:1028C00020173107D8F530EEE31631E0F30630F487
:1028D0000E94392CD60114968C9302C0F601148202
:1028E000FFEFEF1AFF0A2FEFC21AD20AE4CFEA80F5
:1028F000FB80FE24EF24FE240C8110E0AE014F5F2C
:102900005F4F5A016A01C701879696012A193B0950
:102910002017310798F450EEE51651E0F50628F43B
:10292000D60114966C910E94472CBFEFEB1AFB0A5C
:10293000EFEFCE1ADE0AE7CF8FEF89838091720224
:10294000843009F0D0CA1091E9001F709091EC001A
:10295000892F817090FD80E8182B82E08093E90038
:102960008091E80080FF0DC040E050E060E270E040
:10297000CE0101960E94E41A8091E8008E77809340
:10298000E8001F701093E900AECA09BD19BD09B473
:1029900000FEFDCF8091D8008F7D8093D80080917C
:1029A000E00082608093E0008091E00081FDFCCF38
:1029B0000E94FC249FCA86E290E00E94392C1B8270
:1029C0001C821D828E83BACFCF93DF938A3011F49D
:1029D00081E003C08D3029F480E0DF91CF910C9429
:1029E0006C28682F809194049091950426E0FC0156
:1029F000AEE8B4E001900D922A95E1F7603E30F028
:102A000026E0FC0111922A95E9F70AC0F6E06F9FD3
:102A1000B001112466557C4F46E050E00E94FB2B2C
:102A2000C0919404D091950446E050E0BE018EE838
:102A300094E00E941B2F892B49F19E012E583240B1
:102A4000A90185E0569547958A95E1F781E090E0E8
:102A5000BC0102C0660F771F4A95E2F740918C02D5
:102A600050918D02462B572B2B5F3F4F65E03695DB
:102A700027956A95E1F702C0880F991F2A95E2F71A
:102A8000842B952B90938D0280938C029E01285865
:102A9000324040918B02642F70E0C9010E94E72B05
:102AA000481B463010F4240F311D211582E03807F1
:102AB00010F020E030E022573D4F309395042093F2
:102AC0009404DF91CF910895CF93DF93EC01FE0141
:102AD0008491882321F00E94E4142196F8CFDF919D
:102AE000CF9108950E94641581E00C946C280F9397
:102AF0001F93CF93DF93EC01FC0101900020E9F7D5
:102B00008F0101501109C017D10720F489910E944B
:102B1000E414F9CFDF91CF911F910F910895209187
:102B20008B02223098F1982F969596959695929FC4
:102B3000900111242F5F3F4F211592E0390734F5A2
:102B4000F901E257FD4F6081877041E050E0DA0102
:102B500002C0AA0FBB1F8A95E2F7CD01862B68172A
:102B6000A9F0808385E0369527958A95E1F702C024
:102B7000440F551F2A95E2F780918C0290918D02A7
:102B8000482B592B50938D0240938C0208958091CD
:102B90008A02982F9670963011F4886001C0877F62
:102BA0000C94A324EF92FF920F931F93CF93DF9384
:102BB000EC017B0164E670E088E70E941A298C0131
:102BC000EC0EFD1ECE15DF0561F017FD0AC0FE01FB
:102BD000849164E670E00E949B298C012196892BE8
:102BE00089F30E941F2AC801DF91CF911F910F9195
:102BF000FF90EF900895EF92FF920F931F93CF9362
:102C0000DF93C82F8B01D42F7901FB016081718183
:102C1000828193810E948026643671058105910529
:102C200010F4DD2329F10C2E000CDD0BFE0183E0F6
:102C3000EE0FFF1F8A95E1F7E65EFE4F81819281DC
:102C400084589D4F408150E04115510511F041E0FD
:102C500050E0B7010E94282FCE010E946C2B8823E0
:102C600041F00E94AB26F8016083718382839383D5
:102C700081E0DF91CF911F910F91FF90EF90089528
:102C80001F93CF93DF93CDB7DEB7AA970FB6F89413
:102C9000DEBF0FBECDBFE4E7F2E08CE792E020910B
:102CA000F10021938E179F07D1F780917502833031
:102CB00009F463C030F4813071F0823009F49DC0B2
:102CC000B4C08A3009F489C08B3009F46EC08930F1
:102CD00009F0ABC020C080917402813A09F0A5C010
:102CE0008091E800877F8093E8008091780290913E
:102CF0007902892B21F468E088E692E003C060E065
:102D000080E090E070E00E94EB258091E8008B77F6
:102D10008093E8008AC080917402813209F085C0F6
:102D20008091780290917902009719F0029709F04A
:102D30007CC08091E800877F8093E8008091E80064
:102D400082FD05C0809172028111F8CF6EC0209182
:102D5000F3008091F20090E0922B029731F4809181
:102D6000F100813011F0863021F48091F1008093E0
:102D700067028091E8008B7754C080917402813A99
:102D800009F053C08091780290917902892B09F063
:102D90004CC08091E800877F8093E8008091E80034
:102DA00080FFFCCF8091190137C08091740281327D
:102DB000E1F58091780290917902892BB1F58091AB
:102DC000E800877F8093E8000E9497258091760233
:102DD000809319010E94FC2428C0809174028132E2
:102DE00021F58091E800877F8093E8000E94972575
:102DF000809177028093660218C080917402813AB4
:102E0000A1F48091E800877F8093E8008091E8003A
:102E100080FFFCCF809166028093F1008091E800F2
:102E20008E778093E8000E9497258091E80083FFC9
:102E3000DFC18091740290917502492F50E04A30B1
:102E4000510508F0D5C1FA01E458FF4F0C94EC2E5F
:102E5000803821F0823809F0CBC108C0809170021F
:102E600090917102992389F082600FC0809178025D
:102E70008F70873008F0BCC18093E9008091EB002F
:102E800085FB882780F91092E9009091E800977FF0
:102E90009093E8008093F1001092F10070C1282F08
:102EA0002D7F09F0A5C1882319F0823061F0A0C1FF
:102EB00080917602813009F09BC1933009F080E067
:102EC000809371022EC08091760281112AC0809178
:102ED00078028F702FEF280F263008F089C1809379
:102EE000E9002091EB0020FF1CC0933021F4809179
:102EF000EB00806214C09091EB0090619093EB0026
:102F000021E030E0A90102C0440F551F8A95E2F785
:102F10004093EA001092EA008091EB008860809371
:102F2000EB001092E9008091E800877F8093E80031
:102F30000E9497255DC181115BC1109176021F77B8
:102F40008091E3008078812B8093E3008091E800FA
:102F5000877F8093E8000E9497258091E80080FF9A
:102F6000FCCF8091E30080688093E300111102C0E0
:102F700082E001C083E0809372023AC180588230BF
:102F800008F036C120917602309177022C3D53E053
:102F9000350779F583E08A838AE289834FB7F8940D
:102FA000DE01139620E03EE051E2E32FF0E0509383
:102FB0005700E49120FF03C0E295EF703F5FEF7090
:102FC0008E2F90E0EA3010F0C79601C0C0968D9326
:102FD0009D932F5F243149F74FBF8091E800877F91
:102FE0008093E8006AE270E0CE0101960E94EB2532
:102FF000B4C08091780290917902432F55274330D5
:103000005105A9F068F44130510509F400C142307E
:10301000510509F0EDC08BE590E0EFE0F3E04BC027
:103020004132510529F14232510589F1E1C0C9010E
:10303000992781309105A1F058F0029709F0D8C086
:10304000ECE7F3E0E4918E2F90E0ECE7F3E030C0A2
:10305000E6EAF3E0E4918E2F90E0E6EAF3E028C0A0
:10306000EAE8F3E0E4918E2F90E0EAE8F3E020C094
:103070008330910508F0BCC0880F991FFC01EA5706
:10308000FE4F0190F081E02D89E090E014C0833084
:10309000910508F0ADC0FC01EE0FFF1FE058FE4F98
:1030A0000190F081E02DDC01A358BE4F8C9190E09F
:1030B000009709F49DC02091E800277F2093E80045
:1030C00020917A0230917B022817390708F4C90150
:1030D00040E0009789F120917202222309F43DC05B
:1030E0002530D9F12091E80023FD37C02091E80078
:1030F00022FD2FC02091E80020FFEBCF4091F3008C
:103100002091F20030E0342B009759F0283031053F
:1031100040F444914093F100319601972F5F3F4F67
:10312000F3CF41E02830310509F040E02091E8007C
:103130002E772093E800CDCF4111CDCF0AC08091EA
:103140007202882351F0853041F08091E80083FDC0
:1031500004C08091E80082FFF2CF8091E8008B7775
:103160008093E80045C0803809F042C08091E800B3
:10317000877F8093E800809173028093F1008091B3
:10318000E8008E77D3CE811133C080917602909182
:1031900077029927029764F58091E800877F8093F2
:1031A000E80010917602109373020E949725111186
:1031B00006C08091E30087FD02C081E001C084E089
:1031C0008093720242E061EC81E00E94B62542E207
:1031D00061EC84E00E94B62542E261EC82E00E944C
:1031E000B62542E260EC83E00E94B625809172022F
:1031F0008091E80083FF10C08091E800877F809372
:10320000E8008091EB0080628093EB0005C082E1D2
:1032100090E0EAE6F3E04FCFAA960FB6F894DEBF4F
:103220000FBECDBFDF91CF911F9108951F920F92D6
:103230000FB60F9211242F933F934F935F936F9389
:103240007F938F939F93AF93BF93CF93DF93EF932E
:10325000FF93C091E900CF708091EC00D82FD1701E
:1032600080FDD0E81092E9008091F000877F809384
:10327000F00078940E9440161092E9008091F000CE
:1032800088608093F000CD2BCF70C093E900FF9150
:10329000EF91DF91CF91BF91AF919F918F917F91EE
:1032A0006F915F914F913F912F910F900FBE0F90B3
:1032B0001F901895E8EDF0E080818E7F808310925A
:1032C000E2001092DA001092E100A0EEB0E08C91E2
:1032D00081608C9380818F77808319BCA7EDB0E0EB
:1032E0008C918E7F8C9380818F7E8083109265027B
:1032F0000895CF92DF92EF92FF920F931F93CF9397
:10330000DF93C8EDD0E088818F7E8883E7EDF0E021
:1033100080818160808384E082BF81E08093650248
:1033200088818E7F888302EE10E0F801108210926F
:10333000DA0081EEC82ED12CF601108288818F77B9
:10334000888388818068888388818F7D888319BC81
:103350001092720210927302109271021092700217
:1033600090EEE92EF12CF70180818B7F808388819C
:103370008160888342E060E080E00E94B625F6012B
:1033800080818E7F8083F80180818160808380814D
:1033900088608083F70180818E7F8083888180614F
:1033A0008883DF91CF911F910F91FF90EF90DF9075
:1033B000CF9008951F920F920FB60F9211242F9362
:1033C0003F934F935F936F937F938F939F93AF93AD
:1033D000BF93EF93FF938091E10082FF09C080913A
:1033E000E20082FF05C08091E1008B7F8093E100C5
:1033F0008091DA0080FF2AC08091D80080FF26C02B
:103400008091DA008E7F8093DA008091D90080FF6E
:1034100018C080E189BD82E189BD09B400FEFDCFFD
:1034200081E0809372028091650281110FC00E9439
:103430005A190E9479198091E20084608093E20019
:1034400005C019BC10927202109265028091E100D1
:1034500080FF17C08091E20080FF13C08091E200DE
:103460008E7F8093E2008091E20080618093E20091
:103470008091D80080628093D80019BC85E0809349
:1034800072028091E10084FF30C08091E20084FFED
:103490002CC080E189BD82E189BD09B400FEFDCF69
:1034A0008091D8008F7D8093D8008091E1008F7E3D
:1034B0008093E1008091E2008F7E8093E200809112
:1034C000E20081608093E20080917302882311F012
:1034D00084E007C08091E30087FD02C081E001C065
:1034E00083E080937202809172028091E10083FFF9
:1034F00027C08091E20083FF23C08091E100877F95
:103500008093E10082E080937202109273028091B6
:10351000E1008E7F8093E1008091E2008E7F8093B6
:10352000E2008091E20080618093E20042E060E08E
:1035300080E00E94B6258091F00088608093F000C2
:10354000FF91EF91BF91AF919F918F917F916F917B
:103550005F914F913F912F910F900FBE0F901F9051
:1035600018952091E4003091E50095E64091EC003B
:10357000842F817040FF23C08091E80080FD1DC032
:1035800080917202882399F0853099F08091EB0048
:1035900085FD11C04091E4005091E50024173507E6
:1035A00029F3915011F09A01E1CF84E0089582E06F
:1035B000089583E0089581E0089580E008954091A2
:1035C000E80042FFDDCF0895EF92FF920F931F9323
:1035D000CF93DF937C018B010E94B11A811119C036
:1035E000E70101151105A1F08091E80085FD0AC0F1
:1035F0008091E8008E778093E8000E94B11A8823BA
:1036000081F307C089918093F10001501109E9CF3E
:1036100080E0DF91CF911F910F91FF90EF9008957F
:1036200080E008959091DC0192FF0DC0282F287151
:10363000283019F4877F846006C0282F2471243035
:1036400011F48B7F886093FF0DC0282F28712831DB
:1036500019F4877E846106C0282F2471243111F467
:103660008B7E88612091DD0120FF0DC0382F3871DD
:10367000383019F4877F816006C0382F31713130BE
:1036800011F48E7F886021FF0DC0282F287128310A
:1036900019F4877E816106C0282F2171213111F430
:1036A0008E7E886194FD877E0895AF92BF92CF92FF
:1036B000DF92EF92FF920F931F93CF93DF937C01E2
:1036C0005B016A018091BA048A3018F001E010E0D1
:1036D00002C00AE010E0C1E0D0E0F894B501C701F3
:1036E000F60109957894811115C021960C171D07D4
:1036F00094F0CC9F9001CD9F300D300D112480E0CF
:1037000090E045E34A95F1F7000001968217930790
:10371000C1F7E3CF81E0DF91CF911F910F91FF902F
:10372000EF90DF90CF90BF90AF900895CF93DF934D
:103730001F92CDB7DEB7809126058983209189023B
:1037400030E090E041E02817390709F440E09E019D
:103750002F5F3F4F66EB74E086E00E94FB150F90F1
:10376000DF91CF910895CF93DF931F92CDB7DEB74E
:1037700080912C02898341E090918802981301C0C6
:1037800040E09E012F5F3F4F62EB74E085E00E94B6
:10379000FB150F90DF91CF9108956F927F928F92DA
:1037A0009F92AF92BF92CF92DF92EF92FF920F93D0
:1037B0001F93CF93DF931F92CDB7DEB7C62E4A017A
:1037C0005901682E880F7708C3010E946C2B88234B
:1037D00009F466C0C30123E0880F991F2A95E1F719
:1037E000FC01E65EFE4F438150E04115510511F0AA
:1037F00041E050E0FC01E65EFE4F64817581645853
:103800007D4FCE0101960E94282FF40160817181C5
:10381000828193810E94802664367105810591051D
:1038200038F4B701C8010E94B32899818917D1F1F2
:103830000C2C000CDD08C6010E946C2B782E88230E
:10384000E1F0E114F104C9F0960183E0220F331F87
:103850008A95E1F7F901E65EFE4F438150E0E416F8
:10386000F50608F4A701F901E65EFE4F6481758153
:1038700064587D4FC5010E94282FB701C8010E94DE
:10388000B32891E02981281390E0D92ED72089F020
:103890000E94AB26F401608371838283938309C005
:1038A000D12C02C0DD24D394A701B801C5010E9428
:1038B000282F8D2D0F90DF91CF911F910F91FF90A9
:1038C000EF90DF90CF90BF90AF909F908F907F90C0
:1038D0006F900895CF92DF92EF92FF920F931F9314
:1038E000CF93DF9300D000D01F92CDB7DEB76B012E
:1038F00085E0E82EF12C0DE712E09E012F5F3F4F8F
:1039000046EA54E061E080E00E94CD1B882349F044
:1039100095E0FE013196A1EAB4E001900D929A95EE
:10392000E1F795E0E1EAF4E0D60101900D929A9575
:10393000E1F70F900F900F900F900F90DF91CF91C4
:103940001F910F91FF90EF90DF90CF90089580919D
:10395000A004811118C08091D80080618093D800A4
:103960008AE18A95F1F700C08091D90080FD02C0FC
:1039700082E001C081E08093A004823021F40E94A3
:103980005A191092720281E09091A004913009F0CE
:1039900080E008950F931F93CF93DF9300D000D062
:1039A000CDB7DEB76091AE047091AF048091B004E2
:1039B0009091B1040E9480266436710581059105BD
:1039C00008F441C00E94A71C882319F00E94AB266E
:1039D0000EC00E94AB260091CC011091CD01209128
:1039E000CE013091CF01600F711F821F931FDC0148
:1039F000CB010296A11DB11D89839A83AB83BC8341
:103A000080913B0190913C0184589D4F40913A0137
:103A100050E04530510510F044E050E0BE016F5FCA
:103A20007F4F0E94282F84E090E00E946C2B882317
:103A300059F00E94AB266093AE047093AF0480935C
:103A4000B0049093B10481E00F900F900F900F900D
:103A5000DF91CF911F910F910895F894E82FE2958F
:103A6000EF70F0E031A1282F2F7081E090E001C0CD
:103A7000880F2A95EAF7982F9095932391A392A106
:103A8000892B82A378940895CF93DF938238910590
:103A900069F1B0F48133910509F46FC048F48932BB
:103AA000910509F465C08A32910509F46BC08AC09A
:103AB0008533910509F457C089339105B9F082C067
:103AC000833E910571F138F4803E9105B1F0823E5C
:103AD000910511F177C0863E9105B9F1873E9105B8
:103AE000C9F1843E910509F06DC024C02091DC012C
:103AF00020FD53C021FD51C065C08091DC0180FDD7
:103B000046C08091DD0180FF48C08091DC0184FDCA
:103B100047C183EE90E046C18091DC0182FF3AC04C
:103B2000F4CF8091DC0182FD35C08091DD0180FD04
:103B300034C0EBCF8091DD0181FF35C08091DC0185
:103B400084FD2EC187EE90E02DC18091DC0183FFC2
:103B500027C0F4CF8091DC0183FD22C08091DD017C
:103B600081FD21C0EBCF8091DC0185FD1FC021C00C
:103B70008091DC0185FD1DC019C08091DC0186FDAE
:103B80001BC01DC08091DC0186FD19C015C089E3F2
:103B900090E008C182EE90E005C180EE90E002C1A5
:103BA00086EE90E0FFC084EE90E0FCC089E290E0F9
:103BB000F9C085E390E0F6C08AE290E0F3C081E3CB
:103BC00090E0F0C0811532E5930708F069C08115D7
:103BD00041E5940728F0982F8827816F906AE2C00A
:103BE000883E910568F5803E910508F0DBC0883A73
:103BF0009105B8F4853A910548F0855AE82FF0E030
:103C0000E457FE4F808190E09064CCC081309105F4
:103C100009F4C3C008F4C4C08430910508F4C0C0DE
:103C2000C1C08F3B910508F0BBC0885AE82FF0E077
:103C3000EE0FFF1FE157FE4F808191819464B2C067
:103C4000811520E59207F0F09C0174E036952795E8
:103C50007A95E1F7922F9370482F437021E030E07E
:103C600002C0220F331F4A95E2F73C68392B8F7050
:103C7000982F9695969540E2949FC0011124822B2F
:103C8000932B90C0811530E4930718F09F70906AD1
:103C900089C09C013A9521153F4108F483C080C03A
:103CA000EC01C11586E5D807E8F5C11525E5D20771
:103CB00048F08C2F0E94121B8F7190E0982F88275C
:103CC000906270C0C11534E5D30728F09C2F882777
:103CD000846F906A67C0AE01437055272C2F2695DC
:103CE0002695C115D34578F481E090E002C0880F95
:103CF000991F4A95E2F740E2249F90011124822BFC
:103D0000932B9C684FC081E090E002C0880F991F00
:103D10004A95E2F740E2249F90011124822B932BD5
:103D20009A6840C0C11529E5D20788F4C11538E565
:103D3000D30728F09C2F8827806F906A33C0C11565
:103D400047E5D40768F5CE01992790662BC0C115C9
:103D50008AE5D80790F48C2F8F700E94121B94E094
:103D6000D695C7959A95E1F7CF70D0E0DC2FCC2798
:103D7000D0699E01282BC90115C0CE01905681152E
:103D8000904270F48D2F8F710E94121B282F2F717B
:103D9000CE0199279062922B05C081E090E002C08D
:103DA00080E090E0DF91CF9108950C94AB26CF9204
:103DB000DF92EF92FF920F931F93CF93DF931F92A7
:103DC000CDB7DEB7EE24E394F12C03E812E09E01B8
:103DD0002F5F3F4F4AEA54E063E082E00E94CD1B30
:103DE000C82E8823C9F10091DE01802F90E09C014C
:103DF000295D3D4F79011981F9018081181BD12E70
:103E000080E01D1484F4DA94F70180818F5F808351
:103E1000011102C08AEA03C0013019F48BE40E9448
:103E2000182581E0EECF912F17FD90E0191B11238B
:103E300081F01F5FF701808181508083011102C0F2
:103E400089EA03C0013019F48EE40E94182581E04C
:103E5000EECF81110E94D51E8C2D0F90DF91CF9156
:103E60001F910F91FF90EF90DF90CF900895CF9327
:103E700084E090E00E94392CC82F82E290E00E94FA
:103E8000392C2C2F30E0A901582BCA01CF9108956D
:103E90007F928F929F92AF92BF92CF92DF92EF92DA
:103EA000FF920F931F93CF93DF93CDB7DEB72F977A
:103EB0000FB6F894DEBF0FBECDBF9E012F5F3F4F00
:103EC00079018AE0D9011D928A95E9F708E511E0A8
:103ED00069018DE5A82E81E0B82E88248394912C69
:103EE000F80180818F3F09F441C0F894E82FE295F2
:103EF000EF70F0E021A18F70A40102C0440F551FA4
:103F00008A95E2F7CA01922F982B91A392A18095EE
:103F1000892382A3789400C0EDE5F1E0712C31E0B3
:103F200021912F3F89F0A22FA295AF70B0E090961B
:103F30008C9190E02F7002C0959587952A95E2F7B5
:103F400080FD02C0832F01C080E0782A330F51E04A
:103F5000E336F50729F7D8018C918F3F11F00E94C5
:103F60002D1DB0EABA95F1F7F60170820F5F1F4F71
:103F7000FFEFCF1ADF0AA016B10609F0B1CF4AE071
:103F800050E0B70180ED91E00E941B2F8C01892B3E
:103F900041F08AE0F701A0EDB1E001900D928A9521
:103FA000E1F7F090DB010115110549F081E0809304
:103FB00098040E94B726909397048093960480916A
:103FC00098048823B9F080919604909197040E94F8
:103FD0009C26059778F0A0EDB1E0EF2DF0E0E55AD2
:103FE000FD4F85ED91E02D9121938A179B07D9F71D
:103FF000109298040115110509F0E1C00E94A71C58
:10400000E091DB019E01255F3F4F7901882309F490
:104010006DC085E0D9011D928A95E9F70E2F10E059
:10402000055A1D4F8091BA048A3048F44AE65CE193
:10403000B701C8010E94551B882359F10AC080911D
:10404000990490919A040E949C26843F914070F7B5
:1040500032C047ED5EE1B701C8010E94551B8823BD
:10406000C1F04AEC5CE1B701C8010E94551B8823EE
:1040700081F043EB5BE1B701C8010E94551B882327
:1040800041F046E95BE1B701C8010E94551B81116F
:1040900099C08091BA048F3F19F08F5F8093BA0462
:1040A0008091BA048A3008F48FC00E94B72690939A
:1040B0009A048093990480919F04811102C000E0CA
:1040C00094C085E0F70111928A95E9F710929F0458
:1040D000A091DA01B0E0A55ABD4F85E0FE013B9604
:1040E00001900D928A95E1F701E07FC0F0E0E55A7A
:1040F000FD4FF89485E0ADE7B2E001900D928A950E
:10410000E1F765E070E08DE792E00E94B3288093CC
:104110007C027894F894E0912A02F0E0E95DFD4F8A
:1041200080818B878093830261E070E0C7010E94E9
:10413000B328809382027894F894C0908402D0903F
:104140008502E0908602F090870280919B04909116
:104150009C04A0919D04B0919E04C816D906EA065D
:10416000FB06D1F0C0929B04D0929C04E0929D0487
:10417000F0929E040E94A71C81110EC00E94AB26E3
:10418000C61AD70AE80AF90AC092CC01D092CD012A
:10419000E092CE01F092CF017894F8948091880259
:1041A00080932C027894F89480918902882319F0E6
:1041B0000E94462802C00E942C28789416C001E074
:1041C00010E013C01092BA048091DA0190E045E04B
:1041D00050E0B701855A9D4F0E941B2F21E020938C
:1041E0009F04892B09F074CF6ACF802F2F960FB6CA
:1041F000F894DEBF0FBECDBFDF91CF911F910F911D
:10420000FF90EF90DF90CF90BF90AF909F908F90F6
:104210007F90089569EE7EEF80E090E00E94652C2B
:1042200060E082E090E00E94472C60E083E090E054
:104230000E94472C1092210560E084E090E00E94EB
:10424000472C60E082E290E00E94472C60E085E02D
:1042500090E00E94472C60E086E090E00E94472CAE
:104260006FEF87E090E00E94472C40E050E0BA01F9
:1042700088E090E00E94592C60E08DE090E00E9480
:10428000472C40E050E0BA0188E190E00E94592CB0
:1042900060E087E190E00E94472C40E050E0BA01E6
:1042A0008CE190E00E94592C60E070E080E290E0A8
:1042B0000E94652C40E050E0BA0188E190E00E9445
:1042C000592C80E00E94CE280E94EC2840E050E06B
:1042D000BA018FE090E00E94592C40E050E0BA0112
:1042E00083E190E00C94592C80912005811110926B
:1042F00020050895809590911F05892380931F05BF
:10430000089590911F0580911E05982B9093BB04F2
:1043100080912005882389F0892B8093BB04EDEBE5
:10432000F4E097E080E0915029F021912223D9F325
:104330008F5FF9CF81110E94742148E050E066E15F
:1043400075E08BEB94E00E941B2F892BA9F088E08D
:10435000EBEBF4E0A6E1B5E001900D928A95E1F770
:10436000E0912D05F0912E05309731F00280F38118
:10437000E02D8BEB94E00994089580E090E00E949A
:104380001C2780E090E00E94062710921E050C94E6
:104390008121809114059091E304891719F08F5FB2
:1043A0008770FBCF08950F931F93CF93DF93809176
:1043B000E20482958F7009F05DC08091DF0488234C
:1043C00009F458C0809114051091E3046091DD0454
:1043D0007091DE04C091E004D091E10491E06F3F60
:1043E00009F090E0292F06E0811709F443C02097D7
:1043F00021F07F3F21F030E003C031E001C0322FD7
:1044000090E030FD34C0089FF001099FF00D1124A9
:10441000DF01AC51BB4F11963C911197371327C068
:104420003C91361324C012963C91129731111FC053
:1044300013964D915C9114974C1B5D0B44365105BE
:10444000B0F48091E2048F7080618093E204E751C0
:10445000FB4F80818F70806180838DED94E00E949E
:10446000F806DF91CF911F910F910C94C92101960D
:104470008770BACFDF91CF911F910F910895CF929E
:10448000DF92FF920F931F93CF93DF936C01009104
:104490008A0280912105082BC7E0D0E010E0C80116
:1044A0000C2E02C0959587950A94E2F780FD04C012
:1044B0002197A8F7F12C09C0FC2EB6018C2F0E9481
:1044C0001F280E94441D019799F38F2DDF91CF91F2
:1044D0001F910F91FF90DF90CF900895CF93DF93BE
:1044E000EC010E943F22BE010E941F280E94441D31
:1044F000DF91CF910895FC01808191810E946E220D
:1045000092959F70963079F010F4925001C09A50B5
:10451000923068F4803F69F018F4883E40F409C096
:10452000843F29F406C0883E20F0813F11F080E0EE
:10453000089581E008959F92AF92BF92CF92DF924B
:10454000EF92FF920F931F93CF93DF93CDB7DEB718
:1045500061970FB6F894DEBF0FBECDBF8C0185E02A
:10456000F801DE011D9601900D928A95E1F7F801A0
:10457000E2809091DD046091DE044091E00450916E
:10458000E1044115510531F06F3F31F481E09F3F67
:1045900019F403C081E001C080E0F82FF1709F2E74
:1045A00080FD1AC1F80130812181C380D4808DED56
:1045B000A82E84E0B82EF090DF04F601E41BF50B82
:1045C000FF2009F4C6C08091E204E436F10508F04A
:1045D00091C0482F407F09F050C0621311C093135F
:1045E0000FC0FE2CE1100CC08F7080618093E2043C
:1045F000C5010E94F8068091E204F801858337C165
:10460000CD2831F02F3F31F481E03F3F19F403C052
:1046100081E001C080E080FD03C081E08E2502C002
:1046200080E090E0F82FF170FF2E80FF1CC0809199
:1046300014054091E30456E0841709F4F6C090E0B5
:10464000589FF001599FF00D1124EC51FB4F6181EF
:10465000261306C06081631303C06281E61203C0A3
:1046600001968770E9CFFE2CEE2009F400C18091FD
:10467000E20481608093E20449C0621306C0931390
:1046800004C0E11002C0F80186C0C8010E947B226C
:10469000882351F1EE2041F12091E204822F82958E
:1046A0008F7090E0029774F08091DD049091DE04A9
:1046B00098878F831986DB86CA862C87CE0107965A
:1046C0000E94F80686E0F801ADEDB4E001900D928D
:1046D0008A95E1F70E94D3210AC06217C9F0C80188
:1046E0000E947B2281111EC0C8010E94F806FF248F
:1046F000F394BDC0482F407F81F78DED94E00E9478
:10470000F80686E0F50111928A95E9F7F12CAFC021
:104710009313E5CFE110E3CFF8018583C8010E9430
:10472000F80654C0EE2001F32091E204822F829516
:104730008F7090E0029734F28091DD049091DE0456
:104740009A8389831B82DD82CC822E83CE010196DF
:10475000B7CFE436F105D0F5FE2CEE2029F2621336
:1047600027C0931325C02091E20420FD18C0822F9A
:1047700082958F70482F50E04115510581F0F80166
:1047800025834F30510541F08F5F982F9295907F90
:10479000822F8F70892B8583C8010E94F80686E0DE
:1047A000F801ADEDB4E001900D928A95E1F75FC09C
:1047B000C8010E947B22811185CF8091E204816033
:1047C0008093E204C8010E94F80651C086E0F5011A
:1047D00011928A95E9F74BC0EE2009F485CFC80104
:1047E0000E947B22F82E882309F47ECF86E0F80110
:1047F000ADEDB4E001900D928A95E1F78091DD0472
:104800009091DE040E946E2292959F70963051F432
:10481000863F41F08091DC0491E089278093DC049D
:104820009093DB040E94D32122C03D872E878D8583
:104830009E850E946E22292F22952F70223028F407
:104840009F7039F0811105C00BC0243028F49F708F
:1048500049F4805E883020F0C8010E94F8069F2C41
:10486000F92C05C0F8019581907F99F7F9CF8F2D2C
:1048700061960FB6F894DEBF0FBECDBFDF91CF912A
:104880001F910F91FF90EF90DF90CF90BF90AF906E
:104890009F900895292F220F920F990F890F682F4B
:1048A000669566956695982F977083E0689FB0012E
:1048B000112440E050E080E0FB01E40FF51FED53D0
:1048C000FB4F208130E0092E02C0369527950A94CF
:1048D000E2F721703327042E01C0220F0A94EAF771
:1048E000822B4F5F5F4F4330510531F70895292FD9
:1048F000220F920F990F890FE82FE695E695E6951E
:10490000877051E001C0550F8A95EAF783E0E89F70
:10491000F0011124ED53FB4F20E030E070E04081C6
:10492000CB01022E02C0969587950A94E2F781701A
:10493000819584278523842781932F5F3F4F2330E0
:10494000310569F7089580938A020C94BD2121E016
:1049500030E001C0220F8A95EAF7209580918A0203
:1049600082230C94A32420911505809582238093A3
:104970001505982F977099F430E0482F082E000CF9
:10498000550B2417350759F09091DD0192FD07C0B2
:104990008595859585950E94A72410921505089503
:1049A000CF93C091DD01C2FB992790F9981799F038
:1049B00080FBC2F9C093DD016091DC0184E090E0EE
:1049C0000E94472C6C2F82E290E00E94472C82E0EC
:1049D000CF910C94B324CF91089521E030E001C031
:1049E000220F8A95EAF780918A02822B0C94A324E5
:1049F000809321050C94BD2110921F0586E0EDEBFC
:104A0000F4E0DF011D928A95E9F70C94BD2188231B
:104A100021F00E947A210C9481210895882339F095
:104A200090911F05892B80931F050C948121089577
:104A30001F93CF93DF93182F893319F0CAE0D0E08A
:104A400002C0C0E5D0E0812F0E94B7058FE99FE04A
:104A50000197F1F700C000002197C1F7812FDF9186
:104A6000CF911F910C948605089508958091670257
:104A700008958093360570933805609337058091CB
:104A800072028430F9F48093E9008FEF9091E8008E
:104A9000815095FD06C095ED9A95F1F700008111C2
:104AA000F5CF8091E80085FF0DC040E050E063E065
:104AB00070E086E395E00E94E41A8091E8008E772A
:104AC0008093E8000895BC0184E00C943925BC0172
:104AD00083E00C943925CF93DF9321E02093E90004
:104AE0002FEF3091E800215035FD06C035ED3A95A5
:104AF000F1F700002111F5CF2091E80025FF14C047
:104B0000EC0140E050E068E070E00E94E41A80911F
:104B1000E8008E778093E80088E0FE01A8E6B2E026
:104B200001900D928A95E1F7DF91CF9108958091E0
:104B3000740287FF11C08091E80082FD05C080915A
:104B400072028111F8CF11C08091E8008B770BC001
:104B500080917202882349F08091E80080FFF8CFAD
:104B60008091E8008E778093E8000895982F973021
:104B700068F59093E900981739F07091EC00209156
:104B8000ED005091F00003C0242F762F50E021FD5E
:104B900002C09F5FECCF3091EB003E7F3093EB0083
:104BA0003091ED003D7F3093ED003091EB003160AE
:104BB0003093EB007093EC002093ED005093F000E5
:104BC0002091EE0027FDE5CF80E008958F7080935F
:104BD000E90081E0089520917A0230917B02261746
:104BE000370748F06115710539F42091E8002E77F8
:104BF0002093E80001C0B901FC0120E061157105B6
:104C000079F1809172028823F1F18530F1F1809180
:104C1000E80083FD3CC08091E80082FD2EC08091B9
:104C2000E80080FFEBCF2091F3008091F20090E04C
:104C3000922B6115710551F08830910538F421915E
:104C40002093F100615071090196F3CF21E008979C
:104C500009F020E08091E8008E778093E800CECFC5
:104C60002111CFCF0AC080917202882361F0853074
:104C700061F08091E80083FD0AC08091E80082FF26
:104C8000F2CF80E0089582E0089583E0089581E006
:104C9000089587E797E790930108809300089AE0CA
:104CA00088E10FB6F894A895809360000FBE9093AA
:104CB0006000FFCF78941F920F920FB60F921124CD
:104CC0008F939F93AF93BF9380913205909133055B
:104CD000A0913405B09135050196A11DB11D8093B9
:104CE000320590933305A0933405B0933505BF91F9
:104CF000AF919F918F910F900FBE0F901F901895BD
:104D0000CF92DF92EF92FF922FB7F894C0903205C6
:104D1000D0903305E0903405F09035052FBFA70102
:104D20009601261B370B480B590BCA01B901FF909E
:104D3000EF90DF90CF9008959C014FB7F894809149
:104D4000320590913305A0913405B09135054FBFE0
:104D5000821B930B08952FB7F894609132057091E0
:104D6000330580913405909135052FBF08952FB7F5
:104D7000F8948091320590913305A0913405B0915B
:104D800035052FBF08951F920F920FB60F92112471
:104D90008F939F93AF93BF9380913105811113C07F
:104DA0008091320590913305A0913405B09135057D
:104DB0004196A11DB11D8093320590933305A093B8
:104DC0003405B0933505BF91AF919F918F910F90AE
:104DD0000FBE0F901F9018959C01FC0132969FEF1B
:104DE00080E04191461789F09F3F19F4411101C0BD
:104DF000982F8F5F8630A9F79F3F39F0F901E90FAF
:104E0000F11D97FDFA9562830895089520912F056D
:104E1000309130052817390771F090933005809351
:104E20002F05E0912D05F0912E05309721F000849B
:104E3000F185E02D0994089520912B0530912C05E2
:104E40002817390771F090932C0580932B05E0917A
:104E50002D05F0912E05309721F00680F781E02D89
:104E6000099408950E94A71C882351F0E0912D0514
:104E7000F0912E05309721F00190F081E02D0994FA
:104E800080E008950F931F93CF93DF93C42FD22F09
:104E9000FC0182818823C9F040932A050E94B7262D
:104EA000909329058093280580E28C0F883008F0C4
:104EB00057C0C77081E001C0880FCA95EAF7DF913B
:104EC000CF911F910F910C940E2580912A054813C4
:104ED00030C080912805909129050E949C26843637
:104EE000910538F510E21D0FCD17B9F080E28C0F57
:104EF000883040F4C77081E001C0880FCA95EAF796
:104F00000E940725183028F581E09D2F977001C079
:104F1000880F9A95EAF70E940E25802F0E94182587
:104F20001830F0F4D77081E001C0880FDA95EAF705
:104F30000AC080E28C0F883098F4C77081E001C00D
:104F4000880FCA95EAF7DF91CF911F910F910C94CA
:104F50000725802FDF91CF911F910F910C94182579
:104F6000DF91CF911F910F910895CF93DF93C7E009
:104F7000D2E060E0CE010E94472C2196C11584E06A
:104F8000D807B9F7DF91CF910895CF92DF92EF92D2
:104F9000FF920F931F93CF93DF93C0E0D0E08E0179
:104FA00008581F4F6E018CE0C80ED11CFE01E25163
:104FB000F74FE590F4906F2DCE0187960E94472C15
:104FC0006E2DCE0188960E94472C2296CC15DD05C9
:104FD00069F70C171D0731F7E801003E1140F9F69B
:104FE000DF91CF911F910F91FF90EF90DF90CF90C5
:104FF00008950F931F93CF93DF93C42FD0E0CC0F6E
:10500000DD1F2CE0629FC00DD11D112438E7839F66
:10501000C00DD11D1124CE0187960E94392C082F76
:1050200010E0102F0027CE0188960E94392C98019D
:10503000282BC901DF91CF911F910F910895462F21
:10504000843038F47A3028F4663018F4672F0C94E2
:10505000F92780E090E0089580912705909126053A
:10506000882389F0992369F062E070E08CEE98E083
:105070000E94D215892B19F080912605089510926F
:1050800026059091260581E08927089580912705BE
:105090008823F9F00E94AB26DC01CB01805E914BA6
:1050A000AF4FBF4F8093220590932305A093240513
:1050B000B09325058091260581110BC062E070E058
:1050C0008AEE98E00E94D215892B19F481E0809332
:1050D0002605809126050895CF93E82F209194040A
:1050E000309195042E58324040918B02642F70E02D
:1050F000C9010E94E72B481B842FEE2351F066E084
:105100000E948B2EC82FC150A8F080E20E94E414A8
:10511000FACFA901480F511D4115524018F080E007
:1051200020E030E0280F311D22573D4F3093950489
:1051300020939404CF91089520918B0236E0839FB1
:10514000C0011124629F800D911D1124811522E060
:10515000920714F080E090E082579D4F9093950461
:10516000809394040895FC01680F791F8FEF91E3F9
:10517000E617F70771F02191822728E030E087FFDA
:1051800003C0880F892701C0880F21503109B9F762
:10519000EFCF089586E290E00C94472CCF93C82F70
:1051A000811102C06FEF01C062E283E290E00E94D1
:1051B000472CC11102C06FEF01C061E084E290E0B2
:1051C0000E94472CC11102C06FEF01C060E285E26E
:1051D00090E0CF910C94472C80E00E94CE2860E0B4
:1051E00070E0CB010E94CA280E94C5270E94B52703
:1051F00081E00C94CE2883E290E00E94392C823228
:1052000081F484E290E00E94392C813051F485E2EF
:1052100090E00E94392C91E0803209F090E0892FD3
:1052200001C080E0817008951092B9008CE08093F5
:10523000B80008959F92AF92BF92CF92DF92EF9203
:10524000FF920F931F93CF93DF93B82EEB010E9431
:10525000B7266C01C431D10558F0CF3F8FEFD80786
:1052600059F0CE0164E170E00E94E72B7B0107C09A
:10527000EE24E394F12C03C025E0E22EF12C84E827
:10528000A82E94EA992E1092BC009092BC000E9425
:10529000B7268C018091BC0087FD08C00E94B7260C
:1052A000801B910B8E159F05A8F32AC08091B90031
:1052B000887F883041F08091B900887F803119F073
:1052C0000FEF1FEF1FC0B092BB00A092BC000E9466
:1052D000B7268C018091BC0087FD08C00E94B726CC
:1052E000801B910B8E159F05A8F30AC08091B90011
:1052F000887F883111F0803419F700E010E00EC08B
:105300000EEF1FEFCF3F8FEFD80709F4BCCFC601D8
:105310000E949C268C179D0708F4B5CFC801DF9129
:10532000CF911F910F91FF90EF90DF90CF90BF90A2
:10533000AF909F9008950F931F93CF93DF93EB014E
:105340008093BB0084E88093BC000E94B7268C0148
:105350008091BC0087FD0EC0CF3F8FEFD807C1F30F
:105360000E94B726801B910B8C179D0788F38EEF48
:105370009FEF0CC02091B900287F81E090E0283297
:1053800011F480E090E0919581959109DF91CF91A2
:105390001F910F910895CF92DF92EF92FF920F939A
:1053A0001F93CF93DF936B018A017901B9010E94AA
:1053B0001A29E6010C0D1D1DC017D10761F424E95F
:1053C0002093BC00DF91CF911F910F91FF90EF9040
:1053D000DF90CF90089597FDF2CFB70189910E9499
:1053E0009B29EACFCF92DF92EF92FF920F931F9308
:1053F000CF93DF93C62F6A017901B8010E941A2961
:1054000097FD11C0B8018C2F0E949B29E601EC0C7E
:10541000FD1CCE15DF0539F097FD05C0B801899157
:105420000E949B29F6CF24E92093BC00DF91CF9105
:105430001F910F91FF90EF90DF90CF90089584E936
:105440008093BC0008958EE14A9B02C08150E1F731
:105450004A9BFECF08955A9880E28A95F1F75A9AAE
:105460000895FC012AE02A95F1F728E090E080E019
:1054700031E040E14A95F1F7880F4A9B02C0816014
:10548000932700C0000040E14A95F1F7215089F7C9
:1054900020E12A95F1F729B100C0000030E13A95EA
:1054A000F1F722FB222720F992272081920F908387
:1054B0000895EF92FF920F931F93CF93DF931F9264
:1054C000CDB7DEB719828C017C01E60EF11C0E15FA
:1054D0001F0551F00E94232ACE0101960E94312A15
:1054E000F80181938F01F3CF81E09981911180E0E0
:1054F0000F90DF91CF911F910F91FF90EF90089542
:10550000529A5A9A089552985A9AEA9AE9E6F0E01D
:1055100080818F7C80830895615091E001C0990F54
:105520006A95EAF720E031E0992361F0492F48239A
:1055300019F05A9A232701C05A9840E24A95F1F788
:105540009695F2CF222311F05A9A01C05A9880E220
:105550008A95F1F75A980895FF920F931F93CF936E
:10556000DF93EC018C01060F111DC017D10741F02C
:10557000F9900E942B2A68E08F2D0E948C2AF5CF8B
:10558000DF91CF911F910F91FF9008951F920F927D
:105590000FB60F9211240F931F932F933F934F93A6
:1055A0005F936F937F938F939F93AF93BF93EF938B
:1055B000FF93CF93DF931F92CDB7DEB719820E947E
:1055C000232ACE0101960E94312A082F06950695BE
:1055D0000695902F96959570202F2570920F292F64
:1055E000237096959695920F877089135FC0898175
:1055F00081115CC0083008F059C080E18A95F1F74C
:105600005A9A529A82E08A95F1F700C05A9888E037
:10561000089F80011124D801A65EBE4F1696ED9119
:10562000FC9117973097A9F060917B0170917C01F4
:1056300014962D913C911597260F371F11968D9139
:105640009C911297680F791F13964C9113978C9128
:105650000995F801E65EFE4F6381662351F0809163
:105660007B0190917C0124813581820F931F0E94E0
:10567000AC2A0E942B2A80E18A95F1F75A98529819
:105680005A9A80E18A95F1F7F801E65EFE4F608153
:10569000662351F080917B0190917C0121813281C0
:1056A000820F931F0E94592A0E94232A0F90DF9194
:1056B000CF91FF91EF91BF91AF919F918F917F918A
:1056C0006F915F914F913F912F911F910F910F908B
:1056D0000FBE0F901F9018950F931F93CF93DF93DA
:1056E000883091050CF06DC0EC01F894529A5A98EC
:1056F00085E08A95F1F700009C2F969595702C2FE8
:105700002570920F892F83709695969523E0CC0F84
:10571000DD1F2A95E1F7980F8E01092B0E942B2A95
:1057200084E08A95F1F700C068E0802F0E948C2AFF
:1057300080E18A95F1F752985A9A4A9902C000C0BE
:10574000FCCF87E090E04A9B08C0019721F4529A71
:105750005A9A789436C000C0F6CFFE01E65EFE4F3E
:105760006381662381F080917B0190917C0124818B
:105770003581820F931F0E94592A811104C0529AC9
:105780005A9A78941FC00E94232A80E28A95F1F7E2
:105790005A98529A80E18A95F1F7C65EDE4F688189
:1057A000662351F080917B0190917C0129813A819F
:1057B000820F931F0E94AC2A0E942B2A789481E0CA
:1057C00001C080E0DF91CF911F910F910895AA1B36
:1057D000BB1B51E107C0AA1FBB1FA617B70710F0DC
:1057E000A61BB70B881F991F5A95A9F7809590950E
:1057F000BC01CD010895FB01DC0102C005900D92B2
:1058000041505040D8F70895BB274A3031F49923CE
:1058100022F4BDE2909581959F4F0C94102CBB27EC
:10582000FB015527AA27880F991FAA1FA41710F05C
:10583000A41B83955051B9F7A05DAA3308F0A95D68
:10584000A193009779F7B111B1931192CB010C9408
:10585000292CDC01FC01672F71917723E1F7329746
:1058600004C07C916D9370836291AE17BF07C8F33B
:105870000895F999FECF92BD81BDF89A992780B518
:105880000895A8E1B0E042E050E00C946D2C262F82
:10589000F999FECF92BD81BDF89A019700B4021626
:1058A00039F01FBA20BD0FB6F894FA9AF99A0FBED4
:1058B00008950396272F0E94482C0E94472C252FDD
:1058C0000E94482C242F0C94482C0196272F0E94CC
:1058D000482C0C94472CDC01CB01FC01F999FECF3C
:1058E00006C0F2BDE1BDF89A319600B40D92415068
:1058F0005040B8F708955058BB27AA270E94932C10
:105900000C94E42D0E94D62D38F00E94DD2D20F05D
:1059100039F49F3F19F426F40C94D32D0EF4E0953E
:10592000E7FB0C94CD2DE92F0E94F52D58F3BA1703
:10593000620773078407950720F079F4A6F50C94A5
:10594000172E0EF4E0950B2EBA2FA02D0B01B901E6
:1059500090010C01CA01A0011124FF27591B99F0E5
:10596000593F50F4503E68F11A16F040A22F232FF1
:10597000342F4427585FF3CF469537952795A79541
:10598000F0405395C9F77EF41F16BA0B620B730BE8
:10599000840BBAF09150A1F0FF0FBB1F661F771F59
:1059A000881FC2F70EC0BA0F621F731F841F48F40E
:1059B000879577956795B795F7959E3F08F0B0CF97
:1059C0009395880F08F09927EE0F9795879508957E
:1059D0000E94FC2C0C94E42D0E94DD2D58F00E94B6
:1059E000D62D40F029F45F3F29F00C94CD2D5111B4
:1059F0000C94182E0C94D32D0E94F52D68F3992346
:105A0000B1F3552391F3951B550BBB27AA276217BA
:105A10007307840738F09F5F5F4F220F331F441FC7
:105A2000AA1FA9F335D00E2E3AF0E0E832D09150FB
:105A30005040E695001CCAF72BD0FE2F29D0660FE8
:105A4000771F881FBB1F261737074807AB07B0E82B
:105A500009F0BB0B802DBF01FF2793585F4F3AF031
:105A60009E3F510578F00C94CD2D0C94182E5F3F7D
:105A7000E4F3983ED4F3869577956795B795F795B7
:105A80009F5FC9F7880F911D9695879597F908959F
:105A9000E1E0660F771F881FBB1F6217730784073B
:105AA000BA0720F0621B730B840BBA0BEE1F88F74A
:105AB000E09508950E94612D6894B1110C94182E00
:105AC00008950E94FD2D88F09F5798F0B92F9927CF
:105AD000B751B0F0E1F0660F771F881F991F1AF0D9
