:100000000C9467050C9484050C9484050C94372B90
:100010000C9484050C9484050C9484050C9484053C
:100020000C9484050C9484050C94141D0C94C91B29
:100030000C94C31E0C9484050C9484050C948405C4
:100040000C9484050C9484050C9484050C9484050C
:100050000C9484050C945A1E0C9484050C9484050D
:100060000C9484050C9484050C9484050C948405EC
:100070000C9484050C9484050C9484050C948405DC
:100080000C9484050C9484050C9484050C948405CC
:100090000C9484050C9484050C9484050C948405BC
:1000A0000C9484050C9484050C948405F00AF00AE1
:1000B000240B240B920B370DC00C370DB40B270CFF
:1000C0003A0C3A0CCD0CFA0CD50CD80CE10CDB0C2C
:1000D000E40CE813EB13091416141D143D14E71473
:1000E000E714E714E714E71440144214471470149B
:1000F000961499149C14C31405272C27D5282C2753
:10010000D52878279B27D5289028A0280005010509
:10011000020503050405050500060106020603069F
:100120000406050600070107020703070407050781
:10013000000801080208030804080508000901096D
:100140000209030904090509000001000200030077
:100150000400050000010101020103010401050181
:10016000000201020202030204020502000301036D
:10017000020303030403050300040104020403044F
:10018000040405040000000000000000000000005E
:10019000000000000000000000000000000000005F
:1001A00000000000000000007E0F00D4FFFFFFC72A
:1001B0000000007800000000000000002A2B28004A
:1001C0000000000000000000000000000000002906
:1001D000000000002C1E3420212224342627252E46
:1001E000362D3738271E1F2021222324252633337E
:1001F000362E37381F0405060708090A0B0C0D0EAA
:100200000F101112131415161718191A1B1C1D2F75
:100210003130232D350405060708090A0B0C0D0E95
:100220000F101112131415161718191A1B1C1D2F55
:100230003130354C00DA028132D9F1DB20A4A62E10
:10024000AF00A0C000A1C800AED580A81FD3004059
:100250008D142000556E646566004C575200525351
:10026000450042617365000A0A006C7972004741DB
:100270004D450071777274000A0A0007087F08076D
:10028000003E5B4F5B3E003E6B4F6B3E001C3E7C76
:100290003E1C00183C7E3C18001C577D571C001C5F
:1002A0005E7F5E1C0000183C180000FFE7C3E7FFFC
:1002B00000001824180000FFE7DBE7FF0030483A91
:1002C000060E00262979292600407F0505070040F3
:1002D0007F05253F005A3CE73C5A007F3E1C1C0826
:1002E00000081C1C3E7F0014227F2214005F5F0068
:1002F0005F5F0006097F017F00006689956A0060E4
:10030000606060600094A2FFA2940008047E04086C
:100310000010207E20100008082A1C0800081C2A53
:100320000808001E10101010000C1E0C1E0C0030CF
:10033000383E383000060E3E0E0600000000000079
:100340000000005F000000000700070000147F1499
:100350007F1400242A7F2A120023130864620036C7
:100360004956205000000807030000001C224100ED
:10037000000041221C00002A1C7F1C2A0008083EA5
:100380000808000080703000000808080808000015
:1003900000606000002010080402003E5149453E04
:1003A0000000427F4000007249494946002141490E
:1003B0004D33001814127F10002745454539003C85
:1003C0004A49493100412111090700364949493656
:1003D00000464949291E0000001400000000403476
:1003E000000000000814224100141414141400002A
:1003F00041221408000201590906003E415D594E90
:10040000007C1211127C007F49494936003E41416F
:100410004122007F4141413E007F49494941007FDF
:1004200009090901003E41415173007F0808087F16
:100430000000417F4100002040413F01007F08143F
:100440002241007F40404040007F021C027F007F2D
:100450000408107F003E4141413E007F0909090622
:10046000003E4151215E007F091929460026494975
:1004700049320003017F0103003F4040403F001F1D
:100480002040201F003F4038403F006314081463A1
:10049000000304780403006159494D4300007F4183
:1004A000414100020408102000004141417F000446
:1004B00002010204004040404040000003070800E1
:1004C000002054547840007F284444380038444485
:1004D000442800384444287F0038545454180000FD
:1004E000087E09020018A4A49C78007F0804047800
:1004F0000000447D4000002040403D00007F102867
:1005000044000000417F4000007C04780478007CB7
:100510000804047800384444443800FC18242418A3
:100520000018242418FC007C0804040800485454D3
:1005300054240004043F4424003C4040207C001C20
:100540002040201C003C4030403C004428102844FF
:10055000004C9090907C004464544C440000083659
:100560004100000000770000000041360800000252
:1005700001020402003C2623263C0000000000008B
:1005800000404040F0F8F8FF38FFF8F83FF8F8FF77
:1005900038FFF8F8F040404000000000000080C044
:1005A000C0C0800000C0C08000000080C0C000C08B
:1005B000C0000080C0C00000000000C0C0C0C0C0BB
:1005C00000C0C000000000000000000000000000AB
:1005D000000000000000000000000000000000001B
:1005E000000000000000000000000000000000000B
:1005F00000000000000000000000C0F0F8FC3E1EFB
:1006000006010000007F4141417F007F4141417F61
:10061000000080C0E07E5B4F5BFEC00000C000DCDD
:10062000D7DEDEDED7DC00C00000000000000000E6
:1006300000000000000000000000000000000000BA
:1006400000494949FFFFFFFFE0DFBFBF00BFBFDF39
:10065000E0FFFFFFFF49494900000000001F3F6025
:1006600060E0BF1F007F7F071E381E077F7F007F6F
:100670007F0E1F3B716000000000007F7F0C0C0CA0
:10068000007E7E007F7E0303007F7E03037E7E0369
:10069000037F7E000F3E703C063C703E0F00327BB5
:1006A00049493F7E007F7E0303001E3F69696F2634
:1006B00000000000000000000000030F1F3F3C7816
:1006C00070600000007F4141417F007F4141417FD8
:1006D00000307B7F7830202030787F3B0003000F94
:1006E0007F0F0F0F7F0F00030000000000000000CD
:1006F00000000000000000000000000000000000FA
:1007000000010101070F0F7F0F7F0F0F7E0F0F7F7B
:100710000F7F0F0F07010101000000000000000023
:1007200000000101000000000000000000000000C7
:1007300000000000000000000000000000000000B9
:1007400000000000000000000000000000000000A9
:100750000000000000000000000000000000000099
:100760000000000000000000000000000000000089
:100770000000000000000000000000000000000079
:100780000000000000000000000000000000000069
:100790000000000000000000000000000000000059
:1007A0000000000000000000000000000000000049
:1007B000000000000000000000000000AF00AE29B3
:1007C000001E001F002000210022002B0014001A30
:1007D0000008001500170035000400160007000986
:1007E000000A00E1001D001B00060019000500E3DF
:1007F00000E200E00002512C00A8002A0027002699
:10080000002500240023002F00130012000C001804
:10081000001C00340033000F000E000D000B00E53B
:100820000038003700360010001100E700E600E451
:100830000003512800000001000100010001000137
:1008400000010001000100010001000100010001A0
:100850000001000100160017000700010001001B45
:1008600000060019000500E300E200E00001002896
:1008700000A8003500270026002500240023002AB8
:100880000033001C0018000F000D00340012000C93
:1008900000080011000B00E500380037003600109A
:1008A000000E00E700E600E40001002C000000015B
:1008B000003A003B003C003D003E0001001E001FCE
:1008C0000020002100220001001E021F0220022140
:1008D00002220201002E002D002E022F0230020102
:1008E000000100010001000100010044004300423A
:1008F00000410040003F004500270026002500245D
:1009000000230031022702260225022402230201CD
:100910000031003302330030002F000100010001DC
:1009200000010001000100010001000100010001BF
:1009300000010001004900460065000000000001C0
:1009400000E200E000E1000000390001007A007BD5
:10095000007C007D00000001000100010001000199
:100960000001000100010001000100010001002A56
:100970000001000100520001004B002A004C004F12
:1009800000510050004E0001000000010000000175
:10099000000000010001000100010001000100054C
:1009A000010980A101850319012AB700150126B7A5
:1009B00000950175108100C0050C0901A101850495
:1009C00019012AA002150126A002950175108100C7
:1009D000C00660FF0961A1010962150026FF0095AC
:1009E00020750881020963150026FF00952075080F
:1009F0009102C005010906A101050719E029E715C3
:100A00000025019508750181029501750881010590
:100A100007190029FF150026FF00950675088100BB
:100A200005081901290595057501910295017503C0
:100A30009101C009025B00030100A0FA0904000053
:100A400001030101000921110100012240000705F5
:100A500081030800010904010002030000000921CC
:100A60001101000122220007058203200001070571
:100A70000303200001090402000103000000092112
:100A80001101000122320007058403200001120138
:100A900000020000000832FC870201000102000190
:100AA0000C0353006F0066006C00650000001A0321
:100AB0004A006F0073006500660041006400610039
:100AC0006D00630069006B00000004030904112439
:100AD0001FBECFEFDAE0DEBFCDBF11E0A0E0B1E096
:100AE000EAE9FFE502C005900D92A03CB107D9F7F5
:100AF00025E0A0ECB1E001C01D92A633B207E1F7FA
:100B00000E94C00D0C94CB2F0C940000882371F12F
:100B10009CEF980F913A60F4E7EAF2E09281891332
:100B200001C01282319692E0ED3AF907B9F70DC093
:100B300090E2980F983058F4982F977081E001C098
:100B4000880F9A95EAF70E9486210C948D219BE5E7
:100B5000980F933020F480E090E00C941C1F885A8A
:100B6000873120F480E090E00C94061F0895CF9325
:100B7000882309F453C09CEF980F913AF8F4C82FDA
:100B8000E9EAF2E08FEA92E02191C21721F08E1794
:100B90009F07D1F70DC0E7EAF2E08281C81301C0D8
:100BA0001282319642E0ED3AF407B9F70E948D21A6
:100BB0006C2F87EA92E00E94EC1E13C090E2980F1F
:100BC000983090F4877021E030E0A90102C0440F12
:100BD000551F8A95E2F7CA0190910B03892B8093E8
:100BE0000B03CF910C948D21EBE5E80FE33040F43B
:100BF000F0E0E258FE4F808190E0CF910C941C1FF2
:100C0000885A873158F4E82FF0E0EE0FFF1FEF57B6
:100C1000FE4F80819181CF910C94061FCF91089552
:100C2000EF92FF920F931F93CF93DF93CDB7DEB771
:100C300067970FB6F894DEBF0FBECDBF4B8B5C8BB2
:100C40006D8B7E8B8F8B242F0E891F8961111092E3
:100C50000A030115110531F05F3F31F481E02F3FA8
:100C600019F403C081E001C080E080FD37C0A22FED
:100C7000B0E081E090E07C01022E01C0EE0C0A940D
:100C8000EAF7852F90E0662319F03091C80205C07D
:100C9000FC01EE53FE4F30813E213323C1F046E08C
:100CA000489F9001499F300D11242A0F3B1F220FAE
:100CB000331FF901E35FFE4F5491F901E45FFE4FEA
:100CC0002491FC01EE53FE4F9081E92A06C0FC01FD
:100CD000EE53FE4FE0948081E822E08286E0FE0140
:100CE0003D96DF01982F1D929A95E9F72D875E8733
:100CF0006F87198B088BDE01179601900D928A95EC
:100D0000E1F7CE0107960E94A72281113EC086E03E
:100D1000FE013796DE01119601900D928A95E1F75A
:100D2000FF81E8856A857B856115710531F0EF3FAC
:100D300031F481E0FF3F19F403C081E001C080E09D
:100D400080FD23C02091CF0230E0C9010196877059
:100D500099274091000350E08417950779F1F983B2
:100D6000EA837D836C8396E0929FD001939FB00DC0
:100D70001124A053BD4FFE01319601900D929A951A
:100D8000E1F78093CF020E94D52116E08091000305
:100D90009091CF028917F9F0189FC0011124805358
:100DA0009D4F0E94A7228823B1F08091000390E01C
:100DB00001968770992780930003E8CF0E94082549
:100DC0001092CF0210920003E9ECF2E086E0DF011E
:100DD0001D928A95E9F767960FB6F894DEBF0FBEAD
:100DE000CDBFDF91CF911F910F91FF90EF900895AC
:100DF0003F924F925F926F927F928F929F92AF92AB
:100E0000BF92CF92DF92EF92FF920F931F93CF93F7
:100E1000DF93CDB7DEB729970FB6F894DEBF0FBECC
:100E2000CDBFFC018081918123813481232B31F05E
:100E30009F3F31F491E08F3F19F403C091E001C06E
:100E400090E090FD71C67F0185E0DE011196019072
:100E50000D928A95E1F7F701228189819A812223F7
:100E600049F00E944B22182F682F89819A810E9495
:100E7000832403C00E945624182F69817A81812F10
:100E80000E941F208C01F7018281882399F1C801FB
:100E900090568115F0E29F0748F0905E811520E1A1
:100EA000920720F0915C81159F4118F4C8019927A1
:100EB00008C00F3F110509F010F4C80102C080E01E
:100EC00090E09C01245031092432310518F08B97B1
:100ED0000E9780F4E091F201F0E0EE0FFF1FE95071
:100EE000FE4F808191818F3F2FE7920719F0019685
:100EF00091838083F7018281882309F4F2C09801ED
:100F000022513F452031310508F0FDC58FEF93E0B8
:100F10000E94AA2C8111EEC0025167E0862E62E089
:100F2000962E002379F08114F4E09F0609F4E2C0C4
:100F3000C4010E94AA2C811101C001502FEF821A16
:100F4000920AEFCF1E821F8218861986442443948A
:100F50005AE0352E84010F5F1F4FC4010E94AA2C56
:100F60008E831F82882309F4C5C09FEF980F9330AA
:100F700060F48F834E8232E0830E911CC8010E9480
:100F8000AA2C8887811102C0B5C048018E010A5F72
:100F90001F4FF80120812223E9F2213009F04CC0D3
:100FA0008181813049F46801F2E0CF0ED11CF80153
:100FB00082810E9424250AC0823051F46801F2E047
:100FC000CF0ED11CF80182810E94B705860186C030
:100FD000833049F46801F2E0CF0ED11CF801828120
:100FE0000E948605F3CF843019F00F5F1F4F76C043
:100FF000F80122810E5F1F4F80E090E030E0205327
:1010000031092A30310568F4389EA001399E500D0F
:101010001124C901840F951F0F5F1F4FF801208114
:10102000EDCF009709F45AC0EFE9FFE03197F1F7EF
:1010300000C000000197F5CFE22FF0E0EC54FE4F26
:101040005490822F86958695869590E0FC01EC550C
:10105000FE4F64902770712C022E02C07594679425
:101060000A94E2F7F1E06F227724FC01EC56FE4F80
:10107000A490B12C022E02C0B594A7940A94E2F772
:1010800031E0A322BB24FC01EC57FE4FC490D12CCD
:1010900002C0D594C7942A95E2F781E0C822DD24E6
:1010A0006114710419F081EE0E94B705A114B10416
:1010B00019F086EE0E94B705852D0E942425AB28E5
:1010C00019F086EE0E948605672819F081EE0E94CD
:1010D0008605CD2819F08CE20E9424250F5F1F4F52
:1010E00058CF0031FFE51F0769F581E00E94B32466
:1010F0000E94782580910103877009F415C5F701D6
:101100008281882309F410C58091DF0182FD0CC51E
:1011100082E029960FB6F894DEBF0FBECDBFDF91F7
:10112000CF911F910F91FF90EF90DF90CF90BF90E4
:10113000AF909F908F907F906F905F904F903F9077
:101140000C94BF2401312FE5120711F482E0CECFB9
:10115000033F3CE5130799F406E221EE40EE63EF0E
:101160007CE509C0073D2CE5120711F506E221EEEA
:1011700041EE67ED7CE5C7010E94421FBBCF043FF3
:101180009CE5190708F05CC1083DECE51E0731F449
:1011900007E225EE45EE68ED7CE5EDCF093DFCE587
:1011A0001F0701F708E221E045EE69ED7CE5E3CF9A
:1011B000882309F47AC11092970203309DE519073C
:1011C00058F40A3FECE51E0780F4C80182509C45A4
:1011D000449708F054C109C00136FDE51F0729F006
:1011E000053A2DE5120709F04AC10E949319909320
:1011F000DF018093DE0101313CE5130709F4C6C02D
:1012000008F042C009309CE5190709F49BC000F5BD
:101210000530FCE51F0709F485C078F403303CE590
:10122000130709F478C008F07AC002301C4509F0B1
:10123000F7C08091DE018160F1C00730ECE51E0748
:1012400009F478C008F07AC08091DE018061E6C0C0
:101250000D302CE5120709F487C058F40B308CE5EB
:10126000180709F479C008F07BC08091DE0188601E
:101270006FC00F30ECE51E0709F480C008F082C093
:101280008091DE01877FCAC00D3F2CE5120709F46B
:1012900071C000F505318CE5180709F485C068F4C4
:1012A0000331ECE51E0709F475C008F095C00E94F3
:1012B00008258091DE018F77B1C00B3F2CE5120726
:1012C000A9F108F054C00A3F1C4509F0A9C080915B
:1012D000DF0140C001309DE5190709F489C058F4C9
:1012E0000F3FFCE51F0709F45AC008F069C0809160
:1012F000DF0182602FC001363DE5130709F47EC08F
:10130000053A8DE5180709F483C002301D4509F040
:1013100087C060E06EC08091DE0182607FC08091F6
:10132000DE0116C08091DE01886078C08091DF0107
:1013300082604FC08091DE01806270C08091DE01CA
:1013400080646CC00E9408258091DE01806866C0C0
:10135000846064C081603DC08091DE018E7F5EC08C
:101360008091DE018D7F5AC08091DE0116C0809190
:10137000DF0118C08091DF018D7F2BC08091DE01DD
:101380008F7E4CC08091DE018F7D48C08091DE0150
:101390008F7B44C08091DE01877F8B7F3FC080912F
:1013A000DF018D7F8E7F15C08091DE0182FB2227B9
:1013B00020F991E0922790FB82F990FB83F92EC0EF
:1013C0008091DF01982F909591708E7F892B90FBF3
:1013D00081F98093DF0124C00E9408258091DE01FD
:1013E00087FB222720F991E0922790FB87F916C00E
:1013F00061E08EE090E00E94B82C12C08091DE0186
:1014000084FB222720F991E0922790FB84F906C003
:101410008091DE01982F909590FB80F98093DE01FA
:101420006091DE011091DF0184E090E00E94B82C11
:10143000612F82E290E00E94B82C0E9408255ACECB
:10144000053F3CE5130731F406E221EE42EE65EF7D
:101450007CE591CE053F9CE5190730F407E225EEC7
:1014600044EE64EF7CE587CE063FECE51E0709F00D
:101470009FCE07E225EE46EE66EF7CE57CCE063198
:10148000FCE51F0751F580910B038A7A91E009F47E
:1014900090E09093CC01882311F065E301C069E2EC
:1014A00087EA92E00E94EC1E15C006311C4509F047
:1014B00045C08091CC01882309F434C385E3E7EA71
:1014C000F2E09281891301C01282319622E0ED3A56
:1014D000F207B9F70E948D210DCE0A353DE51307BD
:1014E00041F150F401159CE51907A9F00E3D1C458A
:1014F00029F50E941621FECD0B35FDE51F07D9F019
:101500000C351D45D9F48091DF0182FB882780F9D5
:1015100091E0892711C00E9408253FEF84E39CE0F9
:10152000315080409040E1F700C000000E94491E09
:10153000E1CD81E001C080E00E94DC24F7018281DE
:1015400000811181882349F0C8010E944B22D82EC6
:10155000682FC8010E94832404C0C8010E94562439
:10156000D82EB8018D2D0E941F200E94A017082F91
:10157000C92EB82EF7011281858082944FE0842213
:10158000809101038770E1F01123D1F0892F807FD2
:10159000803449F090E2900F983090F0803619F442
:1015A000F6EF0F1769F08091DF0182FD09C082E03C
:1015B0000E94BF24809101038770AA24A394811103
:1015C000A12C9C2C92943FE09322892D90E08C30AA
:1015D000910508F04CC2FC01EA5AFF4F0C94862F8B
:1015E0009C2D9F708C2D807FD92E19F0D29420EFE6
:1015F000D2221123B9F0DD2009F4AAC180E2800FC4
:10160000883010F0B11006C080910B03D82AD09218
:101610000B0305C080910A03D82AD0920A030E94C6
:101620008D2196C1802F0E948605DD2009F41FC2FE
:10163000005E083090F1BB2081F1D09480910A03C4
:10164000D822D0920A032CC09C2D9F708C2D807FB5
:10165000D92E803219F0D29490EFD922BB2021F0FC
:1016600021E0B216D9F149C08091DF0182FF1BC091
:10167000112369F0DD2039F080910B03D82AD09234
:101680000B030E948D2180E00E94B705F0C180E02D
:101690000E948605DD2009F4EAC18D2D0E94862175
:1016A0000E948D21E4C1112381F080910C038820D8
:1016B00051F031E0831207C0D82AD81609F4D7C1F7
:1016C000D0920C03D4C18D2910C0882021F081E074
:1016D000881609F4CCC10E94802120C0112341F05A
:1016E00095E0981508F4C3C18D2D0E941A25BFC13D
:1016F000E4E0E81508F4BBC111C0112349F08820CB
:1017000099F3F701858180FF23C18F708583ECCF2A
:10171000882021F0F9E3BF1229C120C18D2D0E943C
:101720001325A5C18C2D86958695837019F081307F
:1017300071F09DC1112331F0802F9C2D93700E9478
:101740001C1F9BC180E090E00E941C1FAEC11123B2
:1017500031F0802F9C2D93700E94061F8EC180E077
:1017600090E00E94061FA1C18C2D8370A1F511117C
:1017700082C1402F429546954770440F440F202F59
:101780002F7030E0C901042E01C0880F0A94EAF7D7
:1017900004FF08C02FE030E001C0220F4A95EAF7AD
:1017A000209501C020E03C2D3695369533703230BF
:1017B00069F040F440910D03313019F0822B8423FD
:1017C00002C0842B822B0E94042555C1282B8091B6
:1017D0000D038227F8CF112319F08C2D817001C0E1
:1017E0008695882309F447C1402F42954695477056
:1017F000440F440F202F2F7030E0C901042E01C088
:10180000880F0A94EAF704FF08C02FE030E001C017
:10181000220F4A95EAF7209501C020E03C2D36952D
:1018200036953370323051F070F4409132033130DC
:1018300019F0822B842308C0842B05C0282B8091AB
:101840003203822701C0822B0E94AF2414C1FC2DD9
:10185000FF70DF2E112339F08F2F0E94F924802F83
:101860000E941A2508C1802F0E9413258D2D0E94E9
:10187000B32401C1802F22EFB21681F12B1538F06D
:1018800030EFB31659F091EFB91619F15DC0E3EFDF
:10189000BE1659F1F4EFBF16C1F056C0112381F006
:1018A00024E0281508F4E3C02C2D2F7181E090E08E
:1018B00001C0880F2A95EAF790913203892720C04A
:1018C00035E0381508F4D3C0EFCF8091DF0182FFF7
:1018D0001AC0112329F08C2D8F7128C01123D9F340
:1018E0008C2D8F710E94B324C2C0112341F081E07E
:1018F0009C2D9F7101C0880F9A95EAF701C080E086
:101900000E94AF24B4C01123A1F00C2D0F71802FC1
:101910000E94F9248091DF0182FD07C0E8E00E9F5C
:10192000C0011124836080930103802F0E94F92459
:101930009EC081E00E94BF24F1E0F81508F097C036
:1019400082E00E94BF2493C0112321F0882019F265
:10195000802F9ACE882021F2893341F42FEF37EE81
:1019600083E0215030408040E1F704C0EFE3FCE920
:101970003197F1F700C00000802F0E94860577C0E4
:101980008B2D90E0FC01E05FF109E730F10508F0F4
:101990003EC0EE59FF4F0C94862F112309F485C0E9
:1019A0009091C80281E0892715C01093C80265C0D4
:1019B00081E081270FC0111160C081E08093C802CF
:1019C00074C011115AC06FC0112339F082E08093A6
:1019D000CD0181E08093C80250C08091CD0182305A
:1019E00019F481E08093CD018091CD01833009F01D
:1019F0005CC057C0112339F08091C702882381F25F
:101A00001092C7023AC0F4E0F81550F64EC080912B
:101A1000C7028820F9F0882341F09091C80281E044
:101A200089278093C8021092C702112321F0802FCA
:101A30000E94B70522C08FE39CE90197F1F700C02F
:101A40000000802F0E94860586E0F70111928A959A
:101A5000E9F72BC0882389F011110FC09091C802BB
:101A600081E089278093C8021092C7021EC088EFC8
:101A7000890D843010F40E94321F1123B1F08C2D97
:101A8000807F803619F4F6EFBF1679F08091CD0192
:101A9000823019F483E08093CD018091CD018130B3
:101AA00021F41092CD011092C802AA20E9F1809190
:101AB000010380FD39C0F7011282859585958595D2
:101AC0000E94F924C7010E94F806809101038595C0
:101AD0008595859529960FB6F894DEBF0FBECDBFCC
:101AE000DF91CF911F910F91FF90EF90DF90CF90FA
:101AF000BF90AF909F908F907F906F905F904F902E
:101B00003F900C94B32400313FE5130711F481E0BA
:101B100006C001319FE5190709F01ACB82E00E9447
:101B2000F924E6CA89E2CBCC29960FB6F894DEBF39
:101B30000FBECDBFDF91CF911F910F91FF90EF901E
:101B4000DF90CF90BF90AF909F908F907F906F90DD
:101B50005F904F903F900895982F92959F7019F045
:101B6000892F24E001C020E0982F9695969511F0DA
:101B70002E5F892F982F969509F02F5F822F089559
:101B8000CF93DF93CDB7DEB7AC970FB6F894DEBF37
:101B90000FBECDBF84B7877F84BF0FB6F894A895DA
:101BA00080916000886180936000109260000FBE99
:101BB00090E080E80FB6F894809361009093610004
:101BC0000FBE85B7806885BF85B7806885BF8CE606
:101BD00095E19093C1018093C0010E940D1C0E9469
:101BE000B31C8091E20084608093E200789480913D
:101BF0001A038823A1F01091E9001F709091EC0066
:101C0000892F817090FD80E8182B1092E900809157
:101C1000E80083FD0E941D261F701093E90082E0FA
:101C200084BD93E095BD9AEF97BD80936E001092AE
:101C3000CE011092CF011092D0011092D1010E94DA
:101C40006C29811102C00E945D290E9403178093B4
:101C500000010E94031781110E94F12A8091000166
:101C600080910001882311F090E001C095E09093ED
:101C7000DD0185E0891B8093DC010BE511E080E646
:101C8000E82E81E0F82ED8018D918D018F3F11F063
:101C90000E948917E016F106B1F700E611E0F8019D
:101CA00081918F018F3F11F00E948917F1E0063674
:101CB0001F07A9F78AE0E8E5F2E0DF01282F1D926F
:101CC0002A95E9F7E2EDF1E0DF011D928A95E9F747
:101CD00080E090E00E94B22C893E9E4F21F40E9449
:101CE0006C29811102C00E94162182E090E00E94BE
:101CF000AA2C8093E1010E9493199093DF018093B5
:101D0000DE010E94A419EFE3FCE93197F1F700C06E
:101D100000000E94A4198091580280FF08C06FEF54
:101D20007FEF80E090E00E94D62C0E94491E83E065
:101D300090E00E94AA2C0E9404250E940317882389
:101D400011F083E001C082E08093530280FD02C065
:101D500080E801C080E2809335050E9485296DE00E
:101D600070E087E492E00E948325892B09F043C04C
:101D70008091530263E070E081FD3AC084E492E018
:101D80000E948325892BB9F56DE070E084E392E031
:101D90000E948325892B79F50E94AB1EDC01CB01C3
:101DA000805E914BAF4FBF4F80938F029093900214
:101DB000A0939102B0939202E5E3F3E080E092E019
:101DC000DF019C011D9221503040E1F7F0938E021B
:101DD000E0938D028FEF9FEF909334038093330352
:101DE00081E080939402809393021092540203C086
:101DF00081E492E0C5CF80910001811106C084EF9B
:101E000080930F0185EF80930E0180910F01E82FE1
:101E1000E295EF70F0E041A1282F2F7081E090E073
:101E2000BC0102C0660F771F2A95E2F79B01362F8F
:101E30003095342331A332A1232B22A320910E010C
:101E4000E22FE295EF70F0E031A12F7001C0880F12
:101E50002A95EAF7982F9095932391A392A1892B25
:101E600082A38FE891E00197F1F700C00000209174
:101E70000F01E22FE295EF70F0E080A190E02F706B
:101E800002C0959587952A95E2F7817090910E0191
:101E9000E92FE295EF70F0E020A130E09F7002C0E2
:101EA000359527959A95E2F720FF02C092E001C090
:101EB00090E0892B80932D029091000181E098277A
:101EC00090932C02891B8093E0010E9403178111DB
:101ED00002C00E94F42A81E091E090939B028093DB
:101EE0009A02B0E46B2E80911A03853009F045C048
:101EF00000E112E180911A03853009F03AC0809127
:101F00001A03843029F10E942C2010929E02A8E12D
:101F1000B0E00FB6F894A895A09360000FBE609251
:101F2000600083B7817F846083BF83B7816083BF94
:101F30007894889583B78E7F83BF0FB6F894A89561
:101F400080916000886180936000109260000FBEF5
:101F500080911903882309F4CDCF0E94A419E8E5E4
:101F6000F2E0819181115CC5B2E0E236FB07C9F76E
:101F7000C1CF0E9408250E94321F0E94A419782E0A
:101F800081110E94AB1EE8E5F2E0FCA7EBA7A2EEF0
:101F9000B1E000E010E0C02ED1908D918D2549F187
:101FA000E12CFF24F394982F9F21F1F00E94031756
:101FB000882399F0E9A2CAA2DF2081E009F480E039
:101FC0008BA30E94B71E8160782F9DA38CA349A18B
:101FD0005AA16BA18DA10E941006F801EE51FE4F8F
:101FE0008081F826F0821AC0E394FF0C26E0E2120A
:101FF000DACF0F5F1F4F0A30110569F68FEF8EA3FE
:102000008FA318A60E94B71E8160782F9AA789A770
:102010004EA15FA168A58AA50E9410060E94031721
:10202000882309F4CAC0C090F701D090F8010D2CA4
:10203000000CEE08FF0810910D01412F50E0E9EF70
:10204000F1E081E090E04817590764F02191319167
:102050004901330FAA08BB08C80CD91CEA1CFB1C99
:102060000196F1CFF7FE03C0C12CD12C760160910F
:10207000F3017091F4018091F5019091F6010E94B5
:10208000801E1B012C01A0E6BAEEA70196010E945A
:10209000932F4B015C0148EC149F90011124C9015E
:1020A000330FAA0BBB0B9C01AD01220D331D441D48
:1020B000551DA5E0B0E00E94932F9B01AC01C50126
:1020C000B4010E94452F49015A0157FD0CC051EF40
:1020D00085169104A104B1044CF0A0EF8A2E912C36
:1020E000A12CB12C03C0812C912C540169EC261633
:1020F00031044104510414F18091F20190E0019601
:1021000069E170E00E94312F8093F201880F991FDE
:10211000FC01E950FE4F11821082183110F41F5F4C
:1021200001C018E110930D010E94AB1E6093F301F2
:102130007093F4018093F5019093F60172E0C71655
:10214000D104E104F1041CF4812C912C5401609120
:10215000EE017091EF018091F0019091F1010E94E8
:10216000801E6B017C0185E6C816D104E104F104F0
:1021700084F00E94AB1E6093EE017093EF01809398
:10218000F0019093F10180912E028093ED018092F5
:10219000EC011091ED01A091EC01B0E0A11BB1099F
:1021A000A70196010E949E2F24E630E040E050E017
:1021B0000E94672F120F10932E02E0912D025E2FC6
:1021C000550F550F20910F01E22FE295EF70F0E0CF
:1021D00080A190E02F7002C0959587952A95E2F72F
:1021E0008170992740910E01E42FE295EF70F0E0A5
:1021F00020A130E04F7002C0359527954A95E2F74F
:10220000F901E170FF2720FF02C0E2E0F0E0E82BD7
:10221000F92BE52BE0932D0210912C02EF70F0E0EA
:10222000EA59FE4F908180912B02890F80932B02F7
:1022300082308CF0E12FF0E0E75DFD4F80818F5F11
:102240008083111102C08AEA03C0113031F48BE49B
:102250000E94242502C0D12C02C0DD24D394809199
:102260002B028F3F94F4E12FF0E0E75DFD4F80817A
:1022700081508083111102C089EA03C0113019F422
:102280008EE40E942425DD24D39480912B02082E15
:10229000000C990B62E070E00E94312F80932B02BA
:1022A000D1100E94311980919402882309F43BC215
:1022B00080915502909156020E949C1EC29708F48C
:1022C00031C10E94B71E909356028093550285E358
:1022D00093E090938E0280938D020E9403178823CF
:1022E000B9F160E088E792E00E94FF20809132031C
:1022F0000E94AC0D182F882331F0813041F461E049
:102300008EE692E007C060E083E792E003C060E001
:102310008AE692E00E94112160E087E692E00E9446
:10232000FF20123059F030F0133071F461E08AE58B
:1023300092E007C060E082E692E003C061E08EE5D3
:1023400092E00E941121EEC060E084E592E0F9CFB6
:1023500080913102909132020E949C1EB090300216
:10236000B0922F02C0902E02C092300281359105AA
:102370000CF45DC06C2D70E080E090E00E94032EB4
:1023800020E030E042E053E40E94592D20E030E0AC
:1023900040E052E40E94942E9B01AC0160E070E0AA
:1023A00080E092E40E94EC2C0E94CB2D162FE62EAA
:1023B000F72E862F972F90931A01809319010E9470
:1023C000402581E0810F0E94402582E0810F0E941C
:1023D000402500E210E0E016F10654F40F3F9FEFB5
:1023E000190731F0802F0E94402501501109F3CFC9
:1023F00080E090E0FC01EC54FC4F229121839F018E
:102400002553334082179307C1F780589F4F81159A
:10241000A2E09A0779F78FEF9FEF909334038093B0
:1024200033030E94B71E9093320280933102B3E6C9
:10243000BC1508F40BC3E9E0EC1508F409C3C1109E
:1024400009C3109110016091300270E080E090E0CB
:102450000E94032E4B015C0120E030E048E452E48E
:102460000E948F2E87FD41C020E030E042E053E41F
:10247000C501B4010E948F2E18169CF0A50194018D
:1024800060E070E082E093E40E94EC2C9B01AC01E0
:1024900060E070E080EA92E40E94EC2C0E94CB2D78
:1024A00002C060E570E0072E000C880B990B0E94BB
:1024B000032E20E030E044E250E40E94942E20E01D
:1024C00030E048E452E40E94ED2C4B015C0120E036
:1024D00030E04FE753E40E948F2E181654F0C501E8
:1024E000B4010E94D22D062F05C01233D9F002E3A9
:1024F00003C00FEF0117B1F080919402882391F08F
:10250000198281E88A830B8324E630E043E050E0BF
:10251000BE016F5F7F4F88E70E943C2A892B11F430
:102520000093100180919402882309F4E1C0209166
:102530003303309134032115310509F4D9C080915A
:1025400054028111D5C0482E512CAA24A394B12C39
:10255000082E02C0AA0CBB1C0A94E2F7A9014A216A
:102560005B21452B11F48F5FEECF909153029201C6
:1025700065E0220F331F6A95E1F790FD12C0829546
:10258000880F807680931D01220F232F221F330B8B
:10259000319520932001815E80931E0110922101CC
:1025A00012C045E0369527954A95E1F7220F220F94
:1025B000220F20931D0110922001295F20931E01FC
:1025C00083E08093210124E630E047E050E06BE1B6
:1025D00071E088E70E943C2A892B09F089C080912C
:1025E000530280FD23C0C20135E0880F991F3A9540
:1025F000E1F7AC014B5C5C4F04E610E020E230E018
:1026000060E488E70E94632A892B09F071C00E9468
:102610004620A094B0948091330390913403A82273
:10262000B922B0923403A092330362C080E2E3E3A4
:10263000F2E0DF011D928A95E9F795E0440C551C04
:102640009A95E1F72AE7222E21E0322E66E771E023
:10265000F10181911F01DB019D91BD019201290FC3
:10266000311DF901EB5CFC4F4F0190E08D5C9D4FFB
:10267000FC0107E09F01281B390BEE24E39401C005
:10268000EE0C2A95EAF7A401F12CDA011D91AD01B7
:102690001E21202F2F192770C22E022E000C330B63
:1026A000B12F01C0BB0FCA94EAF7CB2E319521950B
:1026B00031092770332701C016952A95EAF7C12AF8
:1026C0001081C12AC082F39428E0F212DECF0150BB
:1026D00031960F3F79F63EE7231631E0330609F0D5
:1026E000B7CF04E610E020E230E043E352E088CFC9
:1026F000809193028823B9F00E94AB1E00918F0253
:10270000109190022091910230919202DC01CB0154
:10271000801B910BA20BB30B8F3F9F4FAF4FBF4757
:1027200010F40E942C20711001C0D1100E9446208C
:102730000E94321F90915702891380935702809113
:102740001A03843009F0CFCB83E08093E9008091B5
:10275000E80082FFC8CB8091E80085FF23C00E947B
:102760002C1C81111DC080E2E82EF12C8E010F5F20
:102770001F4F09C08091F100D8018D938D01B1E008
:10278000EB1AF10869F08091E80085FDF3CF8091A4
:10279000E8008B778093E8000E942C1C882399F333
:1027A00091E001C090E08091E8008B778093E80091
:1027B000992309F498CBE9818E2F90E0FC013197A1
:1027C000E331F10508F003C1E759FF4F0C94862F60
:1027D0001A8289E05AC08A81823009F474C1833038
:1027E00051F0813009F0F3C00E94AB1E9B838C83B3
:1027F0007D836E83EEC0FE013396CE010D96ABA5B0
:10280000BCA52D91BCA7ABA72193E817F907B9F791
:10281000E0C08A81823009F0DAC06B817C818D81D1
:102820009E810E948C2F0E943B29D3C04C816B81DA
:102830008A810E94F91F9D834DC10D811E81102741
:10284000012710278C81EB809A81BCE0EB9E700100
:102850001124E8E79E9FE00CF11C1124E80EF11C06
:10286000E80EF11C612FC70187960E94B82C602FDB
:10287000C70188960E94B82CACC00E94C51FA9C091
:1028800080E158C081E08A8389EF8B83A2C0EA800F
:10289000FB80FE24EF24FE24AC80B12C8E010F5F60
:1028A0001F4F6801C701895F9D4F9601201B310BA7
:1028B0002A153B0508F08DC0F9EFEF16F1E0FF0691
:1028C00030F40E94AA2CD60114968C9302C0F60113
:1028D0001482FFEFEF1AFF0A2FEFC21AD20AE2CFDB
:1028E000EA80FB80FE24EF24FE24AC80B12C8E0114
:1028F0000F5F1F4F6801C701895F9D4F9601201B25
:10290000310B2A153B0508F064C039EFE31631E0BE
:10291000F30628F4D60114966C910E94B82CBFEFF0
:10292000EB1AFB0AEFEFCE1ADE0AE5CF0E94B51FC5
:1029300050C084E08A834DC0EA80FB80FE24EF24EF
:10294000FE24AC80B12C8E010F5F1F4F6801C701C0
:1029500087969601201B310B2A153B05D0F5F0EE2A
:10296000EF16F1E0FF0630F40E94AA2CD60114966F
:102970008C9302C0F6011482FFEFEF1AFF0A2FEFCB
:10298000C21AD20AE4CFEA80FB80FE24EF24FE24A0
:10299000AC80B12C8E010F5F1F4F6801C701879675
:1029A0009601201B310B2A153B0598F430EEE316F7
:1029B00031E0F30628F4D60114966C910E94B82CED
:1029C000BFEFEB1AFB0AEFEFCE1ADE0AE7CF8FEF6D
:1029D000898380911A03843009F085CA1091E90037
:1029E0001F709091EC00892F817090FD80E8182B6A
:1029F00082E08093E9008091E80080FF0DC040E014
:102A000050E060E270E0CE0101960E94F1258091D5
:102A1000E8008E778093E8001F701093E90063CA86
:102A200009BD19BD09B400FEFDCF8091D8008F7D8E
:102A30008093D8008091E00082608093E0008091D4
:102A4000E00081FDFCCF0E94082554CA10E003C0BD
:102A500011E001C012E0BC1439F04AE065E171E018
:102A60008C2D90E00E94752C125F20913505F6E0C8
:102A70001F9FC001112433E0239F800D911D11245D
:102A8000811542E0940714F080E090E08B5C9C4F4D
:102A900090938E0280938D02E1E1F1E0019000209D
:102AA000E9F78F0101501109E1E1EE2EE1E0FE2E80
:102AB000E016F10608F0C5CC60E0D7018D917D01EC
:102AC0000E946C20F5CF86E290E00E94AA2C1B8227
:102AD0001C821D828E837DCF80E008959091DE015F
:102AE00092FF0DC0282F2871283019F4877F846049
:102AF00006C0282F2471243011F48B7F886093FF47
:102B00000DC0282F2871283119F4877E846106C0F2
:102B1000282F2471243111F48B7E88612091DF01EC
:102B200020FF0DC0382F3871383019F4877F81604D
:102B300006C0382F3171313011F48E7F886021FF4B
:102B40000DC0282F2871283119F4877E816106C0B5
:102B5000282F2171213111F48E7E886194FD877EAA
:102B60000895AF92BF92CF92DF92EF92FF920F93B0
:102B70001F93CF93DF937C015B016A0180918602F2
:102B80008A3018F001E010E002C00AE010E0C1E075
:102B9000D0E0F894B501C701F60109957894811148
:102BA00015C021960C171D0794F0CC9F9001CD9F66
:102BB000300D300D112480E090E045E34A95F1F7A7
:102BC0000000019682179307C1F7E3CF81E0DF9100
:102BD000CF911F910F91FF90EF90DF90CF90BF901A
:102BE000AF900895CF93DF931F92CDB7DEB780915A
:102BF000930289832091310330E090E041E028176F
:102C0000390709F440E09E012F5F3F4F62E872E010
:102C100086E00E94AC250F90DF91CF910895CF936D
:102C2000DF931F92CDB7DEB780912E02898341E0FA
:102C300090913003981301C040E09E012F5F3F4FF9
:102C40006EE772E085E00E94AC250F90DF91CF9196
:102C500008956F927F928F929F92AF92BF92CF9280
:102C6000DF92EF92FF920F931F93CF93DF931F9208
:102C7000CDB7DEB7C62E4A015901682E880F7708F6
:102C8000C3010E94DD2B882309F466C0C30123E041
:102C9000880F991F2A95E1F7FC01ED5DFE4F4381F6
:102CA00050E04115510511F041E050E0FC01ED5DAF
:102CB000FE4F648175816C5D7C4FCE0101960E9450
:102CC000C22FF40160817181828193810E94801EF4
:102CD000643671058105910538F4B701C8010E9479
:102CE000242999818917D1F10C2C000CDD08C6012B
:102CF0000E94DD2B782E8823E1F0E114F104C9F065
:102D0000960183E0220F331F8A95E1F7F901ED5D0B
:102D1000FE4F438150E0E416F50608F4A701F901DF
:102D2000ED5DFE4F648175816C5D7C4FC5010E9435
:102D3000C22FB701C8010E94242991E029812813DC
:102D400090E0D92ED72089F00E94AB1EF401608359
:102D500071838283938309C0D12C02C0DD24D39474
:102D6000A701B801C5010E94C22F8D2D0F90DF91E0
:102D7000CF911F910F91FF90EF90DF90CF90BF9078
:102D8000AF909F908F907F906F900895CF92DF9239
:102D9000EF92FF920F931F93CF93DF9300D000D059
:102DA0001F92CDB7DEB76B0185E0E82EF12C05E26E
:102DB00013E09E012F5F3F4F42E752E061E080E069
:102DC0000E942916882349F095E0FE013196ADE670
:102DD000B2E001900D929A95E1F795E0EDE6F2E010
:102DE000D60101900D929A95E1F70F900F900F90F8
:102DF0000F900F90DF91CF911F910F91FF90EF9067
:102E0000DF90CF90089580916C02811118C080915D
:102E1000D80080618093D8008AE18A95F1F700C0DC
:102E20008091D90080FD02C082E001C081E08093E2
:102E30006C02823021F40E940D1C10921A0381E072
:102E400090916C02913009F080E008950F931F93E8
:102E5000CF93DF9300D000D0CDB7DEB760917A0278
:102E600070917B0280917C0290917D020E94801E75
:102E7000643671058105910508F441C00E9403176D
:102E8000882319F00E94AB1E0EC00E94AB1E009159
:102E9000CE011091CF012091D0013091D101600F6E
:102EA000711F821F931FDC01CB010296A11DB11D72
:102EB00089839A83AB83BC838091440190914501BF
:102EC0008C5D9C4F4091430150E04530510510F01E
:102ED00044E050E0BE016F5F7F4F0E94C22F84E04C
:102EE00090E00E94DD2B882359F00E94AB1E609376
:102EF0007A0270937B0280937C0290937D0281E042
:102F00000F900F900F900F90DF91CF911F910F9125
:102F10000895F894E82FE295EF70F0E031A1282FA2
:102F20002F7081E090E001C0880F2A95EAF7982F72
:102F30009095932391A392A1892B82A378940895CD
:102F4000CF93DF938238910569F1B0F48133910515
:102F500009F46FC048F48932910509F465C08A32DA
:102F6000910509F46BC08AC08533910509F457C0F7
:102F700089339105B9F082C0833E910571F138F42F
:102F8000803E9105B1F0823E910511F177C0863EF9
:102F90009105B9F1873E9105C9F1843E910509F08B
:102FA0006DC024C02091DE0120FD53C021FD51C021
:102FB00065C08091DE0180FD46C08091DF0180FF09
:102FC00048C08091DE0184FD47C183EE90E046C198
:102FD0008091DE0182FF3AC0F4CF8091DE0182FD54
:102FE00035C08091DF0180FD34C0EBCF8091DF01DF
:102FF00081FF35C08091DE0184FD2EC187EE90E017
:103000002DC18091DE0183FF27C0F4CF8091DE01C6
:1030100083FD22C08091DF0181FD21C0EBCF809133
:10302000DE0185FD1FC021C08091DE0185FD1DC030
:1030300019C08091DE0186FD1BC01DC08091DE019C
:1030400086FD19C015C089E390E008C182EE90E0CA
:1030500005C180EE90E002C186EE90E0FFC084EEF4
:1030600090E0FCC089E290E0F9C085E390E0F6C012
:103070008AE290E0F3C081E390E0F0C0811532E590
:10308000930708F069C0811541E5940728F0982F4F
:103090008827816F906AE2C0883E910568F5803E7E
:1030A000910508F0DBC0883A9105B8F4853A91059E
:1030B00048F0855AE82FF0E0E258FE4F808190E01A
:1030C0009064CCC08130910509F4C3C008F4C4C039
:1030D0008430910508F4C0C0C1C08F3B910508F051
:1030E000BBC0885AE82FF0E0EE0FFF1FEF57FE4FEE
:1030F000808191819464B2C0811520E59207F0F03F
:103100009C0174E0369527957A95E1F7922F93709C
:10311000482F437021E030E002C0220F331F4A9550
:10312000E2F73C68392B8F70982F9695969540E280
:10313000949FC0011124822B932B90C0811530E401
:10314000930718F09F70906A89C09C013A952115E9
:103150003F4108F483C080C0EC01C11586E5D80763
:10316000E8F5C11525E5D20748F08C2F0E946E15B1
:103170008F7190E0982F8827906270C0C11534E558
:10318000D30728F09C2F8827846F906A67C0AE0110
:10319000437055272C2F26952695C115D34578F4D5
:1031A00081E090E002C0880F991F4A95E2F740E263
:1031B000249F90011124822B932B9C684FC081E0A7
:1031C00090E002C0880F991F4A95E2F740E2249FE1
:1031D00090011124822B932B9A6840C0C11529E5D8
:1031E000D20788F4C11538E5D30728F09C2F88272B
:1031F000806F906A33C0C11547E5D40768F5CE01EA
:10320000992790662BC0C1158AE5D80790F48C2FBA
:103210008F700E946E1594E0D695C7959A95E1F748
:10322000CF70D0E0DC2FCC27D0699E01282BC901BC
:1032300015C0CE0190568115904270F48D2F8F717C
:103240000E946E15282F2F71CE0199279062922B24
:1032500005C081E090E002C080E090E0DF91CF9176
:1032600008950C94AB1ECF92DF92EF92FF920F93D2
:103270001F93CF93DF931F92CDB7DEB7EE24E39475
:10328000F12C0BE213E09E012F5F3F4F46E752E027
:1032900063E082E00E942916C82E8823C9F10091BC
:1032A000E001802F90E09C01275D3D4F790119815D
:1032B000F9018081181BD12E80E01D1484F4DA946A
:1032C000F70180818F5F8083011102C08AEA03C009
:1032D000013019F48BE40E94242581E0EECF912F78
:1032E00017FD90E0191B112381F01F5FF70180810A
:1032F00081508083011102C089EA03C0013019F4B2
:103300008EE40E94242581E0EECF81110E943119C4
:103310008C2D0F90DF91CF911F910F91FF90EF9027
:10332000DF90CF900895CF9384E090E00E94AA2C84
:10333000C82F82E290E00E94AA2C2C2F30E0A90135
:10334000582BCA01CF9108957F928F929F92AF928E
:10335000BF92CF92DF92EF92FF920F931F93CF9382
:10336000DF93CDB7DEB72F970FB6F894DEBF0FBE51
:10337000CDBF9E012F5F3F4F79018AE0D9011D9299
:103380008A95E9F70BE511E0690180E6A82E81E056
:10339000B82E88248394912CF80180818F3F09F402
:1033A00041C0F894E82FE295EF70F0E021A18F7012
:1033B000A40102C0440F551F8A95E2F7CA01922F5B
:1033C000982B91A392A18095892382A3789400C021
:1033D000E0E6F1E0712C31E021912F3F89F0A22F3E
:1033E000A295AF70B0E090968C9190E02F7002C0E3
:1033F000959587952A95E2F780FD02C0832F01C03D
:1034000080E0782A330F51E0E636F50729F7D80136
:103410008C918F3F11F00E948917B0EABA95F1F7AD
:10342000F60170820F5F1F4FFFEFCF1ADF0AA01661
:10343000B10609F0B1CF4AE050E0B70182ED91E06A
:103440000E94B52F8C01892B41F08AE0F701A2ED93
:10345000B1E001900D928A95E1F7F090DD01011540
:10346000110549F081E0809364020E94B71E909399
:10347000630280936202809164028823B9F0809194
:103480006202909163020E949C1E059778F0A2ED63
:10349000B1E0EF2DF0E0E85AFD4F87ED91E02D917E
:1034A00021938A179B07D9F7109264020115110521
:1034B00009F0E1C00E940317E091DD019E01255F44
:1034C0003F4F7901882309F46DC085E0D9011D9231
:1034D0008A95E9F70E2F10E0085A1D4F8091860259
:1034E0008A3048F446EC56E1B701C8010E94B11594
:1034F000882359F10AC080916502909166020E946A
:103500009C1E843F914070F732C043E359E1B701FC
:10351000C8010E94B1158823C1F046E257E1B70106
:10352000C8010E94B115882381F04FE056E1B70130
:10353000C8010E94B115882341F042EF55E1B7015F
:10354000C8010E94B115811199C0809186028F3FF8
:1035500019F08F5F80938602809186028A3008F48A
:103560008FC00E94B71E909366028093650280917F
:103570006B02811102C000E094C085E0F701119256
:103580008A95E9F710926B02A091DC01B0E0A85A8D
:10359000BD4F85E0FE013B9601900D928A95E1F7C3
:1035A00001E07FC0F0E0E85AFD4FF89485E0A5E225
:1035B000B3E001900D928A95E1F765E070E085E255
:1035C00093E00E942429809324037894F894E09156
:1035D0002C02F0E0E75DFD4F80818B8780932B0309
:1035E00061E070E0C7010E94242980932A03789447
:1035F000F894C0902C03D0902D03E0902E03F0900F
:103600002F038091670290916802A0916902B091A6
:103610006A02C816D906EA06FB06D1F0C092670214
:10362000D0926802E0926902F0926A020E94031747
:1036300081110EC00E94AB1EC61AD70AE80AF90A09
:10364000C092CE01D092CF01E092D001F092D10190
:103650007894F8948091300380932E027894F894B3
:1036600080913103882319F00E94462002C00E94F5
:103670002C20789416C001E010E013C0109286024E
:103680008091DC0190E045E050E0B701885A9D4F01
:103690000E94B52F21E020936B02892B09F074CF93
:1036A0006ACF802F2F960FB6F894DEBF0FBECDBF26
:1036B000DF91CF911F910F91FF90EF90DF90CF900E
:1036C000BF90AF909F908F907F9008950895089538
:1036D00080910F0308958093A3027093A5026093D5
:1036E000A40280911A038430F9F48093E9008FEFEB
:1036F0009091E800815095FD06C095ED9A95F1F7FF
:1037000000008111F5CF8091E80085FF0DC040E0F9
:1037100050E063E070E083EA92E00E94F12580913E
:10372000E8008E778093E8000895BC0184E00C9453
:103730006B1BBC0183E00C946B1BCF93DF9321E0E8
:103740002093E9002FEF3091E800215035FD06C0AD
:1037500035ED3A95F1F700002111F5CF2091E80001
:1037600025FF14C0EC0140E050E068E070E00E94EA
:10377000F1258091E8008E778093E80088E0FE01D3
:10378000A0E1B3E001900D928A95E1F7DF91CF912E
:1037900008951F920F920FB60F9211242F933F930B
:1037A0004F935F936F937F938F939F93AF93BF9349
:1037B000CF93DF93EF93FF93C091E900CF70809197
:1037C000EC00D82FD17080FDD0E81092E9008091F4
:1037D000F000877F8093F00078940E941D2610925D
:1037E000E9008091F00088608093F000CD2BCF70CD
:1037F000C093E900FF91EF91DF91CF91BF91AF911D
:103800009F918F917F916F915F914F913F912F91F8
:103810000F900FBE0F901F901895E8EDF0E080819B
:103820008E7F80831092E2001092DA001092E10005
:10383000A0EEB0E08C9181608C9380818F77808343
:1038400019BCA7EDB0E08C918E7F8C9380818F7E28
:1038500080831092A60208952091E4003091E50043
:1038600095E64091EC00842F817040FF23C0809149
:10387000E80080FD1DC080911A03882399F08530EF
:1038800099F08091EB0085FD11C04091E4005091CA
:10389000E5002417350729F3915011F09A01E1CF83
:1038A00084E0089582E0089583E0089581E008951A
:1038B00080E008954091E80042FFDDCF08958091B7
:1038C0001C0387FF11C08091E80082FD05C0809134
:1038D0001A038111F8CF11C08091E8008B770BC0DB
:1038E00080911A03882349F08091E80080FFF8CF87
:1038F0008091E8008E778093E8000895982F9730A4
:1039000068F59093E900981739F07091EC002091D8
:10391000ED005091F00003C0242F762F50E021FDE0
:1039200002C09F5FECCF3091EB003E7F3093EB0005
:103930003091ED003D7F3093ED003091EB00316030
:103940003093EB007093EC002093ED005093F00067
:103950002091EE0027FDE5CF80E008958F708093E1
:10396000E90081E00895CF92DF92EF92FF920F93EA
:103970001F93CF93DF93C8EDD0E088818F7E88833B
:10398000E7EDF0E080818160808384E082BF81E0A8
:103990008093A60288818E7F888302EE10E0F80172
:1039A00010821092DA0081EEC82ED12CF60110821E
:1039B00088818F77888388818068888388818F7DDC
:1039C000888319BC10921A0310921B0310921903DA
:1039D0001092180390EEE92EF12CF70180818B7F75
:1039E000808388818160888342E060E080E00E947B
:1039F0007E1CF60180818E7F8083F801808181604A
:103A00008083808188608083F70180818E7F8083BE
:103A1000888180618883DF91CF911F910F91FF9002
:103A2000EF90DF90CF9008951F920F920FB60F92F4
:103A300011242F933F934F935F936F937F938F93B3
:103A40009F93AF93BF93EF93FF938091E10082FF29
:103A500009C08091E20082FF05C08091E1008B7F68
:103A60008093E1008091DA0080FF2AC08091D80025
:103A700080FF26C08091DA008E7F8093DA008091EB
:103A8000D90080FF18C080E189BD82E189BD09B4F9
:103A900000FEFDCF81E080931A038091A602811180
:103AA0000FC00E940D1C0E94B31C8091E200846034
:103AB0008093E20005C019BC10921A031092A6026E
:103AC0008091E10080FF17C08091E20080FF13C069
:103AD0008091E2008E7F8093E2008091E20080611D
:103AE0008093E2008091D80080628093D80019BC56
:103AF00085E080931A038091E10084FF30C08091BB
:103B0000E20084FF2CC080E189BD82E189BD09B457
:103B100000FEFDCF8091D8008F7D8093D8008091EA
:103B2000E1008F7E8093E1008091E2008F7E8093A0
:103B3000E2008091E20081608093E20080911B03AB
:103B4000882311F084E007C08091E30087FD02C064
:103B500081E001C083E080931A0380911A03809171
:103B6000E10083FF27C08091E20083FF23C08091A2
:103B7000E100877F8093E10082E080931A03109236
:103B80001B038091E1008E7F8093E1008091E20031
:103B90008E7F8093E2008091E20080618093E2005A
:103BA00042E060E080E00E947E1C8091F00088602E
:103BB0008093F000FF91EF91BF91AF919F918F9112
:103BC0007F916F915F914F913F912F910F900FBE19
:103BD0000F901F90189520912203309123032617F0
:103BE000370748F06115710539F42091E8002E7708
:103BF0002093E80001C0B901FC0120E061157105C6
:103C000079F180911A038823F1F18530F1F18091E7
:103C1000E80083FD3CC08091E80082FD2EC08091C9
:103C2000E80080FFEBCF2091F3008091F20090E05C
:103C3000922B6115710551F08830910538F421916E
:103C40002093F100615071090196F3CF21E00897AC
:103C500009F020E08091E8008E778093E800CECFD5
:103C60002111CFCF0AC080911A03882361F08530DB
:103C700061F08091E80083FD0AC08091E80082FF36
:103C8000F2CF80E0089582E0089583E0089581E016
:103C9000089587E797E790930108809300089AE0DA
:103CA00088E10FB6F894A895809360000FBE9093BA
:103CB0006000FFCF78941F920F920FB60F921124DD
:103CC0008F939F93AF93BF9380919F029091A00297
:103CD000A091A102B091A2020196A11DB11D8093F5
:103CE0009F029093A002A093A102B093A202BF9161
:103CF000AF919F918F910F900FBE0F901F901895CD
:103D0000CF92DF92EF92FF922FB7F894C0909F026C
:103D1000D090A002E090A102F090A2022FBFA701D4
:103D20009601261B370B480B590BCA01B901FF90AE
:103D3000EF90DF90CF9008959C014FB7F894809159
:103D40009F029091A002A091A102B091A2024FBF48
:103D5000821B930B08952FB7F89460919F02709186
:103D6000A0028091A1029091A2022FBF08952FB7C7
:103D7000F89480919F029091A002A091A102B0912D
:103D8000A2022FBF08951F920F920FB60F92112417
:103D90008F939F93AF93BF9380919E02811113C025
:103DA00080919F029091A002A091A102B091A202E5
:103DB0004196A11DB11D80939F029093A002A093F4
:103DC000A102B093A202BF91AF919F918F910F90EA
:103DD0000FBE0F901F9018959C01FC0132969FEF2B
:103DE00080E04191461789F09F3F19F4411101C0CD
:103DF000982F8F5F8630A9F79F3F39F0F901E90FBF
:103E0000F11D97FDFA9562830895089520919C0213
:103E100030919D022817390771F090939D0280938D
:103E20009C02E0919A02F0919B02309721F000846D
:103E3000F185E02D0994089520919802309199021E
:103E40002817390771F09093990280939802E091B6
:103E50009A02F0919B02309721F00680F781E02DC5
:103E6000099408950E940317882351F0E0919A0263
:103E7000F0919B02309721F00190F081E02D0994A0
:103E800080E008950F931F93CF93DF93C42FD22F19
:103E9000FC0182818823C9F0409397020E94B71EDB
:103EA000909396028093950280E28C0F883008F000
:103EB00057C0C77081E001C0880FCA95EAF7DF914B
:103EC000CF911F910F910C941A258091970248135E
:103ED00030C080919502909196020E949C1E84367B
:103EE000910538F510E21D0FCD17B9F080E28C0F67
:103EF000883040F4C77081E001C0880FCA95EAF7A6
:103F00000E941325183028F581E09D2F977001C07D
:103F1000880F9A95EAF70E941A25802F0E9424257F
:103F20001830F0F4D77081E001C0880FDA95EAF715
:103F30000AC080E28C0F883098F4C77081E001C01D
:103F4000880FCA95EAF7DF91CF911F910F910C94DA
:103F50001325802FDF91CF911F910F910C94242571
:103F6000DF91CF911F910F910895CF93DF93C7E019
:103F7000D2E060E0CE010E94B82C2196C11584E009
:103F8000D807B9F7DF91CF910895CF92DF92EF92E2
:103F9000FF920F931F93CF93DF93C0E0D0E08E0189
:103FA00008581F4F6E018CE0C80ED11CFE01E15471
:103FB000F84FE590F4906F2DCE0187960E94B82CB3
:103FC0006E2DCE0188960E94B82C2296CC15DD0568
:103FD00069F70C171D0731F7E801003E1140F9F6AB
:103FE000DF91CF911F910F91FF90EF90DF90CF90D5
:103FF00008950F931F93CF93DF93C42FD0E0CC0F7E
:10400000DD1F2CE0629FC00DD11D112438E7839F76
:10401000C00DD11D1124CE0187960E94AA2C082F15
:1040200010E0102F0027CE0188960E94AA2C98013C
:10403000282BC901DF91CF911F910F910895462F31
:10404000843038F47A3028F4663018F4672F0C94F2
:10405000F91F80E090E0089580919402909193027E
:10406000882389F0992369F062E070E08DEB97E096
:104070000E948325892B19F0809193020895109254
:1040800093029091930281E0892708958091940290
:104090008823F9F00E94AB1EDC01CB01805E914BBE
:1040A000AF4FBF4F80938F0290939002A0939102E5
:1040B000B09392028091930281110BC062E070E094
:1040C0008BEB97E00E948325892B19F481E0809384
:1040D0009302809193020895CF93DF938A3011F475
:1040E00081E003C08D3029F480E0DF91CF910C9402
:1040F000F328C62F682F80918D0290918E0226E0C2
:10410000FC01A7E8B2E001900D922A95E1F7603E2C
:1041100030F026E0FC0111922A95E9F70AC0F6E09A
:104120006F9FB001112465587D4F46E050E00E941A
:104130006C2CC11137C0C0918D02D0918E0246E027
:1041400050E0BE0187E892E00E94B52F892BC9F1AB
:104150009E0125533340A90185E0569547958A95E0
:10416000E1F781E090E0BC0102C0660F771F4A953D
:10417000E2F74091330350913403462B572B2B5FCA
:104180003F4F65E0369527956A95E1F702C0880FA5
:10419000991F2A95E2F7842B952B909334038093F3
:1041A00033030FC0E0918D02F0918E029F012A5FD0
:1041B0003F4F2E173F0709F4BECF80818095819332
:1041C000F8CF9E012F52334040913505642F70E0A7
:1041D000C9010E94582C481B463010F4240F311D91
:1041E000211582E0380710F020E030E02B5C3C4FD6
:1041F00030938E0220938D02DF91CF9108951F930B
:10420000CF93DF93EC01162FFE018491882329F0D0
:10421000612F0E946C202196F7CFDF91CF911F91E3
:1042200008950E94FF2081E00C94F32869EE7EEF50
:1042300080E090E00E94D62C60E082E090E00E9456
:10424000B82C60E083E090E00E94B82C10920D033F
:1042500060E084E090E00E94B82C60E082E290E0B0
:104260000E94B82C60E085E090E00E94B82C60E0ED
:1042700086E090E00E94B82C6FEF87E090E00E940B
:10428000B82C40E050E0BA0188E090E00E94CA2CCF
:1042900060E08DE090E00E94B82C40E050E0BA0170
:1042A00088E190E00E94CA2C60E087E190E00E94E3
:1042B000B82C40E050E0BA018CE190E00E94CA2C9A
:1042C00060E070E080E290E00E94D62C40E050E098
:1042D000BA0188E190E00E94CA2C80E00E943F2948
:1042E0000E945D2940E050E0BA018FE090E00E941A
:1042F000CA2C40E050E0BA0183E190E00C94CA2C53
:1043000080910C03811110920C0308958095909177
:104310000B03892380930B03089590910B038091E5
:104320000A03982B9093A70280910C03882389F0AD
:10433000892B8093A702E9EAF2E097E080E09150B0
:1043400029F021912223D9F38F5FF9CF81110E94A7
:10435000802148E050E062E073E087EA92E00E944A
:10436000B52F892BA9F088E0E7EAF2E0A2E0B3E0FC
:1043700001900D928A95E1F7E0919A02F0919B02EB
:10438000309731F00280F381E02D87EA92E00994C2
:10439000089580E090E00E941C1F80E090E00E9461
:1043A000061F10920A030C948D21809100039091B6
:1043B000CF02891719F08F5F8770FBCF08950F9395
:1043C0001F93CF93DF938091CE0282958F7009F077
:1043D0005DC08091CB02882309F458C0809100030E
:1043E0001091CF026091C9027091CA02C091CC02B3
:1043F000D091CD0291E06F3F09F090E0292F06E0C7
:10440000811709F443C0209721F07F3F21F030E06D
:1044100003C031E001C0322F90E030FD34C0089F6E
:10442000F001099FF00D1124DF01A053BD4F11963B
:104430003C911197371327C03C91361324C0129634
:104440003C91129731111FC013964D915C911497B6
:104450004C1B5D0B44365105B0F48091CE028F7039
:1044600080618093CE02EB52FD4F80818F7080611E
:10447000808389EC92E00E94F806DF91CF911F9132
:104480000F910C94D52101968770BACFDF91CF910F
:104490001F910F910895CF92DF92FF920F931F9378
:1044A000CF93DF936C010091320380910D03082BB1
:1044B000C7E0D0E010E0C8010C2E02C095958795AA
:1044C0000A94E2F780FD04C02197A8F7F12C09C0F7
:1044D000FC2EB6018C2F0E941F200E94A01701976E
:1044E00099F38F2DDF91CF911F910F91FF90DF9066
:1044F000CF900895CF93DF93EC010E944B22BE0131
:104500000E941F200E94A017DF91CF910895FC0107
:10451000808191810E947A2292959F70963079F0E5
:1045200010F4925001C09A50923068F4803F69F0C4
:1045300018F4883E40F409C0843F29F406C0883E40
:1045400020F0813F11F080E0089581E008959F926E
:10455000AF92BF92CF92DF92EF92FF920F931F9391
:10456000CF93DF93CDB7DEB761970FB6F894DEBF78
:104570000FBECDBF8C0185E0F801DE011D960190D4
:104580000D928A95E1F7F801E2809091C90260915D
:10459000CA024091CC025091CD024115510531F033
:1045A0006F3F31F481E09F3F19F403C081E001C007
:1045B00080E0F82FF1709F2E80FD1AC1F801308144
:1045C0002181C380D48089ECA82E82E0B82EF0909F
:1045D000CB02F601E41BF50BFF2009F4C6C0809165
:1045E000CE02E436F10508F091C0482F407F09F073
:1045F00050C0621311C093130FC0FE2CE1100CC009
:104600008F7080618093CE02C5010E94F806809170
:10461000CE02F801858337C1CD2831F02F3F31F428
:1046200081E03F3F19F403C081E001C080E080FDDC
:1046300003C081E08E2502C080E090E0F82FF17089
:10464000FF2E80FF1CC0809100034091CF0256E0F6
:10465000841709F4F6C090E0589FF001599FF00DBF
:104660001124E053FD4F6181261306C0608163135E
:1046700003C06281E61203C001968770E9CFFE2C69
:10468000EE2009F400C18091CE0281608093CE02B9
:1046900049C0621306C0931304C0E11002C0F801C0
:1046A00086C0C8010E948722882351F1EE2041F183
:1046B0002091CE02822F82958F7090E0029774F045
:1046C0008091C9029091CA0298878F831986DB86F0
:1046D000CA862C87CE0107960E94F80686E0F8016C
:1046E000A9ECB2E001900D928A95E1F70E94DF21DA
:1046F0000AC06217C9F0C8010E94872281111EC03A
:10470000C8010E94F806FF24F394BDC0482F407FE3
:1047100081F789EC92E00E94F80686E0F50111929B
:104720008A95E9F7F12CAFC09313E5CFE110E3CF01
:10473000F8018583C8010E94F80654C0EE2001F3F9
:104740002091CE02822F82958F7090E0029734F2F2
:104750008091C9029091CA029A8389831B82DD826B
:10476000CC822E83CE010196B7CFE436F105D0F589
:10477000FE2CEE2029F2621327C0931325C020914E
:10478000CE0220FD18C0822F82958F70482F50E0F6
:104790004115510581F0F80125834F30510541F055
:1047A0008F5F982F9295907F822F8F70892B8583B2
:1047B000C8010E94F80686E0F801A9ECB2E0019079
:1047C0000D928A95E1F75FC0C8010E94872281118E
:1047D00085CF8091CE0281608093CE02C8010E9475
:1047E000F80651C086E0F50111928A95E9F74BC0B1
:1047F000EE2009F485CFC8010E948722F82E882375
:1048000009F47ECF86E0F801A9ECB2E001900D92A8
:104810008A95E1F78091C9029091CA020E947A229A
:1048200092959F70963051F4863F41F08091C80276
:1048300091E089278093C8029093C7020E94DF21EC
:1048400022C03D872E878D859E850E947A22292F42
:1048500022952F70223028F49F7039F0811105C005
:104860000BC0243028F49F7049F4805E883020F01B
:10487000C8010E94F8069F2CF92C05C0F80195810B
:10488000907F99F7F9CF8F2D61960FB6F894DEBF20
:104890000FBECDBFDF91CF911F910F91FF90EF9091
:1048A000DF90CF90BF90AF909F900895292F220F57
:1048B000920F990F890F682F669566956695982FC8
:1048C000977083E0689FB001112440E050E080E0E1
:1048D000FB01E40FF51FE155FD4F208130E0092E6B
:1048E00002C0369527950A94E2F721703327042EEB
:1048F00001C0220F0A94EAF7822B4F5F5F4F4330CB
:10490000510531F70895292F220F920F990F890F22
:10491000E82FE695E695E695877051E001C0550FC2
:104920008A95EAF783E0E89FF0011124E155FD4FF5
:1049300020E030E070E04081CB01022E02C096956D
:1049400087950A94E2F781708195842785238427CF
:1049500081932F5F3F4F2330310569F7089580938E
:1049600032030C94C92121E030E001C0220F8A9566
:10497000EAF720958091320382230C94AF24209192
:1049800001038095822380930103982F977099F4F7
:1049900030E0482F082E000C550B2417350759F02E
:1049A0009091DF0192FD07C08595859585950E94C0
:1049B000B324109201030895CF93C091DF01C2FB8D
:1049C000992790F9981799F080FBC2F9C093DF01FD
:1049D0006091DE0184E090E00E94B82C6C2F82E2AE
:1049E00090E00E94B82C82E0CF910C94BF24CF912C
:1049F000089521E030E001C0220F8A95EAF7809106
:104A00003203822B0C94AF2480930D030C94C921A4
:104A100010920B0386E0E9EAF2E0DF011D928A952D
:104A2000E9F70C94C921882321F00E9486210C9477
:104A30008D210895882339F090910B03892B809361
:104A40000B030C948D2108951F93CF93DF93182FA0
:104A5000893319F0CAE0D0E002C0C0E5D0E0812F70
:104A60000E94B7058FE99FE00197F1F700C00000B1
:104A70002197C1F7812FDF91CF911F910C9486056B
:104A800020913505223098F1982F96959695969518
:104A9000929F900111242F5F3F4F211592E039071B
:104AA00034F5F901EB5CFC4F6081877041E050E028
:104AB000DA0102C0AA0FBB1F8A95E2F7CD01862B4F
:104AC0006817A9F0808385E0369527958A95E1F7E8
:104AD00002C0440F551F2A95E2F78091330390914D
:104AE0003403482B592B50933403409333030895D8
:104AF00080913203982F9670963011F4886001C02F
:104B0000877F0C94AF24EF92FF920F931F93CF9364
:104B1000DF93EC017B0164E670E088E70E948B295B
:104B20008C01EC0EFD1ECE15DF0561F017FD0AC0ED
:104B3000FE01849164E670E00E940C2A8C012196AB
:104B4000892B89F30E94902AC801DF91CF911F9190
:104B50000F91FF90EF900895EF92FF920F931F93A4
:104B6000CF93DF93C82F8B01D42F7901FB01608194
:104B70007181828193810E94801E64367105810556
:104B8000910510F4DD2329F10C2E000CDD0BFE0144
:104B900083E0EE0FFF1F8A95E1F7ED5DFE4F818107
:104BA00092818C5D9C4F408150E04115510511F080
:104BB00041E050E0B7010E94C22FCE010E94DD2BE0
:104BC000882341F00E94AB1EF801608371838283C9
:104BD000938381E0DF91CF911F910F91FF90EF9030
:104BE0000895EF92FF920F931F93CF93DF937C0171
:104BF0008B010E942C1C811119C0E70101151105C0
:104C0000A1F08091E80085FD0AC08091E8008E77D0
:104C10008093E8000E942C1C882381F307C08991AF
:104C20008093F10001501109E9CF80E0DF91CF912D
:104C30001F910F91FF90EF9008951F93CF93DF93F3
:104C4000CDB7DEB7AA970FB6F894DEBF0FBECDBFC3
:104C5000ECE1F3E084E293E02091F10021938E17E0
:104C60009F07D1F780911D03833009F463C030F4AE
:104C7000813071F0823009F49DC0B4C08A3009F4EB
:104C800089C08B3009F46EC0893009F0ABC020C0F8
:104C900080911C03813A09F0A5C08091E800877FCC
:104CA0008093E8008091200390912103892B21F4C7
:104CB00068E080E193E003C060E080E090E070E0B5
:104CC0000E94EB1D8091E8008B778093E8008AC0FA
:104CD00080911C03813209F085C08091200390915E
:104CE0002103009719F0029709F07CC08091E80039
:104CF000877F8093E8008091E80082FD05C0809165
:104D00001A038111F8CF6EC02091F3008091F20058
:104D100090E0922B029731F48091F100813011F0F4
:104D2000863021F48091F10080930F038091E80098
:104D30008B7754C080911C03813A09F053C0809155
:104D4000200390912103892B09F04CC08091E80049
:104D5000877F8093E8008091E80080FFFCCF8091FE
:104D6000220137C080911C038132E1F5809120033C
:104D700090912103892BB1F58091E800877F809382
:104D8000E8000E945F1C80911E03809322010E9414
:104D9000082528C080911C03813221F58091E8000C
:104DA000877F8093E8000E945F1C80911F0380939F
:104DB0000E0318C080911C03813AA1F48091E80091
:104DC000877F8093E8008091E80080FFFCCF80918E
:104DD0000E038093F1008091E8008E778093E800C5
:104DE0000E945F1C8091E80083FFDFC180911C035B
:104DF00090911D03492F50E04A30510508F0D5C16C
:104E0000FA01E458FF4F0C94862F803821F0823845
:104E100009F0CBC108C08091180390911903992320
:104E200089F082600FC0809120038F70873008F076
:104E3000BCC18093E9008091EB0085FB882780F955
:104E40001092E9009091E800977F9093E80080939A
:104E5000F1001092F10070C1282F2D7F09F0A5C13B
:104E6000882319F0823061F0A0C180911E03813047
:104E700009F09BC1933009F080E0809319032EC0A4
:104E800080911E0381112AC0809120038F702FEF23
:104E9000280F263008F089C18093E9002091EB00AB
:104EA00020FF1CC0933021F48091EB00806214C07D
:104EB0009091EB0090619093EB0021E030E0A9012C
:104EC00002C0440F551F8A95E2F74093EA00109202
:104ED000EA008091EB0088608093EB001092E9007B
:104EE0008091E800877F8093E8000E945F1C5DC18D
:104EF00081115BC110911E031F778091E3008078C0
:104F0000812B8093E3008091E800877F8093E80005
:104F10000E945F1C8091E80080FFFCCF8091E3003D
:104F200080688093E300111102C082E001C083E039
:104F300080931A033AC18058823008F036C120911C
:104F40001E0330911F032C3D53E0350779F583E0B4
:104F50008A838AE289834FB7F894DE01139620E0B2
:104F60003EE051E2E32FF0E050935700E49120FF40
:104F700003C0E295EF703F5FEF708E2F90E0EA3054
:104F800010F0C79601C0C0968D939D932F5F24317A
:104F900049F74FBF8091E800877F8093E8006AE27D
:104FA00070E0CE0101960E94EB1DB4C080912003F9
:104FB00090912103432F552743305105A9F068F400
:104FC0004130510509F400C14230510509F0EDC0EE
:104FD0008BE590E0E3E3FAE04BC04132510529F163
:104FE0004232510589F1E1C0C9019927813091050B
:104FF000A1F058F0029709F0D8C0E0EAFAE0E49195
:105000008E2F90E0E0EAFAE030C0EAECFAE0E491BA
:105010008E2F90E0EAECFAE028C0EEEAFAE0E491A4
:105020008E2F90E0EEEAFAE020C08330910508F080
:10503000BCC0880F991FFC01E654FE4F0190F0811F
:10504000E02D89E090E014C08330910508F0ADC0F8
:10505000FC01EE0FFF1FEC54FE4F0190F081E02D9C
:10506000DC01AF54BE4F8C9190E0009709F49DC0D5
:105070002091E800277F2093E800209122033091BF
:1050800023032817390708F4C90140E0009789F184
:1050900020911A03222309F43DC02530D9F1209133
:1050A000E80023FD37C02091E80022FD2FC02091A9
:1050B000E80020FFEBCF4091F3002091F20030E0B8
:1050C000342B009759F02830310540F44491409337
:1050D000F100319601972F5F3F4FF3CF41E0283029
:1050E000310509F040E02091E8002E772093E80098
:1050F000CDCF4111CDCF0AC080911A03882351F042
:10510000853041F08091E80083FD04C08091E80083
:1051100082FFF2CF8091E8008B778093E80045C052
:10512000803809F042C08091E800877F8093E800D2
:1051300080911B038093F1008091E8008E77D3CE9D
:10514000811133C080911E0390911F03992702970C
:1051500064F58091E800877F8093E80010911E033A
:1051600010931B030E945F1C111106C08091E30085
:1051700087FD02C081E001C084E080931A0342E011
:1051800061EC81E00E947E1C42E261EC84E00E94BE
:105190007E1C42E261EC82E00E947E1C42E260ECF6
:1051A00083E00E947E1C80911A038091E80083FFB7
:1051B00010C08091E800877F8093E8008091EB0029
:1051C00080628093EB0005C082E190E0EEE8FAE0B7
:1051D0004FCFAA960FB6F894DEBF0FBECDBFDF91BA
:1051E000CF911F910895CF93E82F20918D02309198
:1051F0008E022553334040913505642F70E0C9017C
:105200000E94582C481B842FEE2359F066E00E9420
:10521000252FC82FC150B0F060E080E20E946C20C2
:10522000F9CFA901480F511D4115524018F080E0F7
:1052300020E030E0280F311D2B5C3C4F30938E0274
:1052400020938D02CF910895FC01680F791F8FEF95
:1052500091E3E617F70771F02191822728E030E00B
:1052600087FF03C0880F892701C0880F21503109AB
:10527000B9F7EFCF089586E290E00C94B82CCF9365
:10528000C82F811102C06FEF01C062E283E290E09B
:105290000E94B82CC11102C06FEF01C061E084E22E
:1052A00090E00E94B82CC11102C06FEF01C060E213
:1052B00085E290E0CF910C94B82C80E00E943F29C9
:1052C00060E070E0CB010E943B290E94C51F0E9454
:1052D000B51F81E00C943F2983E290E00E94AA2C44
:1052E000823281F484E290E00E94AA2C813051F451
:1052F00085E290E00E94AA2C91E0803209F090E0D3
:10530000892F01C080E0817008951092B9008CE06F
:105310008093B80008959F92AF92BF92CF92DF9290
:10532000EF92FF920F931F93CF93DF93B82EEB0171
:105330000E94B71E6C01C431D10558F0CF3F8FEFEA
:10534000D80759F0CE0164E170E00E94582C7B012F
:1053500007C0EE24E394F12C03C025E0E22EF12CEB
:1053600084E8A82E94EA992E1092BC009092BC007A
:105370000E94B71E8C018091BC0087FD08C00E946E
:10538000B71E801B910B8E159F05A8F32AC0809134
:10539000B900887F883041F08091B900887F8031E2
:1053A00019F00FEF1FEF1FC0B092BB00A092BC001E
:1053B0000E94B71E8C018091BC0087FD08C00E942E
:1053C000B71E801B910B8E159F05A8F30AC0809114
:1053D000B900887F883111F0803419F700E010E0BF
:1053E0000EC00EEF1FEFCF3F8FEFD80709F4BCCFF1
:1053F000C6010E949C1E8C179D0708F4B5CFC801FA
:10540000DF91CF911F910F91FF90EF90DF90CF90A0
:10541000BF90AF909F9008950F931F93CF93DF930A
:10542000EB018093BB0084E88093BC000E94B71E10
:105430008C018091BC0087FD0EC0CF3F8FEFD80755
:10544000C1F30E94B71E801B910B8C179D0788F338
:105450008EEF9FEF0CC02091B900287F81E090E093
:10546000283211F480E090E0919581959109DF91C7
:10547000CF911F910F910895CF92DF92EF92FF92FB
:105480000F931F93CF93DF936B018A017901B901C9
:105490000E948B29E6010C0D1D1DC017D10761F478
:1054A00024E92093BC00DF91CF911F910F91FF90D1
:1054B000EF90DF90CF90089597FDF2CFB7018991DB
:1054C0000E940C2AEACFCF92DF92EF92FF920F93C5
:1054D0001F93CF93DF93C62F6A017901B8010E9411
:1054E0008B2997FD11C0B8018C2F0E940C2AE60170
:1054F000EC0CFD1CCE15DF0539F097FD05C0B80199
:1055000089910E940C2AF6CF24E92093BC00DF91F8
:10551000CF911F910F91FF90EF90DF90CF90089562
:1055200084E98093BC0008958EE14A9B02C08150BB
:10553000E1F74A9BFECF08955A9880E28A95F1F7E9
:105540005A9A0895FC012AE02A95F1F728E090E0A4
:1055500080E031E040E14A95F1F7880F4A9B02C0B4
:105560008160932700C0000040E14A95F1F7215087
:1055700089F720E12A95F1F729B100C0000030E158
:105580003A95F1F722FB222720F992272081920FEA
:1055900090830895EF92FF920F931F93CF93DF9321
:1055A0001F92CDB7DEB719828C017C01E60EF11C8B
:1055B0000E151F0551F00E94942ACE0101960E94FB
:1055C000A22AF80181938F01F3CF81E09981911193
:1055D00080E00F90DF91CF911F910F91FF90EF909E
:1055E0000895529A5A9A089552985A9AEA9AE9E670
:1055F000F0E080818F7C80830895615091E001C04C
:10560000990F6A95EAF720E031E0992361F0492F7C
:10561000482319F05A9A232701C05A9840E24A9524
:10562000F1F79695F2CF222311F05A9A01C05A98B9
:1056300080E28A95F1F75A980895FF920F931F938D
:10564000CF93DF93EC018C01060F111DC017D1071A
:1056500041F0F9900E949C2A68E08F2D0E94FD2A5B
:10566000F5CFDF91CF911F910F91FF9008951F9279
:105670000F920FB60F9211240F931F932F933F9306
:105680004F935F936F937F938F939F93AF93BF934A
:10569000EF93FF93CF93DF931F92CDB7DEB71982BD
:1056A0000E94942ACE0101960E94A22A082F0695F4
:1056B00006950695902F96959570202F2570920F40
:1056C000292F237096959695920F877089135FC046
:1056D000898181115CC0083008F059C080E18A9549
:1056E000F1F75A9A529A82E08A95F1F700C05A98D7
:1056F00088E0089F80011124D801AD5DBE4F169649
:10570000ED91FC9117973097A9F06091AF017091DE
:10571000B00114962D913C911597260F371F1196C5
:105720008D919C911297680F791F13964C91139746
:105730008C910995F801ED5DFE4F6381662351F070
:105740008091AF019091B00124813581820F931F28
:105750000E941D2B0E949C2A80E18A95F1F75A989D
:1057600052985A9A80E18A95F1F7F801ED5DFE4F63
:105770006081662351F08091AF019091B001218149
:105780003281820F931F0E94CA2A0E94942A0F908E
:10579000DF91CF91FF91EF91BF91AF919F918F9149
:1057A0007F916F915F914F913F912F911F910F9139
:1057B0000F900FBE0F901F9018950F931F93CF93CC
:1057C000DF93883091050CF06DC0EC01F894529A8B
:1057D0005A9885E08A95F1F700009C2F9695957070
:1057E0002C2F2570920F892F83709695969523E024
:1057F000CC0FDD1F2A95E1F7980F8E01092B0E942F
:105800009C2A84E08A95F1F700C068E0802F0E940E
:10581000FD2A80E18A95F1F752985A9A4A9902C076
:1058200000C0FCCF87E090E04A9B08C0019721F4BC
:10583000529A5A9A789436C000C0F6CFFE01ED5DB8
:10584000FE4F6381662381F08091AF019091B0019A
:1058500024813581820F931F0E94CA2A811104C0BE
:10586000529A5A9A78941FC00E94942A80E28A958C
:10587000F1F75A98529A80E18A95F1F7CD5DDE4FA3
:105880006881662351F08091AF019091B001298128
:105890003A81820F931F0E941D2B0E949C2A7894AC
:1058A00081E001C080E0DF91CF911F910F910895B9
:1058B000AA1BBB1B51E107C0AA1FBB1FA617B70736
:1058C00010F0A61BB70B881F991F5A95A9F7809552
:1058D0009095BC01CD010895FB01DC0102C005904B
:1058E0000D9241505040D8F70895BB274A3031F40B
:1058F000992322F4BDE2909581959F4F0C94812CC1
:10590000BB27FB015527AA27880F991FAA1FA41799
:1059100010F0A41B83955051B9F7A05DAA3308F08D
:10592000A95DA193009779F7B111B1931192CB01C1
:105930000C949A2CDC01FC01672F71917723E1F71D
:10594000329704C07C916D9370836291AE17BF074C
:10595000C8F30895F999FECF92BD81BDF89A9927B1
:1059600080B50895A8E1B0E042E050E00C94DE2C50
:10597000262FF999FECF92BD81BDF89A019700B408
:10598000021639F01FBA20BD0FB6F894FA9AF99AA8
:105990000FBE08950396272F0E94B92C0E94B82CA1
:1059A000252F0E94B92C242F0C94B92C0196272F57
:1059B0000E94B92C0C94B82CDC01CB01FC01F999A4
:1059C000FECF06C0F2BDE1BDF89A319600B40D924B
:1059D00041505040B8F708955058BB27AA270E945D
:1059E000042D0C94552E0E94472E38F00E944E2E06
:1059F00020F039F49F3F19F426F40C94442E0EF451
:105A0000E095E7FB0C943E2EE92F0E94662E58F39A
:105A1000BA17620773078407950720F079F4A6F593
:105A20000C94882E0EF4E0950B2EBA2FA02D0B01AE
:105A3000B90190010C01CA01A0011124FF27591BD3
:105A400099F0593F50F4503E68F11A16F040A22FD9
:105A5000232F342F4427585FF3CF4695379527954A
:105A6000A795F0405395C9F77EF41F16BA0B620B49
:105A7000730B840BBAF09150A1F0FF0FBB1F661F90
:105A8000771F881FC2F70EC0BA0F621F731F841FD3
:105A900048F4879577956795B795F7959E3F08F0F9
:105AA000B0CF9395880F08F09927EE0F97958795BB
:105AB00008950E946D2D0C94552E0E944E2E58F084
:105AC0000E94472E40F029F45F3F29F00C943E2EAF
:105AD00051110C94892E0C94442E0E94662E68F36A
