:100000000C9467050C9484050C9484050C94CA2AFE
:100010000C9484050C9484050C9484050C9484053C
:100020000C9484050C9484050C94DE190C941A1914
:100030000C94C7260C9484050C9484050C948405B8
:100040000C9484050C9484050C9484050C9484050C
:100050000C9484050C945E260C9484050C94840501
:100060000C9484050C9484050C9484050C948405EC
:100070000C9484050C9484050C9484050C948405DC
:100080000C9484050C9484050C9484050C948405CC
:100090000C9484050C9484050C9484050C948405BC
:1000A0000C9484050C9484050C948405F00AF00AE1
:1000B000240B240B920B370DC00C370DB40B270CFF
:1000C0003A0C3A0CCD0CFA0CD50CD80CE10CDB0C2C
:1000D000E40C9D13A013BE13CB13D213F213A01480
:1000E000A014A014A014A014F513F713FC132614E5
:1000F0004D14501453147B142C175317FC1853171A
:10010000FC189F17C217FC18B718C718000501057F
:10011000020503050405050500060106020603069F
:100120000406050600070107020703070407050781
:10013000000801080208030804080508000901096D
:100140000209030904090509000001000200030077
:100150000400050000010101020103010401050181
:10016000000201020202030204020502000301036D
:10017000020303030403050300040104020403044F
:10018000040405040000000000000000000000005E
:10019000000000000000000000000000000000005F
:1001A00000000000000000007E0F00D4FFFFFFC72A
:1001B0000000007800000000000000002A2B28004A
:1001C0000000000000000000000000000000002906
:1001D000000000002C1E3420212224342627252E46
:1001E000362D3738271E1F2021222324252633337E
:1001F000362E37381F0405060708090A0B0C0D0EAA
:100200000F101112131415161718191A1B1C1D2F75
:100210003130232D350405060708090A0B0C0D0E95
:100220000F101112131415161718191A1B1C1D2F55
:100230003130354C00DA028132D9F1DB20A4A62E10
:10024000AF00A0C000A1C800AED580A81FD3004059
:100250008D142000556E646566004C575200525351
:10026000450042617365000A0A004C59520047413B
:100270004D450051575254000A0A0005010980A15A
:1002800001850319012AB700150126B700950175EC
:10029000108100C0050C0901A101850419012AA0E3
:1002A00002150126A002950175108100C00660FFAD
:1002B0000961A1010962150026FF009520750881DA
:1002C000020963150026FF00952075089102C005FC
:1002D000010906A101050719E029E7150025019587
:1002E000087501810295017508810105071900292A
:1002F000FF150026FF009506750881000508190105
:100300002905950575019102950175039101C009B3
:10031000025B00030100A0FA0904000001030101CF
:100320000009211101000122400007058103080096
:10033000010904010002030000000921110100016C
:100340002222000705820320000107050303200085
:10035000010904020001030000000921110100014C
:100360002232000705840320000112010002000070
:10037000000832FC87020100010200010C03530057
:100380006F0066006C00650000001A034A006F00F1
:100390007300650066004100640061006D00630049
:1003A00069006B0000000403090407087F080700C8
:1003B0003E5B4F5B3E003E6B4F6B3E001C3E7C3E07
:1003C0001C00183C7E3C18001C577D571C001C5E0E
:1003D0007F5E1C0000183C180000FFE7C3E7FF0029
:1003E000001824180000FFE7DBE7FF0030483A065A
:1003F0000E00262979292600407F05050700407F49
:1004000005253F005A3CE73C5A007F3E1C1C080073
:10041000081C1C3E7F0014227F2214005F5F005FD7
:100420005F0006097F017F00006689956A006060B1
:100430006060600094A2FFA2940008047E0408009B
:1004400010207E20100008082A1C0800081C2A081A
:1004500008001E10101010000C1E0C1E0C0030386E
:100460003E383000060E3E0E060000000000000080
:1004700000005F000000000700070000147F147FE9
:100480001400242A7F2A12002313086462003649CC
:1004900056205000000807030000001C2241000005
:1004A0000041221C00002A1C7F1C2A0008083E086C
:1004B00008000080703000000808080808000000EC
:1004C000606000002010080402003E5149453E00D3
:1004D00000427F4000007249494946002141494D90
:1004E00033001814127F10002745454539003C4A57
:1004F000494931004121110907003649494936006F
:10050000464949291E000000140000000040340044
:1005100000000008142241001414141414000041B7
:10052000221408000201590906003E415D594E009F
:100530007C1211127C007F49494936003E414141FD
:1005400022007F4141413E007F49494941007F09E6
:10055000090901003E41415173007F0808087F00EE
:1005600000417F4100002040413F01007F081422EC
:1005700041007F40404040007F021C027F007F041A
:1005800008107F003E4141413E007F0909090600F5
:100590003E4151215E007F091929460026494949FB
:1005A000320003017F0103003F4040403F001F2015
:1005B00040201F003F4038403F0063140814630090
:1005C0000304780403006159494D4300007F414111
:1005D0004100020408102000004141417F00040254
:1005E00001020400404040404000000307080000B2
:1005F0002054547840007F28444438003844444410
:100600002800384444287F00385454541800000807
:100610007E09020018A4A49C78007F0804047800D6
:1006200000447D4000002040403D00007F102844F1
:10063000000000417F4000007C04780478007C08C2
:1006400004047800384444443800FC18242418007A
:1006500018242418FC007C0804040800485454544E
:10066000240004043F4424003C4040207C001C2023
:1006700040201C003C4030403C00442810284400EE
:100680004C9090907C004464544C440000083641E7
:100690000000000077000000004136080000020161
:1006A000020402003C2623263C000000000000005B
:1006B000404040F0F8F8FF38FFF8F83FF8F8FF380E
:1006C000FFF8F8F040404000000000000080C0C08B
:1006D000C0800000C0C08000000080C0C000C0C05A
:1006E000000080C0C00000000000C0C0C0C0C0004A
:1006F000C0C000000000000000000000000000007A
:1007000000000000000000000000000000000000E9
:1007100000000000000000000000000000000000D9
:10072000000000000000000000C0F0F8FC3E1E06C3
:10073000010000007F4141417F007F4141417F0036
:100740000080C0E07E5B4F5BFEC00000C000DCD7D5
:10075000DEDEDED7DC00C00000000000000000008C
:100760000000000000000000000000000000000089
:10077000494949FFFFFFFFE0DFBFBF00BFBFDFE028
:10078000FFFFFFFF49494900000000001F3F606074
:10079000E0BF1F007F7F071E381E077F7F007F7F1F
:1007A0000E1F3B716000000000007F7F0C0C0C00EE
:1007B0007E7E007F7E0303007F7E03037E7E030335
:1007C0007F7E000F3E703C063C703E0F00327B493E
:1007D000493F7E007F7E0303001E3F69696F26004C
:1007E000000000000000000000030F1F3F3C787075
:1007F000600000007F4141417F007F4141417F0017
:10080000307B7F7830202030787F3B0003000F7FE3
:100810000F0F0F7F0F00030000000000000000001A
:1008200000000000000000000000000000000000C8
:10083000010101070F0F7F0F7F0F0F7E0F0F7F0F3B
:100840007F0F0F0701010100000000000000000001
:100850000001010000000000000000000000000096
:100860000000000000000000000000000000000088
:100870000000000000000000000000000000000078
:100880000000000000000000000000000000000068
:100890000000000000000000000000000000000058
:1008A0000000000000000000000000000000000048
:1008B0000000000000000000000000000000000038
:1008C0000000000000000000000000000000000028
:1008D0000000000000000000000000000000000018
:1008E0000000000000000000000000AF00AE350076
:1008F0001E001F00200021002200290014001A0001
:100900000800150017002B0004001600070009005E
:100910000A00E1001D001B00060019000500E300AD
:10092000E200E00002512800A80035002700260060
:100930002500240023002A00130012000C001800D8
:100940001C00340033000F000E000D000B00E5000A
:1009500038003700360010001100E700E600E40020
:1009600003512C00000035001E001F002000210054
:100970002200290014001A00090013000A002B00AD
:1009800004001500160017000700E1001D001B0001
:10099000060019000500E300E200E0000100280065
:1009A000A8003500270026002500240023002A0087
:1009B00033001C0018000F000D00340012000C0062
:1009C000080011000B00E500380037003600100069
:1009D0000E00E700E600E40001002C00000001002A
:1009E0003A003B003C003D003E0035001E001F0069
:1009F00020002100220001001E021F02200221020D
:100A0000220201002E002D002E022F0230020100D2
:100A10000100010001000100010044004300420008
:100A2000410040003F00450027002600250024002B
:100A3000230031022702260225022402230201009C
:100A400031003302330030002F00010001000100AB
:100A5000010001000100010001000100010001008E
:100A6000010001004900460065000000000001008F
:100A7000E200E000E1000000390001007A007B00A4
:100A80007C007D0000000100010001000100010068
:100A900001000100010001000100010001002A0025
:100AA00001000100520001004B002A004C004F00E1
:100AB000510050004E000100000001000000010044
:100AC00000000100010001000100010001001124EB
:100AD0001FBECFEFDAE0DEBFCDBF11E0A0E0B1E096
:100AE000EEE6FEE502C005900D92A43CB107D9F7F1
:100AF00025E0A4ECB1E001C01D92AF33B207E1F7ED
:100B00000E94C00D0C94352F0C940000882371F1C5
:100B10009CEF980F913A60F4E1ECF4E09281891334
:100B200001C01282319694E0E73CF907B9F70DC095
:100B300090E2980F983058F4982F977081E001C098
:100B4000880F9A95EAF70E947E210C9485219BE5F7
:100B5000980F933020F480E090E00C942027885A7E
:100B6000873120F480E090E00C940A270895CF9319
:100B7000882309F453C09CEF980F913AF8F4C82FDA
:100B8000E3ECF4E089EC94E02191C21721F08E1798
:100B90009F07D1F70DC0E1ECF4E08281C81301C0DA
:100BA0001282319644E0E73CF407B9F70E948521B0
:100BB0006C2F81EC94E00E94F02613C090E2980F15
:100BC000983090F4877021E030E0A90102C0440F12
:100BD000551F8A95E2F7CA0190912505892B8093CC
:100BE0002505CF910C948521EBE5E80FE33040F427
:100BF000F0E0EE56FE4F808190E0CF910C942027DC
:100C0000885A873158F4E82FF0E0EE0FFF1FEB56BB
:100C1000FE4F80819181CF910C940A27CF91089546
:100C2000EF92FF920F931F93CF93DF93CDB7DEB771
:100C300067970FB6F894DEBF0FBECDBF4B8B5C8BB2
:100C40006D8B7E8B8F8B242F0E891F8961111092E3
:100C500024050115110531F05F3F31F481E02F3F8C
:100C600019F403C081E001C080E080FD37C0A22FED
:100C7000B0E081E090E07C01022E01C0EE0C0A940D
:100C8000EAF7852F90E0662319F03091E20405C061
:100C9000FC01EA53FE4F30813E213323C1F046E090
:100CA000489F9001499F300D11242A0F3B1F220FAE
:100CB000331FF901E35FFE4F5491F901E45FFE4FEA
:100CC0002491FC01EA53FE4F9081E92A06C0FC0101
:100CD000EA53FE4FE0948081E822E08286E0FE0144
:100CE0003D96DF01982F1D929A95E9F72D875E8733
:100CF0006F87198B088BDE01179601900D928A95EC
:100D0000E1F7CE0107960E949F2281113EC086E046
:100D1000FE013796DE01119601900D928A95E1F75A
:100D2000FF81E8856A857B856115710531F0EF3FAC
:100D300031F481E0FF3F19F403C081E001C080E09D
:100D400080FD23C02091E90430E0C901019687703D
:100D5000992740911A0550E08417950779F1F98396
:100D6000EA837D836C8396E0929FD001939FB00DC0
:100D70001124A651BB4FFE01319601900D929A9518
:100D8000E1F78093E9040E94CD2116E080911A05D5
:100D90009091E9048917F9F0189FC0011124865138
:100DA0009B4F0E949F228823B1F080911A0590E00A
:100DB00001968770992780931A05E8CF0E94002535
:100DC0001092E90410921A05E3EEF4E086E0DF01E8
:100DD0001D928A95E9F767960FB6F894DEBF0FBEAD
:100DE000CDBFDF91CF911F910F91FF90EF900895AC
:100DF0003F924F925F926F927F928F929F92AF92AB
:100E0000BF92CF92DF92EF92FF920F931F93CF93F7
:100E1000DF93CDB7DEB729970FB6F894DEBF0FBECC
:100E2000CDBFFC018081918123813481232B31F05E
:100E30009F3F31F491E08F3F19F403C091E001C06E
:100E400090E090FD71C67F0185E0DE011196019072
:100E50000D928A95E1F7F701228189819A812223F7
:100E600049F00E944322182F682F89819A810E949D
:100E70007B2403C00E944E24182F69817A81812F20
:100E80000E9423288C01F7018281882399F1C801EF
:100E900090568115F0E29F0748F0905E811520E1A1
:100EA000920720F0915C81159F4118F4C8019927A1
:100EB00008C00F3F110509F010F4C80102C080E01E
:100EC00090E09C01245031092432310518F08B97B1
:100ED0000E9780F4E091F601F0E0EE0FFF1FE55071
:100EE000FE4F808191818F3F2FE7920719F0019685
:100EF00091838083F7018281882309F4F2C09801ED
:100F000022513F452031310508F0FDC58FEF93E0B8
:100F10000E943D2C8111EEC0025167E0862E62E0F6
:100F2000962E002379F08114F4E09F0609F4E2C0C4
:100F3000C4010E943D2C811101C001502FEF821A83
:100F4000920AEFCF1E821F8218861986442443948A
:100F50005AE0352E84010F5F1F4FC4010E943D2CC3
:100F60008E831F82882309F4C5C09FEF980F9330AA
:100F700060F48F834E8232E0830E911CC8010E9480
:100F80003D2C8887811102C0B5C048018E010A5FDF
:100F90001F4FF80120812223E9F2213009F04CC0D3
:100FA0008181813049F46801F2E0CF0ED11CF80153
:100FB00082810E941C250AC0823051F46801F2E04F
:100FC000CF0ED11CF80182810E94B705860186C030
:100FD000833049F46801F2E0CF0ED11CF801828120
:100FE0000E948605F3CF843019F00F5F1F4F76C043
:100FF000F80122810E5F1F4F80E090E030E0205327
:1010000031092A30310568F4389EA001399E500D0F
:101010001124C901840F951F0F5F1F4FF801208114
:10102000EDCF009709F45AC0EFE9FFE03197F1F7EF
:1010300000C000000197F5CFE22FF0E0EC54FE4F26
:101040005490822F86958695869590E0FC01EC550C
:10105000FE4F64902770712C022E02C07594679425
:101060000A94E2F7F1E06F227724FC01EC56FE4F80
:10107000A490B12C022E02C0B594A7940A94E2F772
:1010800031E0A322BB24FC01EC57FE4FC490D12CCD
:1010900002C0D594C7942A95E2F781E0C822DD24E6
:1010A0006114710419F081EE0E94B705A114B10416
:1010B00019F086EE0E94B705852D0E941C25AB28ED
:1010C00019F086EE0E948605672819F081EE0E94CD
:1010D0008605CD2819F08CE20E941C250F5F1F4F5A
:1010E00058CF0031FFE51F0769F581E00E94AB246E
:1010F0000E94CB1580911B05877009F415C5F70177
:101100008281882309F410C58091E30182FD0CC51A
:1011100082E029960FB6F894DEBF0FBECDBFDF91F7
:10112000CF911F910F91FF90EF90DF90CF90BF90E4
:10113000AF909F908F907F906F905F904F903F9077
:101140000C94B72401312FE5120711F482E0CECFC1
:10115000033F3CE5130799F406E221EE40EE63EF0E
:101160007CE509C0073D2CE5120711F506E221EEEA
:1011700041EE67ED7CE5C7010E944627BBCF043FE7
:101180009CE5190708F05CC1083DECE51E0731F449
:1011900007E225EE45EE68ED7CE5EDCF093DFCE587
:1011A0001F0701F708E221E045EE69ED7CE5E3CF9A
:1011B000882309F47AC11092300503309DE51907A0
:1011C00058F40A3FECE51E0780F4C80182509C45A4
:1011D000449708F054C109C00136FDE51F0729F006
:1011E000053A2DE5120709F04AC10E943B1F909372
:1011F000E3018093E20101313CE5130709F4C6C025
:1012000008F042C009309CE5190709F49BC000F5BD
:101210000530FCE51F0709F485C078F403303CE590
:10122000130709F478C008F07AC002301C4509F0B1
:10123000F7C08091E2018160F1C00730ECE51E0744
:1012400009F478C008F07AC08091E2018061E6C0BC
:101250000D302CE5120709F487C058F40B308CE5EB
:10126000180709F479C008F07BC08091E20188601A
:101270006FC00F30ECE51E0709F480C008F082C093
:101280008091E201877FCAC00D3F2CE5120709F467
:1012900071C000F505318CE5180709F485C068F4C4
:1012A0000331ECE51E0709F475C008F095C00E94F3
:1012B00000258091E2018F77B1C00B3F2CE512072A
:1012C000A9F108F054C00A3F1C4509F0A9C080915B
:1012D000E30140C001309DE5190709F489C058F4C5
:1012E0000F3FFCE51F0709F45AC008F069C0809160
:1012F000E30182602FC001363DE5130709F47EC08B
:10130000053A8DE5180709F483C002301D4509F040
:1013100087C060E06EC08091E20182607FC08091F2
:10132000E20116C08091E201886078C08091E301FB
:1013300082604FC08091E201806270C08091E201C2
:1013400080646CC00E9400258091E201806866C0C4
:10135000846064C081603DC08091E2018E7F5EC088
:101360008091E2018D7F5AC08091E20116C0809188
:10137000E30118C08091E3018D7F2BC08091E201D1
:101380008F7E4CC08091E2018F7D48C08091E20148
:101390008F7B44C08091E201877F8B7F3FC080912B
:1013A000E3018D7F8E7F15C08091E20182FB2227B1
:1013B00020F991E0922790FB82F990FB83F92EC0EF
:1013C0008091E301982F909591708E7F892B90FBEF
:1013D00081F98093E30124C00E9400258091E201FD
:1013E00087FB222720F991E0922790FB87F916C00E
:1013F00061E08EE090E00E944B2C12C08091E201EF
:1014000084FB222720F991E0922790FB84F906C003
:101410008091E201982F909590FB80F98093E201F2
:101420006091E2011091E30184E090E00E944B2C76
:10143000612F82E290E00E944B2C0E9400255ACE40
:10144000053F3CE5130731F406E221EE42EE65EF7D
:101450007CE591CE053F9CE5190730F407E225EEC7
:1014600044EE64EF7CE587CE063FECE51E0709F00D
:101470009FCE07E225EE46EE66EF7CE57CCE063198
:10148000FCE51F0751F5809125058A7A91E009F462
:1014900090E09093D001882311F065E301C069E2E8
:1014A00081EC94E00E94F02615C006311C4509F03D
:1014B00045C08091D001882309F434C385E3E1EC71
:1014C000F4E09281891301C01282319624E0E73C56
:1014D000F207B9F70E9485210DCE0A353DE51307C5
:1014E00041F150F401159CE51907A9F00E3D1C458A
:1014F00029F50E940E21FECD0B35FDE51F07D9F021
:101500000C351D45D9F48091E30182FB882780F9D1
:1015100091E0892711C00E9400253FEF84E39CE001
:10152000315080409040E1F700C000000E944D26FD
:10153000E1CD81E001C080E00E94D424F7018281E6
:1015400000811181882349F0C8010E944322D82ECE
:10155000682FC8010E947B2404C0C8010E944E2449
:10156000D82EB8018D2D0E9423280E94481D082FD7
:10157000C92EB82EF7011281858082944FE0842213
:1015800080911B058770E1F01123D1F0892F807FB6
:10159000803449F090E2900F983090F0803619F442
:1015A000F6EF0F1769F08091E30182FD09C082E038
:1015B0000E94B72480911B058770AA24A3948111EF
:1015C000A12C9C2C92943FE09322892D90E08C30AA
:1015D000910508F04CC2FC01EA5AFF4F0C94F02E22
:1015E0009C2D9F708C2D807FD92E19F0D29420EFE6
:1015F000D2221123B9F0DD2009F4AAC180E2800FC4
:10160000883010F0B11006C080912505D82AD092FC
:10161000250505C080912405D82AD09224050E9472
:10162000852196C1802F0E948605DD2009F41FC206
:10163000005E083090F1BB2081F1D09480912405A8
:10164000D822D09224052CC09C2D9F708C2D807F99
:10165000D92E803219F0D29490EFD922BB2021F0FC
:1016600021E0B216D9F149C08091E30182FF1BC08D
:10167000112369F0DD2039F080912505D82AD09218
:1016800025050E94852180E00E94B705F0C180E019
:101690000E948605DD2009F4EAC18D2D0E947E217D
:1016A0000E948521E4C1112381F0809126058820C4
:1016B00051F031E0831207C0D82AD81609F4D7C1F7
:1016C000D0922605D4C18D2910C0882021F081E058
:1016D000881609F4CCC10E94782120C0112341F062
:1016E00095E0981508F4C3C18D2D0E941225BFC145
:1016F000E4E0E81508F4BBC111C0112349F08820CB
:1017000099F3F701858180FF23C18F708583ECCF2A
:10171000882021F0F9E3BF1229C120C18D2D0E943C
:101720000B25A5C18C2D86958695837019F0813087
:1017300071F09DC1112331F0802F9C2D93700E9478
:1017400020279BC180E090E00E942027AEC111239A
:1017500031F0802F9C2D93700E940A278EC180E06B
:1017600090E00E940A27A1C18C2D8370A1F5111170
:1017700082C1402F429546954770440F440F202F59
:101780002F7030E0C901042E01C0880F0A94EAF7D7
:1017900004FF08C02FE030E001C0220F4A95EAF7AD
:1017A000209501C020E03C2D3695369533703230BF
:1017B00069F040F440912705313019F0822B8423E1
:1017C00002C0842B822B0E94FC2455C1282B8091BF
:1017D00027058227F8CF112319F08C2D817001C0C5
:1017E0008695882309F447C1402F42954695477056
:1017F000440F440F202F2F7030E0C901042E01C088
:10180000880F0A94EAF704FF08C02FE030E001C017
:10181000220F4A95EAF7209501C020E03C2D36952D
:1018200036953370323051F070F44091900231307F
:1018300019F0822B842308C0842B05C0282B8091AB
:101840009002822701C0822B0E94A72414C1FC2D84
:10185000FF70DF2E112339F08F2F0E94F124802F8B
:101860000E94122508C1802F0E940B258D2D0E94F9
:10187000AB2401C1802F22EFB21681F12B1538F075
:1018800030EFB31659F091EFB91619F15DC0E3EFDF
:10189000BE1659F1F4EFBF16C1F056C0112381F006
:1018A00024E0281508F4E3C02C2D2F7181E090E08E
:1018B00001C0880F2A95EAF790919002892720C0ED
:1018C00035E0381508F4D3C0EFCF8091E30182FFF3
:1018D0001AC0112329F08C2D8F7128C01123D9F340
:1018E0008C2D8F710E94AB24C2C0112341F081E086
:1018F0009C2D9F7101C0880F9A95EAF701C080E086
:101900000E94A724B4C01123A1F00C2D0F71802FC9
:101910000E94F1248091E30182FD07C0E8E00E9F60
:10192000C0011124836080931B05802F0E94F12445
:101930009EC081E00E94B724F1E0F81508F097C03E
:1019400082E00E94B72493C0112321F0882019F26D
:10195000802F9ACE882021F2893341F42FEF37EE81
:1019600083E0215030408040E1F704C0EFE3FCE920
:101970003197F1F700C00000802F0E94860577C0E4
:101980008B2D90E0FC01E05FF109E730F10508F0F4
:101990003EC0EE59FF4F0C94F02E112309F485C080
:1019A0009091E20481E0892715C01093E20465C09C
:1019B00081E081270FC0111160C081E08093E204B3
:1019C00074C011115AC06FC0112339F082E08093A6
:1019D000D10181E08093E20450C08091D101823036
:1019E00019F481E08093D1018091D101833009F015
:1019F0005CC057C0112339F08091E104882381F243
:101A00001092E1043AC0F4E0F81550F64EC080910F
:101A1000E1048820F9F0882341F09091E20481E00C
:101A200089278093E2041092E104112321F0802F92
:101A30000E94B70522C08FE39CE90197F1F700C02F
:101A40000000802F0E94860586E0F70111928A959A
:101A5000E9F72BC0882389F011110FC09091E2049F
:101A600081E089278093E2041092E1041EC088EF90
:101A7000890D843010F40E9436271123B1F08C2D8B
:101A8000807F803619F4F6EFBF1679F08091D1018E
:101A9000823019F483E08093D1018091D1018130AB
:101AA00021F41092D1011092E204AA20E9F1809170
:101AB0001B0580FD39C0F7011282859585958595B6
:101AC0000E94F124C7010E94F80680911B058595AC
:101AD0008595859529960FB6F894DEBF0FBECDBFCC
:101AE000DF91CF911F910F91FF90EF90DF90CF90FA
:101AF000BF90AF909F908F907F906F905F904F902E
:101B00003F900C94AB2400313FE5130711F481E0C2
:101B100006C001319FE5190709F01ACB82E00E9447
:101B2000F124E6CA89E2CBCC29960FB6F894DEBF41
:101B30000FBECDBFDF91CF911F910F91FF90EF901E
:101B4000DF90CF90BF90AF909F908F907F906F90DD
:101B50005F904F903F900895982F92959F7019F045
:101B6000892F24E001C020E0982F9695969511F0DA
:101B70002E5F892F982F969509F02F5F822F089559
:101B8000CF93DF93CDB7DEB7AE970FB6F894DEBF35
:101B90000FBECDBF84B7877F84BF0FB6F894A895DA
:101BA00080916000886180936000109260000FBE99
:101BB00090E080E80FB6F894809361009093610004
:101BC0000FBE85B7806885BF85B7806885BF84E113
:101BD0009BE19093C5018093C4010E945E190E940D
:101BE0007D198091E20084608093E2007894809176
:101BF00078028823A1F01091E9001F709091EC0009
:101C0000892F817090FD80E8182B1092E900809157
:101C1000E80083FD0E9444161F701093E90082E0E3
:101C200084BD93E095BD9AEF97BD80936E001092AE
:101C3000D2011092D3011092D4011092D5010E94CA
:101C4000FF28811102C00E94F0280E94AB1C8093E3
:101C500000010E94AB1C81110E94842A8091000126
:101C600080910001882311F090E001C095E09093ED
:101C7000E10185E0891B8093E0010EE511E0D801C8
:101C80008D918D018F3F11F00E94311DB1E003361F
:101C90001B07A9F703E611E0B9E6EB2EB1E0FB2E36
:101CA000F80181918F018F3F11F00E94311DE016E4
:101CB000F106B1F78AE0E1E6F2E0DF01282F1D929C
:101CC0002A95E9F7E6EDF1E0DF011D928A95E9F743
:101CD00080E090E00E94452C893E9E4F21F40E94B6
:101CE000FF28811102C00E940E2182E090E00E9434
:101CF0003D2C8093E5010E943B1F9093E30180936C
:101D0000E2010E944C1FEFE3FCE93197F1F700C0BC
:101D100000000E944C1F8091610280FF08C06FEF9D
:101D20007FEF80E090E00E94692C0E944D2683E0C6
:101D300090E00E943D2C0E94FC240E94AB1C882352
:101D400011F083E001C082E080935C0280FD02C05C
:101D500080E801C080E2809391020E9418296DE022
:101D600070E087E492E00E94D615892B09F043C009
:101D700080915C0263E070E081FD3AC084E492E00F
:101D80000E94D615892BB9F56DE070E084E392E0EE
:101D90000E94D615892B79F50E94AF26DC01CB0174
:101DA000805E914BAF4FBF4F8093280590932905DC
:101DB000A0932A05B0932B05E4E9F2E080E092E0DD
:101DC000DF019C011D9221503040E1F7F0939B040C
:101DD000E0939A048FEF9FEF909393028093920287
:101DE00081E080932D0580932C0510925D0203C045
:101DF00081E492E0C5CF80910001811106C084EF9B
:101E000080930F0185EF80930E0180910F01E82FE1
:101E1000E295EF70F0E041A1282F2F7081E090E073
:101E2000BC0102C0660F771F2A95E2F79B01362F8F
:101E30003095342331A332A1232B22A320910E010C
:101E4000E22FE295EF70F0E031A12F7001C0880F12
:101E50002A95EAF7982F9095932391A392A1892B25
:101E600082A38FE891E00197F1F700C00000209174
:101E70000F01E22FE295EF70F0E080A190E02F706B
:101E800002C0959587952A95E2F7817090910E0191
:101E9000E92FE295EF70F0E020A130E09F7002C0E2
:101EA000359527959A95E2F720FF02C092E001C090
:101EB00090E0892B809331029091000181E0982776
:101EC00090933002891B8093E4010E94AB1C811126
:101ED00002C00E94872A81E091E0909334058093AC
:101EE0003305A0E46A2E80917802853009F045C060
:101EF00000E112E180917802853009F03AC08091CA
:101F00007802843029F10E94302810923705A8E128
:101F1000B0E00FB6F894A895A09360000FBE609251
:101F2000600083B7817F846083BF83B7816083BF94
:101F30007894889583B78E7F83BF0FB6F894A89561
:101F400080916000886180936000109260000FBEF5
:101F500080917702882309F4CDCF0E944C1FE1E6DF
:101F6000F2E08191811115C5B2E0EB36FB07C9F7AC
:101F7000C1CF0E9400250E9436270E944C1F782E58
:101F800081110E94AF26E1E6F2E0FCA7EBA7A6EEE6
:101F9000B1E000E010E0C02ED1908D918D2549F187
:101FA000E12CFF24F394982F9F21F1F00E94AB1CA9
:101FB000882399F0E9A2CAA2DF2081E009F480E039
:101FC0008BA30E94BB268160782F9DA38CA349A17F
:101FD0005AA16BA18DA10E941006F801EA51FE4F93
:101FE0008081F826F0821AC0E394FF0C26E0E2120A
:101FF000DACF0F5F1F4F0A30110569F68FEF8EA3FE
:102000008FA318A60E94BB268160782F9AA789A764
:102010004EA15FA168A58AA50E9410060E94AB1C74
:10202000882309F4CAC0C090FB01D090FC010D2C9C
:10203000000CEE08FF0810910D01412F50E0EDEF6C
:10204000F1E081E090E04817590764F02191319167
:102050004901330FAA08BB08C80CD91CEA1CFB1C99
:102060000196F1CFF7FE03C0C12CD12C760160910F
:10207000F7017091F8018091F9019091FA010E94A5
:1020800084261B012C01A0E6BAEEA70196010E944E
:10209000FD2E4B015C0148EC149F90011124C901F5
:1020A000330FAA0BBB0B9C01AD01220D331D441D48
:1020B000551DA5E0B0E00E94FD2E9B01AC01C501BD
:1020C000B4010E94AF2E49015A0157FD0CC051EFD7
:1020D00085169104A104B1044CF0F0EF8F2E912CE1
:1020E000A12CB12C03C0812C912C540169EC261633
:1020F00031044104510414F18091F60190E00196FD
:1021000069E170E00E949B2E8093F601880F991F71
:10211000FC01E550FE4F11821082183110F41F5F50
:1021200001C018E110930D010E94AF266093F701E2
:102130007093F8018093F9019093FA0172E0C71649
:10214000D104E104F1041CF4812C912C5401609120
:10215000F2017091F3018091F4019091F5010E94D8
:1021600084266B017C0185E6C816D104E104F104E4
:1021700084F00E94AF266093F2017093F301809384
:10218000F4019093F501809132028093F1018092E5
:10219000F0011091F101A091F001B0E0A11BB10993
:1021A000A70196010E94082F24E630E040E050E0AD
:1021B0000E94D12E120F10933202E09131025E2F55
:1021C000550F550F20910F01E22FE295EF70F0E0CF
:1021D00080A190E02F7002C0959587952A95E2F72F
:1021E0008170992740910E01E42FE295EF70F0E0A5
:1021F00020A130E04F7002C0359527954A95E2F74F
:10220000F901E170FF2720FF02C0E2E0F0E0E82BD7
:10221000F92BE52BE093310210913002EF70F0E0E2
:10222000E759FE4F908180912F02890F80932F02F2
:1022300082308CF0E12FF0E0E35DFD4F80818F5F15
:102240008083111102C08AEA03C0113031F48BE49B
:102250000E941C2502C0B12C02C0BB24B394809103
:102260002F028F3F94F4E12FF0E0E35DFD4F80817A
:1022700081508083111102C089EA03C0113019F422
:102280008EE40E941C25BB24B39480912F02082E5B
:10229000000C990B62E070E00E949B2E80932F024D
:1022A000B1100E94D91E80912D05882309F4F0C138
:1022B00080915E0290915F020E94A026C29708F46E
:1022C000E4C00E94BB2690935F0280935E0260E0B0
:1022D00080E00E94A0280E94AB1C882371F188E74F
:1022E00092E00E946815809190020E94AC0D182F18
:1022F000882329F0813031F48EE692E005C083E72F
:1023000092E002C08AE692E00E94761587E692E0AB
:102310000E946815123049F028F0133049F48AE51C
:1023200092E008C082E692E005C08EE592E002C02D
:1023300084E592E00E947615A8C0E0903202F12C6C
:10234000F0923B02E0923A02809138029091390279
:102350000E94A0268135910508F45AC0B7010F2CC0
:10236000000C880B990B0E94962D20E030E046E18E
:1023700053E40E94EC2C20E030E040E052E40E9464
:10238000222E9B01AC0160E070E080E092E40E94AC
:102390007F2C0E945E2D162FC62ED72E862F972FAC
:1023A00090931101809310010E94931581E0810F99
:1023B0000E94931582E0810F0E94931500E210E0C5
:1023C000C016D10634F4802F0E94931501501109D4
:1023D000F7CF80E090E0FC01ED5EFC4F229121837D
:1023E0009F012459324028173907C1F780589F4F61
:1023F0008115A2E09A0779F78FEF9FEF90939302F0
:10240000809392020E94BB269093390280933802F7
:102410004AE063E372E0C7010E94082C80913A020F
:1024200090913B0263E08436910554F08EE00E9467
:10243000A02882E591E00E947B1563E082E119C04B
:102440008A30910554F08FE00E94A02882E591E047
:102450000E947B1563E083E10CC01816190674F422
:1024600080E10E94A02882E591E00E947B1563E054
:1024700084E10E94A02883E392E005C080E10E94ED
:10248000A02888E591E00E947B1580912D05882386
:1024900009F4E3C020919202309193022115310595
:1024A00009F4DBC080915D028111D7C0282E312C48
:1024B00088248394912C082E02C0880C991C0A94BD
:1024C000E2F7A90148215921452B11F48F5FEECF86
:1024D00090915C02910165E0220F331F6A95E1F74C
:1024E00090FD12C08295880F807680931401220F90
:1024F000232F221F330B319520931701815E809388
:1025000015011092180112C045E0369527954A959D
:10251000E1F7220F220F220F2093140110921701CE
:10252000295F2093150183E08093180124E630E0B1
:1025300047E050E062E171E088E70E94CF29892BF3
:1025400009F08BC080915C0280FD23C0C10125E0B1
:10255000880F991F2A95E1F7AC014C565D4F04E6B0
:1025600010E020E230E060E488E70E94F629892B41
:1025700009F073C00E944A2880949094809192023E
:1025800090919302882299229092930280929202D3
:1025900064C080E2ECE3F2E0DF011D928A95E9F786
:1025A00095E0220C331C9A95E1F7EDE7F1E0FEA7E8
:1025B000EDA769E771E0ADA5BEA58D91BEA7ADA75A
:1025C000FB019191BF019101290F311DA9014C56C9
:1025D0005D4F2A0190E0845C9D4FFC0107E09F0164
:1025E000281B390BEE24E39401C0EE0C2A95EAF780
:1025F000A201F12CDA011D91AD011E21202F2F190E
:102600002770D22E022E000C330BB12F01C0BB0F4E
:10261000DA94EAF7DB2E31952195310927703327BB
:1026200001C016952A95EAF7D12A1081D12AD082C5
:10263000F39428E0F212DECF015031960F3F79F685
:102640004DA55EA54158514009F0B5CF04E610E014
:1026500020E230E04CE352E086CF80912C058823C5
:10266000B9F00E94AF26009128051091290520910C
:102670002A0530912B05DC01CB01801B910BA20BAD
:10268000B30B8F3F9F4FAF4FBF4710F40E943028CE
:10269000711001C0B1100E944A280E943627909103
:1026A000600289138093600280917802843009F07F
:1026B0001ACC83E08093E9008091E80082FF13CC7C
:1026C0008091E80085FF23C00E94B51A81111DC0CA
:1026D00080E2E82EF12C8E010F5F1F4F09C0809120
:1026E000F100D8018D938D01B1E0EB1AF10869F08A
:1026F0008091E80085FDF3CF8091E8008B7780938F
:10270000E8000E94B51A882399F391E001C090E097
:102710008091E8008B778093E800992309F4E3CB5C
:10272000E9818E2F90E0FC013197E331F10508F04B
:1027300007C1E759FF4F0C94F02E1A8289E05AC066
:102740008A81823009F43BC1833051F0813009F035
:10275000F7C00E94AF269B838C837D836E83F2C07B
:10276000FE013396CE010D96ABA5BCA52D91BCA75D
:10277000ABA72193E817F907B9F7E4C08A81823043
:1027800009F0DEC06B817C818D819E810E94F62ED6
:102790000E94CE28D7C04C816B818A810E94FD2780
:1027A0009D8314C10D811E811027012710278C8164
:1027B000EB809A81BCE0EB9E70011124E8E79E9FBC
:1027C000E00CF11C1124E80EF11CE80EF11C612F45
:1027D000C70187960E944B2C602FC70188960E94E4
:1027E0004B2CB0C00E94C927ADC080E15AC081E027
:1027F0008A8389EF8B83A6C0EA80FB80FE24EF24C6
:10280000FE240C8110E09E012F5F3F4F59016901AA
:10281000C701895F9D4F96012A193B09201731078F
:1028200008F090C039EFE31631E0F30630F40E946F
:102830003D2CD60114968C9302C0F6011482FFEF52
:10284000EF1AFF0A2FEFC21AD20AE2CFEA80FB800A
:10285000FE24EF24FE240C8110E0AE014F5F5F4F99
:102860005A016A01C701895F9D4F96012A193B09E8
:102870002017310708F066C059EFE51651E0F5065C
:1028800028F4D60114966C910E944B2CBFEFEB1AE2
:10289000FB0AEFEFCE1ADE0AE5CF0E94B92752C03D
:1028A00084E08A834FC0EA80FB80FE24EF24FE246C
:1028B0000C8110E09E012F5F3F4F59016901C70154
:1028C000879696012A193B0920173107D8F530EE73
:1028D000E31631E0F30630F40E943D2CD601149645
:1028E0008C9302C0F6011482FFEFEF1AFF0A2FEF5C
:1028F000C21AD20AE4CFEA80FB80FE24EF24FE2431
:102900000C8110E0AE014F5F5F4F5A016A01C701B1
:10291000879696012A193B092017310798F450EE43
:10292000E51651E0F50628F4D60114966C910E9444
:102930004B2CBFEFEB1AFB0AEFEFCE1ADE0AE7CF04
:102940008FEF898380917802843009F0CCCA10918E
:10295000E9001F709091EC00892F817090FD80E854
:10296000182B82E08093E9008091E80080FF0DC081
:1029700040E050E060E270E0CE0101960E94E81A6B
:102980008091E8008E778093E8001F701093E90033
:10299000AACA09BD19BD09B400FEFDCF8091D800B7
:1029A0008F7D8093D8008091E00082608093E0006A
:1029B0008091E00081FDFCCF0E9400259BCA86E249
:1029C00090E00E943D2C1B821C821D828E83BACF18
:1029D000CF93DF938A3011F481E003C08D3029F466
:1029E00080E0DF91CF910C947028682F80919A0439
:1029F00090919B0426E0FC01A4E9B4E001900D92C3
:102A00002A95E1F7603E30F026E0FC0111922A950C
:102A1000E9F70AC0F6E06F9FB001112466557C4FBC
:102A200046E050E00E94FF2BC0919A04D0919B0495
:102A300046E050E0BE0184E994E00E941F2F892BFC
:102A400049F19E0124593240A90185E056954795E8
:102A50008A95E1F781E090E0BC0102C0660F771F24
:102A60004A95E2F74091920250919302462B572BE0
:102A70002B5F3F4F65E0369527956A95E1F702C0D9
:102A8000880F991F2A95E2F7842B952B9093930238
:102A9000809392029E012E58324040919102642F01
:102AA00070E0C9010E94EB2B481B463010F4240F44
:102AB000311D211582E0380710F020E030E02C565F
:102AC0003D4F30939B0420939A04DF91CF9108955A
:102AD000CF93DF93EC01FE018491882321F00E94C3
:102AE000E8142196F8CFDF91CF9108950E946815E0
:102AF00081E00C9470280F931F93CF93DF93EC0128
:102B0000FC0101900020E9F78F0101501109C01765
:102B1000D10720F489910E94E814F9CFDF91CF9179
:102B20001F910F91089520919102223098F1982FD2
:102B3000969596959695929F900111242F5F3F4F01
:102B4000211592E0390734F5F901EC56FD4F60810B
:102B5000877041E050E0DA0102C0AA0FBB1F8A95DE
:102B6000E2F7CD01862B6817A9F0808385E03695C2
:102B700027958A95E1F702C0440F551F2A95E2F781
:102B80008091920290919302482B592B509393027B
:102B900040939202089580919002982F96709630FB
:102BA00011F4886001C0877F0C94A724EF92FF92F4
:102BB0000F931F93CF93DF93EC017B0164E670E0EA
:102BC00088E70E941E298C01EC0EFD1ECE15DF0544
:102BD00061F017FD0AC0FE01849164E670E00E9476
:102BE0009F298C012196892B89F30E94232AC801F1
:102BF000DF91CF911F910F91FF90EF900895EF9289
:102C0000FF920F931F93CF93DF93C82F8B01D42F85
:102C10007901FB0160817181828193810E94842608
:102C2000643671058105910510F4DD2329F10C2E20
:102C3000000CDD0BFE0183E0EE0FFF1F8A95E1F72C
:102C4000E65EFE4F818192818E579D4F408150E01C
:102C50004115510511F041E050E0B7010E942C2FC1
:102C6000CE010E94702B882341F00E94AF26F8010C
:102C7000608371838283938381E0DF91CF911F9181
:102C80000F91FF90EF9008951F93CF93DF93CDB7EF
:102C9000DEB7AA970FB6F894DEBF0FBECDBFEAE746
:102CA000F2E082E892E02091F10021938E179F07D5
:102CB000D1F780917B02833009F463C030F4813016
:102CC00071F0823009F49DC0B4C08A3009F489C023
:102CD0008B3009F46EC0893009F0ABC020C0809100
:102CE0007A02813A09F0A5C08091E800877F80933D
:102CF000E80080917E0290917F02892B21F468E0A8
:102D00008EE692E003C060E080E090E070E00E9418
:102D1000EF258091E8008B778093E8008AC080914E
:102D20007A02813209F085C080917E0290917F0203
:102D3000009719F0029709F07CC08091E800877F26
:102D40008093E8008091E80082FD05C080917802C0
:102D50008111F8CF6EC02091F3008091F20090E0D5
:102D6000922B029731F48091F100813011F086307E
:102D700021F48091F10080936D028091E8008B77BF
:102D800054C080917A02813A09F053C080917E024A
:102D900090917F02892B09F04CC08091E800877FD9
:102DA0008093E8008091E80080FFFCCF80911901BA
:102DB00037C080917A028132E1F580917E02909154
:102DC0007F02892BB1F58091E800877F8093E8002E
:102DD0000E949B2580917C02809319010E9400250E
:102DE00028C080917A02813221F58091E800877FA6
:102DF0008093E8000E949B2580917D0280936C0265
:102E000018C080917A02813AA1F48091E800877F0E
:102E10008093E8008091E80080FFFCCF80916C02F5
:102E20008093F1008091E8008E778093E8000E9403
:102E30009B258091E80083FFDFC180917A02909109
:102E40007B02492F50E04A30510508F0D5C1FA0104
:102E5000E458FF4F0C94F02E803821F0823809F0AE
:102E6000CBC108C08091760290917702992389F0B6
:102E700082600FC080917E028F70873008F0BCC1E5
:102E80008093E9008091EB0085FB882780F9109200
:102E9000E9009091E800977F9093E8008093F1001B
:102EA0001092F10070C1282F2D7F09F0A5C1882351
:102EB00019F0823061F0A0C180917C02813009F06C
:102EC0009BC1933009F080E0809377022EC08091FF
:102ED0007C0281112AC080917E028F702FEF280F13
:102EE000263008F089C18093E9002091EB0020FF93
:102EF0001CC0933021F48091EB00806214C090914B
:102F0000EB0090619093EB0021E030E0A90102C05A
:102F1000440F551F8A95E2F74093EA001092EA00A9
:102F20008091EB0088608093EB001092E900809123
:102F3000E800877F8093E8000E949B255DC1811196
:102F40005BC110917C021F778091E3008078812B18
:102F50008093E3008091E800877F8093E8000E94DF
:102F60009B258091E80080FFFCCF8091E300806882
:102F70008093E300111102C082E001C083E08093DE
:102F800078023AC18058823008F036C120917C0224
:102F900030917D022C3D53E0350779F583E08A833B
:102FA0008AE289834FB7F894DE01139620E03EE071
:102FB00051E2E32FF0E050935700E49120FF03C06B
:102FC000E295EF703F5FEF708E2F90E0EA3010F0E7
:102FD000C79601C0C0968D939D932F5F243149F70A
:102FE0004FBF8091E800877F8093E8006AE270E03D
:102FF000CE0101960E94EF25B4C080917E0290918F
:103000007F02432F552743305105A9F068F4413022
:10301000510509F400C14230510509F0EDC08BE5BE
:1030200090E0EFE0F3E04BC04132510529F142322C
:10303000510589F1E1C0C901992781309105A1F0BD
:1030400058F0029709F0D8C0ECE7F3E0E4918E2F36
:1030500090E0ECE7F3E030C0E6EAF3E0E4918E2F95
:1030600090E0E6EAF3E028C0EAE8F3E0E4918E2F8E
:1030700090E0EAE8F3E020C08330910508F0BCC09E
:10308000880F991FFC01E457FE4F0190F081E02D5D
:1030900089E090E014C08330910508F0ADC0FC01D8
:1030A000EE0FFF1FEA57FE4F0190F081E02DDC018B
:1030B000AD57BE4F8C9190E0009709F49DC02091D0
:1030C000E800277F2093E800209180023091810260
:1030D0002817390708F4C90140E0009789F12091C9
:1030E0007802222309F43DC02530D9F12091E8006F
:1030F00023FD37C02091E80022FD2FC02091E80079
:1031000020FFEBCF4091F3002091F20030E0342B10
:10311000009759F02830310540F444914093F10074
:10312000319601972F5F3F4FF3CF41E028303105B3
:1031300009F040E02091E8002E772093E800CDCF01
:103140004111CDCF0AC080917802882351F085309B
:1031500041F08091E80083FD04C08091E80082FF87
:10316000F2CF8091E8008B778093E80045C08038EB
:1031700009F042C08091E800877F8093E800809149
:1031800079028093F1008091E8008E77D3CE81118F
:1031900033C080917C0290917D029927029764F55B
:1031A0008091E800877F8093E80010917C02109363
:1031B00079020E949B25111106C08091E30087FDD2
:1031C00002C081E001C084E08093780242E061ECBB
:1031D00081E00E94BA2542E261EC84E00E94BA25B7
:1031E00042E261EC82E00E94BA2542E260EC83E0B8
:1031F0000E94BA25809178028091E80083FF10C078
:103200008091E800877F8093E8008091EB008062E6
:103210008093EB0005C082E190E0EAE6F3E04FCF57
:10322000AA960FB6F894DEBF0FBECDBFDF91CF9147
:103230001F9108951F920F920FB60F9211242F9392
:103240003F934F935F936F937F938F939F93AF932E
:10325000BF93CF93DF93EF93FF93C091E900CF70BB
:103260008091EC00D82FD17080FDD0E81092E90059
:103270008091F000877F8093F00078940E9444163C
:103280001092E9008091F00088608093F000CD2BCF
:10329000CF70C093E900FF91EF91DF91CF91BF9183
:1032A000AF919F918F917F916F915F914F913F91DE
:1032B0002F910F900FBE0F901F901895E8EDF0E042
:1032C00080818E7F80831092E2001092DA0010924B
:1032D000E100A0EEB0E08C9181608C9380818F77CB
:1032E000808319BCA7EDB0E08C918E7F8C93808198
:1032F0008F7E808310926B020895CF92DF92EF92BF
:10330000FF920F931F93CF93DF93C8EDD0E0888196
:103310008F7E8883E7EDF0E080818160808384E0A8
:1033200082BF81E080936B0288818E7F888302EE6A
:1033300010E0F80110821092DA0081EEC82ED12C34
:10334000F601108288818F778883888180688883DE
:1033500088818F7D888319BC10927802109279023F
:10336000109277021092760290EEE92EF12CF7017E
:1033700080818B7F808388818160888342E060E0E8
:1033800080E00E94BA25F60180818E7F8083F8015B
:10339000808181608083808188608083F701808163
:1033A0008E7F8083888180618883DF91CF911F9198
:1033B0000F91FF90EF90DF90CF9008951F920F92A2
:1033C0000FB60F9211242F933F934F935F936F93F8
:1033D0007F938F939F93AF93BF93EF93FF938091CE
:1033E000E10082FF09C08091E20082FF05C0809168
:1033F000E1008B7F8093E1008091DA0080FF2AC09A
:103400008091D80080FF26C08091DA008E7F809363
:10341000DA008091D90080FF18C080E189BD82E187
:1034200089BD09B400FEFDCF81E0809378028091D0
:103430006B0281110FC00E945E190E947D1980915C
:10344000E20084608093E20005C019BC109278020B
:1034500010926B028091E10080FF17C08091E20022
:1034600080FF13C08091E2008E7F8093E200809104
:10347000E20080618093E2008091D80080628093B6
:10348000D80019BC85E0809378028091E10084FF28
:1034900030C08091E20084FF2CC080E189BD82E1D0
:1034A00089BD09B400FEFDCF8091D8008F7D809347
:1034B000D8008091E1008F7E8093E1008091E2004E
:1034C0008F7E8093E2008091E20081608093E20031
:1034D00080917902882311F084E007C08091E30095
:1034E00087FD02C081E001C083E080937802809173
:1034F00078028091E10083FF27C08091E20083FF82
:1035000023C08091E100877F8093E10082E0809377
:103510007802109279028091E1008E7F8093E10021
:103520008091E2008E7F8093E2008091E2008061D2
:103530008093E20042E060E080E00E94BA25809142
:10354000F00088608093F000FF91EF91BF91AF9100
:103550009F918F917F916F915F914F913F912F91AB
:103560000F900FBE0F901F9018952091E40030919E
:10357000E50095E64091EC00842F817040FF23C068
:103580008091E80080FD1DC080917802882399F029
:10359000853099F08091EB0085FD11C04091E400E9
:1035A0005091E5002417350729F3915011F09A0145
:1035B000E1CF84E0089582E0089583E0089581E0FA
:1035C000089580E008954091E80042FFDDCF08951E
:1035D000EF92FF920F931F93CF93DF937C018B01A8
:1035E0000E94B51A811119C0E70101151105A1F05A
:1035F0008091E80085FD0AC08091E8008E77809375
:10360000E8000E94B51A882381F307C0899180934E
:10361000F10001501109E9CF80E0DF91CF911F91B6
:103620000F91FF90EF90089580E008959091E2014E
:1036300092FF0DC0282F2871283019F4877F8460ED
:1036400006C0282F2471243011F48B7F886093FFEB
:103650000DC0282F2871283119F4877E846106C097
:10366000282F2471243111F48B7E88612091E3018D
:1036700020FF0DC0382F3871383019F4877F8160F2
:1036800006C0382F3171313011F48E7F886021FFF0
:103690000DC0282F2871283119F4877E816106C05A
:1036A000282F2171213111F48E7E886194FD877E4F
:1036B0000895AF92BF92CF92DF92EF92FF920F9355
:1036C0001F93CF93DF937C015B016A018091C0045B
:1036D0008A3018F001E010E002C00AE010E0C1E01A
:1036E000D0E0F894B501C701F601099578948111ED
:1036F00015C021960C171D0794F0CC9F9001CD9F0B
:10370000300D300D112480E090E045E34A95F1F74B
:103710000000019682179307C1F7E3CF81E0DF91A4
:10372000CF911F910F91FF90EF90DF90CF90BF90BE
:10373000AF900895CF93DF931F92CDB7DEB78091FE
:103740002C05898320918F0230E090E041E028171A
:10375000390709F440E09E012F5F3F4F6CEB74E0A6
:1037600086E00E94FF150F90DF91CF910895CF93CF
:10377000DF931F92CDB7DEB780913202898341E09B
:1037800090918E02981301C040E09E012F5F3F4F41
:1037900068EB74E085E00E94FF150F90DF91CF91F8
:1037A00008956F927F928F929F92AF92BF92CF9225
:1037B000DF92EF92FF920F931F93CF93DF931F92AD
:1037C000CDB7DEB7C62E4A015901682E880F77089B
:1037D000C3010E94702B882309F466C0C30123E053
:1037E000880F991F2A95E1F7FC01E65EFE4F4381A1
:1037F00050E04115510511F041E050E0FC01E65E5A
:10380000FE4F648175816E577D4FCE0101960E94F7
:103810002C2FF40160817181828193810E94842622
:10382000643671058105910538F4B701C8010E941D
:10383000B72899818917D1F10C2C000CDD08C6013D
:103840000E94702B782E8823E1F0E114F104C9F076
:10385000960183E0220F331F8A95E1F7F901E65EB6
:10386000FE4F438150E0E416F50608F4A701F90184
:10387000E65EFE4F648175816E577D4FC5010E94E3
:103880002C2FB701C8010E94B72891E02981281385
:1038900090E0D92ED72089F00E94AF26F4016083F2
:1038A00071838283938309C0D12C02C0DD24D39419
:1038B000A701B801C5010E942C2F8D2D0F90DF911B
:1038C000CF911F910F91FF90EF90DF90CF90BF901D
:1038D000AF909F908F907F906F900895CF92DF92DE
:1038E000EF92FF920F931F93CF93DF9300D000D0FE
:1038F0001F92CDB7DEB76B0185E0E82EF12C03E80F
:1039000012E09E012F5F3F4F4CEA54E061E080E0FF
:103910000E94D11B882349F095E0FE013196A7EA69
:10392000B4E001900D929A95E1F795E0E7EAF4E0B2
:10393000D60101900D929A95E1F70F900F900F909C
:103940000F900F90DF91CF911F910F91FF90EF900B
:10395000DF90CF9008958091A604811118C08091C6
:10396000D80080618093D8008AE18A95F1F700C081
:103970008091D90080FD02C082E001C081E0809387
:10398000A604823021F40E945E191092780281E030
:103990009091A604913009F080E008950F931F9351
:1039A000CF93DF9300D000D0CDB7DEB76091B404E1
:1039B0007091B5048091B6049091B7040E9484265A
:1039C000643671058105910508F441C00E94AB1C65
:1039D000882319F00E94AF260EC00E94AF260091E6
:1039E000D2011091D3012091D4013091D501600F03
:1039F000711F821F931FDC01CB010296A11DB11D17
:103A000089839A83AB83BC8380913B0190913C0175
:103A10008E579D4F40913A0150E04530510510F0CE
:103A200044E050E0BE016F5F7F4F0E942C2F84E086
:103A300090E00E94702B882359F00E94AF2660937B
:103A4000B4047093B5048093B6049093B70481E0F6
:103A50000F900F900F900F90DF91CF911F910F91CA
:103A60000895F894E82FE295EF70F0E031A1282F47
:103A70002F7081E090E001C0880F2A95EAF7982F17
:103A80009095932391A392A1892B82A37894089572
:103A9000CF93DF938238910569F1B0F481339105BA
:103AA00009F46FC048F48932910509F465C08A327F
:103AB000910509F46BC08AC08533910509F457C09C
:103AC00089339105B9F082C0833E910571F138F4D4
:103AD000803E9105B1F0823E910511F177C0863E9E
:103AE0009105B9F1873E9105C9F1843E910509F030
:103AF0006DC024C02091E20120FD53C021FD51C0C2
:103B000065C08091E20180FD46C08091E30180FFA5
:103B100048C08091E20184FD47C183EE90E046C138
:103B20008091E20182FF3AC0F4CF8091E20182FDF0
:103B300035C08091E30180FD34C0EBCF8091E3017B
:103B400081FF35C08091E20184FD2EC187EE90E0B7
:103B50002DC18091E20183FF27C0F4CF8091E20163
:103B600083FD22C08091E30181FD21C0EBCF8091D4
:103B7000E20185FD1FC021C08091E20185FD1DC0CD
:103B800019C08091E20186FD1BC01DC08091E20139
:103B900086FD19C015C089E390E008C182EE90E06F
:103BA00005C180EE90E002C186EE90E0FFC084EE99
:103BB00090E0FCC089E290E0F9C085E390E0F6C0B7
:103BC0008AE290E0F3C081E390E0F0C0811532E535
:103BD000930708F069C0811541E5940728F0982FF4
:103BE0008827816F906AE2C0883E910568F5803E23
:103BF000910508F0DBC0883A9105B8F4853A910543
:103C000048F0855AE82FF0E0EE56FE4F808190E0B4
:103C10009064CCC08130910509F4C3C008F4C4C0DD
:103C20008430910508F4C0C0C1C08F3B910508F0F5
:103C3000BBC0885AE82FF0E0EE0FFF1FEB56FE4F97
:103C4000808191819464B2C0811520E59207F0F0E3
:103C50009C0174E0369527957A95E1F7922F937041
:103C6000482F437021E030E002C0220F331F4A95F5
:103C7000E2F73C68392B8F70982F9695969540E225
:103C8000949FC0011124822B932B90C0811530E4A6
:103C9000930718F09F70906A89C09C013A9521158E
:103CA0003F4108F483C080C0EC01C11586E5D80708
:103CB000E8F5C11525E5D20748F08C2F0E94161BA8
:103CC0008F7190E0982F8827906270C0C11534E5FD
:103CD000D30728F09C2F8827846F906A67C0AE01B5
:103CE000437055272C2F26952695C115D34578F47A
:103CF00081E090E002C0880F991F4A95E2F740E208
:103D0000249F90011124822B932B9C684FC081E04B
:103D100090E002C0880F991F4A95E2F740E2249F85
:103D200090011124822B932B9A6840C0C11529E57C
:103D3000D20788F4C11538E5D30728F09C2F8827CF
:103D4000806F906A33C0C11547E5D40768F5CE018E
:103D5000992790662BC0C1158AE5D80790F48C2F5F
:103D60008F700E94161B94E0D695C7959A95E1F73F
:103D7000CF70D0E0DC2FCC27D0699E01282BC90161
:103D800015C0CE0190568115904270F48D2F8F7121
:103D90000E94161B282F2F71CE0199279062922B1B
:103DA00005C081E090E002C080E090E0DF91CF911B
:103DB00008950C94AF26CF92DF92EF92FF920F936B
:103DC0001F93CF93DF931F92CDB7DEB7EE24E3941A
:103DD000F12C09E812E09E012F5F3F4F40EB54E0C9
:103DE00063E082E00E94D11BC82E8823C9F10091B4
:103DF000E401802F90E09C01235D3D4F7901198102
:103E0000F9018081181BD12E80E01D1484F4DA940E
:103E1000F70180818F5F8083011102C08AEA03C0AD
:103E2000013019F48BE40E941C2581E0EECF912F24
:103E300017FD90E0191B112381F01F5FF7018081AE
:103E400081508083011102C089EA03C0013019F456
:103E50008EE40E941C2581E0EECF81110E94D91EC4
:103E60008C2D0F90DF91CF911F910F91FF90EF90CC
:103E7000DF90CF900895CF9384E090E00E943D2C96
:103E8000C82F82E290E00E943D2C2C2F30E0A90147
:103E9000582BCA01CF9108957F928F929F92AF9233
:103EA000BF92CF92DF92EF92FF920F931F93CF9327
:103EB000DF93CDB7DEB72F970FB6F894DEBF0FBEF6
:103EC000CDBF9E012F5F3F4F79018AE0D9011D923E
:103ED0008A95E9F70EE511E0690183E6A82E81E0F5
:103EE000B82E88248394912CF80180818F3F09F4A7
:103EF00041C0F894E82FE295EF70F0E021A18F70B7
:103F0000A40102C0440F551F8A95E2F7CA01922FFF
:103F1000982B91A392A18095892382A3789400C0C5
:103F2000E3E6F1E0712C31E021912F3F89F0A22FDF
:103F3000A295AF70B0E090968C9190E02F7002C087
:103F4000959587952A95E2F780FD02C0832F01C0E1
:103F500080E0782A330F51E0E936F50729F7D801D8
:103F60008C918F3F11F00E94311DB0EABA95F1F7A4
:103F7000F60170820F5F1F4FFFEFCF1ADF0AA01606
:103F8000B10609F0B1CF4AE050E0B70186ED91E00B
:103F90000E941F2F8C01892B41F08AE0F701A6EDCA
:103FA000B1E001900D928A95E1F7F090E1010115E1
:103FB000110549F081E080939E040E94BB269093F6
:103FC0009D0480939C0480919E048823B9F0809185
:103FD0009C0490919D040E94A026059778F0A6ED80
:103FE000B1E0EF2DF0E0EF59FD4F8BED91E02D9119
:103FF00021938A179B07D9F710929E04011511058A
:1040000009F0E1C00E94AB1CE091E1019E01255F37
:104010003F4F7901882309F46DC085E0D9011D92D5
:104020008A95E9F70E2F10E00F591D4F8091C004BB
:104030008A3048F44EE65CE1B701C8010E94591B82
:10404000882359F10AC080919F049091A0040E9496
:10405000A026843F914070F732C04BED5EE1B7017E
:10406000C8010E94591B8823C1F04EEC5CE1B701E6
:10407000C8010E94591B882381F047EB5BE1B7011F
:10408000C8010E94591B882341F04AE95BE1B7014E
:10409000C8010E94591B811199C08091C0048F3FB3
:1040A00019F08F5F8093C0048091C0048A3008F4B7
:1040B0008FC00E94BB269093A00480939F048091A0
:1040C000A504811102C000E094C085E0F7011192BF
:1040D0008A95E9F71092A504A091E001B0E0AF59EC
:1040E000BD4F85E0FE013B9601900D928A95E1F768
:1040F00001E07FC0F0E0EF59FD4FF89485E0A3E8C0
:10410000B2E001900D928A95E1F765E070E083E8F6
:1041100092E00E94B728809382027894F894E0910C
:104120003002F0E0E35DFD4F80818B878093890250
:1041300061E070E0C7010E94B728809388027894FC
:10414000F894C0908A02D0908B02E0908C02F0909C
:104150008D028091A1049091A204A091A304B0913A
:10416000A404C816D906EA06FB06D1F0C092A10441
:10417000D092A204E092A304F092A4040E94AB1C8B
:1041800081110EC00E94AF26C61AD70AE80AF90AA2
:10419000C092D201D092D301E092D401F092D50125
:1041A0007894F89480918E02809332027894F894F7
:1041B00080918F02882319F00E944A2802C00E9431
:1041C0003028789416C001E010E013C01092C004AB
:1041D0008091E00190E045E050E0B7018F599D4F9C
:1041E0000E941F2F21E02093A504892B09F074CF92
:1041F0006ACF802F2F960FB6F894DEBF0FBECDBFCB
:10420000DF91CF911F910F91FF90EF90DF90CF90B2
:10421000BF90AF909F908F907F90089569EE7EEF52
:1042200080E090E00E94692C60E082E090E00E94D3
:104230004B2C60E083E090E00E944B2C109227050D
:1042400060E084E090E00E944B2C60E082E290E02D
:104250000E944B2C60E085E090E00E944B2C60E0D7
:1042600086E090E00E944B2C6FEF87E090E00E9488
:104270004B2C40E050E0BA0188E090E00E945D2CB9
:1042800060E08DE090E00E944B2C40E050E0BA01ED
:1042900088E190E00E945D2C60E087E190E00E9460
:1042A0004B2C40E050E0BA018CE190E00E945D2C84
:1042B00060E070E080E290E00E94692C40E050E015
:1042C000BA0188E190E00E945D2C80E00E94D22833
:1042D0000E94F02840E050E0BA018FE090E00E9498
:1042E0005D2C40E050E0BA0183E190E00C945D2C3D
:1042F0008091260581111092260508958095909150
:1043000025058923809325050895909125058091A1
:104310002405982B9093C10480912605882389F069
:10432000892B8093C104E3ECF4E097E080E09150A6
:1043300029F021912223D9F38F5FF9CF81110E94B7
:10434000782148E050E06CE175E081EC94E00E9457
:104350001F2F892BA9F088E0E1ECF4E0ACE1B5E097
:1043600001900D928A95E1F7E0913305F0913405C3
:10437000309731F00280F381E02D81EC94E00994D4
:10438000089580E090E00E94202780E090E00E9465
:104390000A27109224050C94852180911A0590918A
:1043A000E904891719F08F5F8770FBCF08950F9389
:1043B0001F93CF93DF938091E80482958F7009F06B
:1043C0005DC08091E504882309F458C080911A05E6
:1043D0001091E9046091E3047091E404C091E60453
:1043E000D091E70491E06F3F09F090E0292F06E0BB
:1043F000811709F443C0209721F07F3F21F030E07E
:1044000003C031E001C0322F90E030FD34C0089F7E
:10441000F001099FF00D1124DF01A651BB4F119649
:104420003C911197371327C03C91361324C0129644
:104430003C91129731111FC013964D915C911497C6
:104440004C1B5D0B44365105B0F48091E8048F702D
:1044500080618093E804E151FB4F80818F7080611F
:10446000808383EE94E00E94F806DF91CF911F9144
:104470000F910C94CD2101968770BACFDF91CF9127
:104480001F910F910895CF92DF92FF920F931F9388
:10449000CF93DF936C010091900280912705082B48
:1044A000C7E0D0E010E0C8010C2E02C095958795BA
:1044B0000A94E2F780FD04C02197A8F7F12C09C007
:1044C000FC2EB6018C2F0E9423280E94481D0197C4
:1044D00099F38F2DDF91CF911F910F91FF90DF9076
:1044E000CF900895CF93DF93EC010E944322BE0149
:1044F0000E9423280E94481DDF91CF910895FC015E
:10450000808191810E94722292959F70963079F0FD
:1045100010F4925001C09A50923068F4803F69F0D4
:1045200018F4883E40F409C0843F29F406C0883E50
:1045300020F0813F11F080E0089581E008959F927E
:10454000AF92BF92CF92DF92EF92FF920F931F93A1
:10455000CF93DF93CDB7DEB761970FB6F894DEBF88
:104560000FBECDBF8C0185E0F801DE011D960190E4
:104570000D928A95E1F7F801E2809091E304609151
:10458000E4044091E6045091E7044115510531F0EF
:104590006F3F31F481E09F3F19F403C081E001C017
:1045A00080E0F82FF1709F2E80FD1AC1F801308154
:1045B0002181C380D48083EEA82E84E0B82EF090B1
:1045C000E504F601E41BF50BFF2009F4C6C0809159
:1045D000E804E436F10508F091C0482F407F09F067
:1045E00050C0621311C093130FC0FE2CE1100CC019
:1045F0008F7080618093E804C5010E94F806809165
:10460000E804F801858337C1CD2831F02F3F31F41C
:1046100081E03F3F19F403C081E001C080E080FDEC
:1046200003C081E08E2502C080E090E0F82FF17099
:10463000FF2E80FF1CC080911A054091E90456E0CE
:10464000841709F4F6C090E0589FF001599FF00DCF
:104650001124E651FB4F6181261306C0608163136C
:1046600003C06281E61203C001968770E9CFFE2C79
:10467000EE2009F400C18091E80481608093E80491
:1046800049C0621306C0931304C0E11002C0F801D0
:1046900086C0C8010E947F22882351F1EE2041F19B
:1046A0002091E804822F82958F7090E0029774F039
:1046B0008091E3049091E40498878F831986DB86C8
:1046C000CA862C87CE0107960E94F80686E0F8017C
:1046D000A3EEB4E001900D928A95E1F70E94D721F4
:1046E0000AC06217C9F0C8010E947F2281111EC052
:1046F000C8010E94F806FF24F394BDC0482F407FF4
:1047000081F783EE94E00E94F80686E0F5011192AD
:104710008A95E9F7F12CAFC09313E5CFE110E3CF11
:10472000F8018583C8010E94F80654C0EE2001F309
:104730002091E804822F82958F7090E0029734F2E6
:104740008091E3049091E4049A8389831B82DD8243
:10475000CC822E83CE010196B7CFE436F105D0F599
:10476000FE2CEE2029F2621327C0931325C020915E
:10477000E80420FD18C0822F82958F70482F50E0EA
:104780004115510581F0F80125834F30510541F065
:104790008F5F982F9295907F822F8F70892B8583C2
:1047A000C8010E94F80686E0F801A3EEB4E001908B
:1047B0000D928A95E1F75FC0C8010E947F228111A6
:1047C00085CF8091E80481608093E804C8010E944D
:1047D000F80651C086E0F50111928A95E9F74BC0C1
:1047E000EE2009F485CFC8010E947F22F82E88238D
:1047F00009F47ECF86E0F801A3EEB4E001900D92BB
:104800008A95E1F78091E3049091E4040E9472227A
:1048100092959F70963051F4863F41F08091E2046A
:1048200091E089278093E2049093E1040E94D721CC
:1048300022C03D872E878D859E850E947222292F5A
:1048400022952F70223028F49F7039F0811105C015
:104850000BC0243028F49F7049F4805E883020F02B
:10486000C8010E94F8069F2CF92C05C0F80195811B
:10487000907F99F7F9CF8F2D61960FB6F894DEBF30
:104880000FBECDBFDF91CF911F910F91FF90EF90A1
:10489000DF90CF90BF90AF909F900895292F220F67
:1048A000920F990F890F682F669566956695982FD8
:1048B000977083E0689FB001112440E050E080E0F1
:1048C000FB01E40FF51FE753FB4F208130E0092E79
:1048D00002C0369527950A94E2F721703327042EFB
:1048E00001C0220F0A94EAF7822B4F5F5F4F4330DB
:1048F000510531F70895292F220F920F990F890F33
:10490000E82FE695E695E695877051E001C0550FD2
:104910008A95EAF783E0E89FF0011124E753FB4F03
:1049200020E030E070E04081CB01022E02C096957D
:1049300087950A94E2F781708195842785238427DF
:1049400081932F5F3F4F2330310569F7089580939E
:1049500090020C94C12121E030E001C0220F8A9521
:10496000EAF720958091900282230C94A72420914D
:104970001B058095822380931B05982F977099F4CF
:1049800030E0482F082E000C550B2417350759F03E
:104990009091E30192FD07C08595859585950E94CC
:1049A000AB2410921B050895CF93C091E301C2FB85
:1049B000992790F9981799F080FBC2F9C093E30109
:1049C0006091E20184E090E00E944B2C6C2F82E227
:1049D00090E00E944B2C82E0CF910C94B724CF91B1
:1049E000089521E030E001C0220F8A95EAF7809116
:1049F0009002822B0C94A724809327050C94C1214C
:104A00001092250586E0E3ECF4E0DF011D928A9523
:104A1000E9F70C94C121882321F00E947E210C9497
:104A200085210895882339F090912505892B80935D
:104A300025050C94852108951F93CF93DF93182F9C
:104A4000893319F0CAE0D0E002C0C0E5D0E0812F80
:104A50000E94B7058FE99FE00197F1F700C00000C1
:104A60002197C1F7812FDF91CF911F910C9486057B
:104A70000895089580916D02089580933C05709388
:104A80003E0560933D05809178028430F9F480936F
:104A9000E9008FEF9091E800815095FD06C095EDFB
:104AA0009A95F1F700008111F5CF8091E80085FF1C
:104AB0000DC040E050E063E070E08CE395E00E94C0
:104AC000E81A8091E8008E778093E8000895BC0191
:104AD00084E00C943D25BC0183E00C943D25CF93EC
:104AE000DF9321E02093E9002FEF3091E80021507F
:104AF00035FD06C035ED3A95F1F700002111F5CFEF
:104B00002091E80025FF14C0EC0140E050E068E08F
:104B100070E00E94E81A8091E8008E778093E800A8
:104B200088E0FE01AEE6B2E001900D928A95E1F7D1
:104B3000DF91CF91089580917A0287FF11C0809113
:104B4000E80082FD05C0809178028111F8CF11C084
:104B50008091E8008B770BC080917802882349F020
:104B60008091E80080FFF8CF8091E8008E778093F5
:104B7000E8000895982F973068F59093E90098170A
:104B800039F07091EC002091ED005091F00003C0DD
:104B9000242F762F50E021FD02C09F5FECCF309193
:104BA000EB003E7F3093EB003091ED003D7F309382
:104BB000ED003091EB0031603093EB007093EC002E
:104BC0002093ED005093F0002091EE0027FDE5CFFB
:104BD00080E008958F708093E90081E0089520912E
:104BE0008002309181022617370748F06115710560
:104BF00039F42091E8002E772093E80001C0B90134
:104C0000FC0120E06115710579F18091780288231B
:104C1000F1F18530F1F18091E80083FD3CC0809195
:104C2000E80082FD2EC08091E80080FFEBCF20914C
:104C3000F3008091F20090E0922B6115710551F024
:104C40008830910538F421912093F1006150710969
:104C50000196F3CF21E0089709F020E08091E80069
:104C60008E778093E800CECF2111CFCF0AC08091FC
:104C70007802882361F0853061F08091E80083FD3F
:104C80000AC08091E80082FFF2CF80E0089582E0C0
:104C9000089583E0089581E0089587E797E790936A
:104CA0000108809300089AE088E10FB6F894A8956F
:104CB000809360000FBE90936000FFCF78941F92A6
:104CC0000F920FB60F9211248F939F93AF93BF93C0
:104CD0008091380590913905A0913A05B0913B0536
:104CE0000196A11DB11D8093380590933905A093BD
:104CF0003A05B0933B05BF91AF919F918F910F9073
:104D00000FBE0F901F901895CF92DF92EF92FF92F7
:104D10002FB7F894C0903805D0903905E0903A0547
:104D2000F0903B052FBFA7019601261B370B480BC0
:104D3000590BCA01B901FF90EF90DF90CF90089511
:104D40009C014FB7F8948091380590913905A09156
:104D50003A05B0913B054FBF821B930B08952FB7C7
:104D6000F894609138057091390580913A059091D9
:104D70003B052FBF08952FB7F89480913805909187
:104D80003905A0913A05B0913B052FBF08951F92B8
:104D90000F920FB60F9211248F939F93AF93BF93EF
:104DA00080913705811113C08091380590913905A4
:104DB000A0913A05B0913B054196A11DB11D80938C
:104DC000380590933905A0933A05B0933B05BF9100
:104DD000AF919F918F910F900FBE0F901F901895DC
:104DE0009C01FC0132969FEF80E04191461789F0CB
:104DF0009F3F19F4411101C0982F8F5F8630A9F7AA
:104E00009F3F39F0F901E90FF11D97FDFA95628393
:104E100008950895209135053091360528173907F2
:104E200071F09093360580933505E0913305F0914C
:104E30003405309721F00084F185E02D0994089520
:104E400020913105309132052817390771F0909380
:104E5000320580933105E0913305F09134053097A8
:104E600021F00680F781E02D099408950E94AB1C83
:104E7000882351F0E0913305F0913405309721F00B
:104E80000190F081E02D099480E008950F931F9325
:104E9000CF93DF93C42FD22FFC0182818823C9F0E6
:104EA000409330050E94BB2690932F0580932E05DA
:104EB00080E28C0F883008F057C0C77081E001C0D5
:104EC000880FCA95EAF7DF91CF911F910F910C944B
:104ED000122580913005481330C080912E059091A5
:104EE0002F050E94A0268436910538F510E21D0F8B
:104EF000CD17B9F080E28C0F883040F4C77081E0A4
:104F000001C0880FCA95EAF70E940B25183028F5D2
:104F100081E09D2F977001C0880F9A95EAF70E9453
:104F20001225802F0E941C251830F0F4D77081E0E4
:104F300001C0880FDA95EAF70AC080E28C0F88304A
:104F400098F4C77081E001C0880FCA95EAF7DF9135
:104F5000CF911F910F910C940B25802FDF91CF9152
:104F60001F910F910C941C25DF91CF911F910F91F0
:104F70000895CF93DF93C7E0D2E060E0CE010E94B6
:104F80004B2C2196C11584E0D807B9F7DF91CF915A
:104F90000895CF92DF92EF92FF920F931F93CF93DA
:104FA000DF93C0E0D0E08E0108581F4F6E018CE007
:104FB000C80ED11CFE01E251F74FE590F4906F2D21
:104FC000CE0187960E944B2C6E2DCE0188960E94B2
:104FD0004B2C2296CC15DD0569F70C171D0731F710
:104FE000E801003E1140F9F6DF91CF911F910F913A
:104FF000FF90EF90DF90CF9008950F931F93CF9382
:10500000DF93C42FD0E0CC0FDD1F2CE0629FC00DDA
:10501000D11D112438E7839FC00DD11D1124CE016D
:1050200087960E943D2C082F10E0102F0027CE01FC
:1050300088960E943D2C9801282BC901DF91CF91C1
:105040001F910F910895462F843038F47A3028F458
:10505000663018F4672F0C94FD2780E090E00895E7
:1050600080912D0590912C05882389F0992369F072
:1050700062E070E08CEE98E00E94D615892B19F062
:1050800080912C05089510922C0590912C0581E0BB
:105090008927089580912D058823F9F00E94AF2675
:1050A000DC01CB01805E914BAF4FBF4F8093280551
:1050B00090932905A0932A05B0932B0580912C0588
:1050C00081110BC062E070E08AEE98E00E94D61574
:1050D000892B19F481E080932C0580912C0508958B
:1050E000CF93E82F20919A0430919B0424593240A9
:1050F00040919102642F70E0C9010E94EB2B481B84
:10510000842FEE2351F066E00E948F2EC82FC150ED
:10511000A8F080E20E94E814FACFA901480F511DBF
:105120004115524018F080E020E030E0280F311D9A
:105130002C563D4F30939B0420939A04CF910895B1
:105140002091910236E0839FC0011124629F800D5F
:10515000911D1124811522E0920714F080E090E067
:105160008C569D4F90939B0480939A040895FC0164
:10517000680F791F8FEF91E3E617F70771F0219120
:10518000822728E030E087FF03C0880F892701C00D
:10519000880F21503109B9F7EFCF089586E290E0EA
:1051A0000C944B2CCF93C82F811102C06FEF01C01C
:1051B00062E283E290E00E944B2CC11102C06FEFCB
:1051C00001C061E084E290E00E944B2CC11102C05A
:1051D0006FEF01C060E285E290E0CF910C944B2C20
:1051E00080E00E94D22860E070E0CB010E94CE28CF
:1051F0000E94C9270E94B92781E00C94D22883E23B
:1052000090E00E943D2C823281F484E290E00E9482
:105210003D2C813051F485E290E00E943D2C91E0DC
:10522000803209F090E0892F01C080E081700895FC
:105230001092B9008CE08093B80008959F92AF92CD
:10524000BF92CF92DF92EF92FF920F931F93CF9373
:10525000DF93B82EEB010E94BB266C01C431D1054F
:1052600058F0CF3F8FEFD80759F0CE0164E170E0DE
:105270000E94EB2B7B0107C0EE24E394F12C03C0CA
:1052800025E0E22EF12C84E8A82E94EA992E1092C3
:10529000BC009092BC000E94BB268C018091BC0097
:1052A00087FD08C00E94BB26801B910B8E159F05B1
:1052B000A8F32AC08091B900887F883041F080919E
:1052C000B900887F803119F00FEF1FEF1FC0B09237
:1052D000BB00A092BC000E94BB268C018091BC0048
:1052E00087FD08C00E94BB26801B910B8E159F0571
:1052F000A8F30AC08091B900887F883111F080340A
:1053000019F700E010E00EC00EEF1FEFCF3F8FEF58
:10531000D80709F4BCCFC6010E94A0268C179D07B0
:1053200008F4B5CFC801DF91CF911F910F91FF9085
:10533000EF90DF90CF90BF90AF909F9008950F9324
:105340001F93CF93DF93EB018093BB0084E880939E
:10535000BC000E94BB268C018091BC0087FD0EC062
:10536000CF3F8FEFD807C1F30E94BB26801B910B64
:105370008C179D0788F38EEF9FEF0CC02091B9002A
:10538000287F81E090E0283211F480E090E0919550
:1053900081959109DF91CF911F910F910895CF923F
:1053A000DF92EF92FF920F931F93CF93DF936B01E6
:1053B0008A017901B9010E941E29E6010C0D1D1D0B
:1053C000C017D10761F424E92093BC00DF91CF918D
:1053D0001F910F91FF90EF90DF90CF90089597FD70
:1053E000F2CFB70189910E949F29EACFCF92DF9235
:1053F000EF92FF920F931F93CF93DF93C62F6A0113
:105400007901B8010E941E2997FD11C0B8018C2FA7
:105410000E949F29E601EC0CFD1CCE15DF0539F03A
:1054200097FD05C0B80189910E949F29F6CF24E914
:105430002093BC00DF91CF911F910F91FF90EF90CF
:10544000DF90CF90089584E98093BC0008958EE1A9
:105450004A9B02C08150E1F74A9BFECF08955A98BB
:1054600080E28A95F1F75A9A0895FC012AE02A957C
:10547000F1F728E090E080E031E040E14A95F1F773
:10548000880F4A9B02C08160932700C0000040E162
:105490004A95F1F7215089F720E12A95F1F729B1D2
:1054A00000C0000030E13A95F1F722FB222720F9F5
:1054B00092272081920F90830895EF92FF920F938D
:1054C0001F93CF93DF931F92CDB7DEB719828C0164
:1054D0007C01E60EF11C0E151F0551F00E94272AD3
:1054E000CE0101960E94352AF80181938F01F3CFF6
:1054F00081E09981911180E00F90DF91CF911F9110
:105500000F91FF90EF900895529A5A9A08955298E9
:105510005A9AEA9AE9E6F0E080818F7C80830895C8
:10552000615091E001C0990F6A95EAF720E031E0FF
:10553000992361F0492F482319F05A9A232701C073
:105540005A9840E24A95F1F79695F2CF222311F04E
:105550005A9A01C05A9880E28A95F1F75A980895AC
:10556000FF920F931F93CF93DF93EC018C01060FF3
:10557000111DC017D10741F0F9900E942F2A68E051
:105580008F2D0E94902AF5CFDF91CF911F910F911F
:10559000FF9008951F920F920FB60F9211240F9350
:1055A0001F932F933F934F935F936F937F938F93AB
:1055B0009F93AF93BF93EF93FF93CF93DF931F928C
:1055C000CDB7DEB719820E94272ACE0101960E942C
:1055D000352A082F069506950695902F9695957075
:1055E000202F2570920F292F237096959695920F54
:1055F000877089135FC0898181115CC0083008F011
:1056000059C080E18A95F1F75A9A529A82E08A95B8
:10561000F1F700C05A9888E0089F80011124D80152
:10562000A65EBE4F1696ED91FC9117973097A9F0A4
:10563000609181017091820114962D913C91159792
:10564000260F371F11968D919C911297680F791F25
:1056500013964C9113978C910995F801E65EFE4FD5
:105660006381662351F080918101909182012481B0
:105670003581820F931F0E94B02A0E942F2A80E159
:105680008A95F1F75A9852985A9A80E18A95F1F7DB
:10569000F801E65EFE4F6081662351F08091810142
:1056A0009091820121813281820F931F0E945D2A95
:1056B0000E94272A0F90DF91CF91FF91EF91BF9128
:1056C000AF919F918F917F916F915F914F913F919A
:1056D0002F911F910F910F900FBE0F901F90189553
:1056E0000F931F93CF93DF93883091050CF06DC01B
:1056F000EC01F894529A5A9885E08A95F1F70000E7
:105700009C2F969595702C2F2570920F892F837062
:105710009695969523E0CC0FDD1F2A95E1F7980F1B
:105720008E01092B0E942F2A84E08A95F1F700C090
:1057300068E0802F0E94902A80E18A95F1F75298C4
:105740005A9A4A9902C000C0FCCF87E090E04A9B79
:1057500008C0019721F4529A5A9A789436C000C032
:10576000F6CFFE01E65EFE4F6381662381F08091F5
:1057700081019091820124813581820F931F0E94C3
:105780005D2A811104C0529A5A9A78941FC00E94CF
:10579000272A80E28A95F1F75A98529A80E18A95F1
:1057A000F1F7C65EDE4F6881662351F0809181017A
:1057B0009091820129813A81820F931F0E94B02A21
:1057C0000E942F2A789481E001C080E0DF91CF9180
:1057D0001F910F910895AA1BBB1B51E107C0AA1F7F
:1057E000BB1FA617B70710F0A61BB70B881F991F82
:1057F0005A95A9F780959095BC01CD010895FB01BC
:10580000DC0102C005900D9241505040D8F7089538
:10581000BB274A3031F4992322F4BDE2909581955B
:105820009F4F0C94142CBB27FB015527AA27880FE8
:10583000991FAA1FA41710F0A41B83955051B9F704
:10584000A05DAA3308F0A95DA193009779F7B11183
:10585000B1931192CB010C942D2CDC01FC01672F2C
:1058600071917723E1F7329704C07C916D93708337
:105870006291AE17BF07C8F30895F999FECF92BDA4
:1058800081BDF89A992780B50895A8E1B0E042E07B
:1058900050E00C94712C262FF999FECF92BD81BD5A
:1058A000F89A019700B4021639F01FBA20BD0FB65E
:1058B000F894FA9AF99A0FBE08950396272F0E943A
:1058C0004C2C0E944B2C252F0E944C2C242F0C94E6
:1058D0004C2C0196272F0E944C2C0C944B2CDC0155
:1058E000CB01FC01F999FECF06C0F2BDE1BDF89AEB
:1058F000319600B40D9241505040B8F70895505879
:10590000BB27AA270E94972C0C94E82D0E94DA2D21
:1059100038F00E94E12D20F039F49F3F19F426F46D
:105920000C94D72D0EF4E095E7FB0C94D12DE92FC4
:105930000E94F92D58F3BA17620773078407950779
:1059400020F079F4A6F50C941B2E0EF4E0950B2EA6
:10595000BA2FA02D0B01B90190010C01CA01A001C1
:105960001124FF27591B99F0593F50F4503E68F11C
:105970001A16F040A22F232F342F4427585FF3CF5D
:10598000469537952795A795F0405395C9F77EF42E
:105990001F16BA0B620B730B840BBAF09150A1F077
:1059A000FF0FBB1F661F771F881FC2F70EC0BA0FFD
:1059B000621F731F841F48F4879577956795B79585
:1059C000F7959E3F08F0B0CF9395880F08F0992780
:1059D000EE0F9795879508950E94002D0C94E82D61
:1059E0000E94E12D58F00E94DA2D40F029F45F3F2B
:1059F00029F00C94D12D51110C941C2E0C94D72D00
:105A00000E94F92D68F39923B1F3552391F3951B67
:105A1000550BBB27AA2762177307840738F09F5FCF
:105A20005F4F220F331F441FAA1FA9F335D00E2E3C
:105A30003AF0E0E832D091505040E695001CCAF7A9
:105A40002BD0FE2F29D0660F771F881FBB1F26176C
:105A500037074807AB07B0E809F0BB0B802DBF0143
:105A6000FF2793585F4F3AF09E3F510578F00C9412
:105A7000D12D0C941C2E5F3FE4F3983ED4F3869511
:105A800077956795B795F7959F5FC9F7880F911D33
:105A90009695879597F90895E1E0660F771F881F1F
:105AA000BB1F621773078407BA0720F0621B730BD2
:105AB000840BBA0BEE1F88F7E09508950E94652DC0
:105AC0006894B1110C941C2E08950E94012E88F048
:105AD0009F5798F0B92F9927B751B0F0E1F0660FB2
