:100000000C9467050C9484050C9484050C94152BB2
:100010000C9484050C9484050C9484050C9484053C
:100020000C9484050C9484050C94401A0C947C194F
:100030000C9429270C9484050C9484050C94840555
:100040000C9484050C9484050C9484050C9484050C
:100050000C9484050C94C0260C9484050C9484059F
:100060000C9484050C9484050C9484050C948405EC
:100070000C9484050C9484050C9484050C948405DC
:100080000C9484050C9484050C9484050C948405CC
:100090000C9484050C9484050C9484050C948405BC
:1000A0000C9484050C9484050C948405F00AF00AE1
:1000B000240B240B920B370DC00C370DB40B270CFF
:1000C0003A0C3A0CCD0CFA0CD50CD80CE10CDB0C2C
:1000D000E40CDF13E21300140D1414143414DE14B2
:1000E000DE14DE14DE14DE14371439143E146714E3
:1000F0008D1490149314BA148E17B5175E19B51792
:100100005E19011824185E1919192919000501052D
:10011000020503050405050500060106020603069F
:100120000406050600070107020703070407050781
:10013000000801080208030804080508000901096D
:100140000209030904090509000001000200030077
:100150000400050000010101020103010401050181
:10016000000201020202030204020502000301036D
:10017000020303030403050300040104020403044F
:10018000040405040000000000000000000000005E
:10019000000000000000000000000000000000005F
:1001A00000000000000000007E0F00D4FFFFFFC72A
:1001B0000000007800000000000000002A2B28004A
:1001C0000000000000000000000000000000002906
:1001D000000000002C1E3420212224342627252E46
:1001E000362D3738271E1F2021222324252633337E
:1001F000362E37381F0405060708090A0B0C0D0EAA
:100200000F101112131415161718191A1B1C1D2F75
:100210003130232D350405060708090A0B0C0D0E95
:100220000F101112131415161718191A1B1C1D2F55
:100230003130354C00DA028132D9F1DB20A4A62E10
:10024000AF00A0C000A1C800AED580A81FD3004059
:100250008D142000556E646566004C575200525351
:10026000450042617365000A0A006C7972004741DB
:100270004D450071777274000A0A0005010980A1DA
:1002800001850319012AB700150126B700950175EC
:10029000108100C0050C0901A101850419012AA0E3
:1002A00002150126A002950175108100C00660FFAD
:1002B0000961A1010962150026FF009520750881DA
:1002C000020963150026FF00952075089102C005FC
:1002D000010906A101050719E029E7150025019587
:1002E000087501810295017508810105071900292A
:1002F000FF150026FF009506750881000508190105
:100300002905950575019102950175039101C009B3
:10031000025B00030100A0FA0904000001030101CF
:100320000009211101000122400007058103080096
:10033000010904010002030000000921110100016C
:100340002222000705820320000107050303200085
:10035000010904020001030000000921110100014C
:100360002232000705840320000112010002000070
:10037000000832FC87020100010200010C03530057
:100380006F0066006C00650000001A034A006F00F1
:100390007300650066004100640061006D00630049
:1003A00069006B0000000403090407087F080700C8
:1003B0003E5B4F5B3E003E6B4F6B3E001C3E7C3E07
:1003C0001C00183C7E3C18001C577D571C001C5E0E
:1003D0007F5E1C0000183C180000FFE7C3E7FF0029
:1003E000001824180000FFE7DBE7FF0030483A065A
:1003F0000E00262979292600407F05050700407F49
:1004000005253F005A3CE73C5A007F3E1C1C080073
:10041000081C1C3E7F0014227F2214005F5F005FD7
:100420005F0006097F017F00006689956A006060B1
:100430006060600094A2FFA2940008047E0408009B
:1004400010207E20100008082A1C0800081C2A081A
:1004500008001E10101010000C1E0C1E0C0030386E
:100460003E383000060E3E0E060000000000000080
:1004700000005F000000000700070000147F147FE9
:100480001400242A7F2A12002313086462003649CC
:1004900056205000000807030000001C2241000005
:1004A0000041221C00002A1C7F1C2A0008083E086C
:1004B00008000080703000000808080808000000EC
:1004C000606000002010080402003E5149453E00D3
:1004D00000427F4000007249494946002141494D90
:1004E00033001814127F10002745454539003C4A57
:1004F000494931004121110907003649494936006F
:10050000464949291E000000140000000040340044
:1005100000000008142241001414141414000041B7
:10052000221408000201590906003E415D594E009F
:100530007C1211127C007F49494936003E414141FD
:1005400022007F4141413E007F49494941007F09E6
:10055000090901003E41415173007F0808087F00EE
:1005600000417F4100002040413F01007F081422EC
:1005700041007F40404040007F021C027F007F041A
:1005800008107F003E4141413E007F0909090600F5
:100590003E4151215E007F091929460026494949FB
:1005A000320003017F0103003F4040403F001F2015
:1005B00040201F003F4038403F0063140814630090
:1005C0000304780403006159494D4300007F414111
:1005D0004100020408102000004141417F00040254
:1005E00001020400404040404000000307080000B2
:1005F0002054547840007F28444438003844444410
:100600002800384444287F00385454541800000807
:100610007E09020018A4A49C78007F0804047800D6
:1006200000447D4000002040403D00007F102844F1
:10063000000000417F4000007C04780478007C08C2
:1006400004047800384444443800FC18242418007A
:1006500018242418FC007C0804040800485454544E
:10066000240004043F4424003C4040207C001C2023
:1006700040201C003C4030403C00442810284400EE
:100680004C9090907C004464544C440000083641E7
:100690000000000077000000004136080000020161
:1006A000020402003C2623263C000000000000005B
:1006B000404040F0F8F8FF38FFF8F83FF8F8FF380E
:1006C000FFF8F8F040404000000000000080C0C08B
:1006D000C0800000C0C08000000080C0C000C0C05A
:1006E000000080C0C00000000000C0C0C0C0C0004A
:1006F000C0C000000000000000000000000000007A
:1007000000000000000000000000000000000000E9
:1007100000000000000000000000000000000000D9
:10072000000000000000000000C0F0F8FC3E1E06C3
:10073000010000007F4141417F007F4141417F0036
:100740000080C0E07E5B4F5BFEC00000C000DCD7D5
:10075000DEDEDED7DC00C00000000000000000008C
:100760000000000000000000000000000000000089
:10077000494949FFFFFFFFE0DFBFBF00BFBFDFE028
:10078000FFFFFFFF49494900000000001F3F606074
:10079000E0BF1F007F7F071E381E077F7F007F7F1F
:1007A0000E1F3B716000000000007F7F0C0C0C00EE
:1007B0007E7E007F7E0303007F7E03037E7E030335
:1007C0007F7E000F3E703C063C703E0F00327B493E
:1007D000493F7E007F7E0303001E3F69696F26004C
:1007E000000000000000000000030F1F3F3C787075
:1007F000600000007F4141417F007F4141417F0017
:10080000307B7F7830202030787F3B0003000F7FE3
:100810000F0F0F7F0F00030000000000000000001A
:1008200000000000000000000000000000000000C8
:10083000010101070F0F7F0F7F0F0F7E0F0F7F0F3B
:100840007F0F0F0701010100000000000000000001
:100850000001010000000000000000000000000096
:100860000000000000000000000000000000000088
:100870000000000000000000000000000000000078
:100880000000000000000000000000000000000068
:100890000000000000000000000000000000000058
:1008A0000000000000000000000000000000000048
:1008B0000000000000000000000000000000000038
:1008C0000000000000000000000000000000000028
:1008D0000000000000000000000000000000000018
:1008E0000000000000000000000000AF00AE350076
:1008F0001E001F00200021002200290014001A0001
:100900000800150017002B0004001600070009005E
:100910000A00E1001D001B00060019000500E300AD
:10092000E200E00002512800A80035002700260060
:100930002500240023002A00130012000C001800D8
:100940001C00340033000F000E000D000B00E5000A
:1009500038003700360010001100E700E600E40020
:1009600003512C00000035001E001F002000210054
:100970002200290014001A00090013000A002B00AD
:1009800004001500160017000700E1001D001B0001
:10099000060019000500E300E200E0000100280065
:1009A000A8003500270026002500240023002A0087
:1009B00033001C0018000F000D00340012000C0062
:1009C000080011000B00E500380037003600100069
:1009D0000E00E700E600E40001002C00000001002A
:1009E0003A003B003C003D003E0035001E001F0069
:1009F00020002100220001001E021F02200221020D
:100A0000220201002E002D002E022F0230020100D2
:100A10000100010001000100010044004300420008
:100A2000410040003F00450027002600250024002B
:100A3000230031022702260225022402230201009C
:100A400031003302330030002F00010001000100AB
:100A5000010001000100010001000100010001008E
:100A6000010001004900460065000000000001008F
:100A7000E200E000E1000000390001007A007B00A4
:100A80007C007D0000000100010001000100010068
:100A900001000100010001000100010001002A0025
:100AA00001000100520001004B002A004C004F00E1
:100AB000510050004E000100000001000000010044
:100AC00000000100010001000100010001001124EB
:100AD0001FBECFEFDAE0DEBFCDBF11E0A0E0B1E096
:100AE000E6E5FFE502C005900D92A03CB107D9F7FD
:100AF00025E0A0ECB1E001C01D92A633B207E1F7FA
:100B00000E94C00D0C94A92F0C940000882371F151
:100B10009CEF980F913A60F4E8EBF4E0928189132E
:100B200001C01282319694E0EE3BF907B9F70DC08F
:100B300090E2980F983058F4982F977081E001C098
:100B4000880F9A95EAF70E94E0210C94E7219BE533
:100B5000980F933020F480E090E00C948227885A1C
:100B6000873120F480E090E00C946C270895CF93B7
:100B7000882309F453C09CEF980F913AF8F4C82FDA
:100B8000EAEBF4E080EC94E02191C21721F08E179B
:100B90009F07D1F70DC0E8EBF4E08281C81301C0D4
:100BA0001282319644E0EE3BF407B9F70E94E72148
:100BB0006C2F88EB94E00E94522713C090E2980FAC
:100BC000983090F4877021E030E0A90102C0440F12
:100BD000551F8A95E2F7CA0190911C05892B8093D5
:100BE0001C05CF910C94E721EBE5E80FE33040F4CE
:100BF000F0E0E157FE4F808190E0CF910C94822786
:100C0000885A873158F4E82FF0E0EE0FFF1FEE56B8
:100C1000FE4F80819181CF910C946C27CF910895E4
:100C2000EF92FF920F931F93CF93DF93CDB7DEB771
:100C300067970FB6F894DEBF0FBECDBF4B8B5C8BB2
:100C40006D8B7E8B8F8B242F0E891F8961111092E3
:100C50001B050115110531F05F3F31F481E02F3F95
:100C600019F403C081E001C080E080FD37C0A22FED
:100C7000B0E081E090E07C01022E01C0EE0C0A940D
:100C8000EAF7852F90E0662319F03091D90405C06A
:100C9000FC01EE53FE4F30813E213323C1F046E08C
:100CA000489F9001499F300D11242A0F3B1F220FAE
:100CB000331FF901E35FFE4F5491F901E45FFE4FEA
:100CC0002491FC01EE53FE4F9081E92A06C0FC01FD
:100CD000EE53FE4FE0948081E822E08286E0FE0140
:100CE0003D96DF01982F1D929A95E9F72D875E8733
:100CF0006F87198B088BDE01179601900D928A95EC
:100D0000E1F7CE0107960E94012381113EC086E0E3
:100D1000FE013796DE01119601900D928A95E1F75A
:100D2000FF81E8856A857B856115710531F0EF3FAC
:100D300031F481E0FF3F19F403C081E001C080E09D
:100D400080FD23C02091E00430E0C9010196877046
:100D500099274091110550E08417950779F1F9839F
:100D6000EA837D836C8396E0929FD001939FB00DC0
:100D70001124AF51BB4FFE01319601900D929A950F
:100D8000E1F78093E0040E942F2216E08091110584
:100D90009091E0048917F9F0189FC00111248F5138
:100DA0009B4F0E9401238823B1F08091110590E0B0
:100DB00001968770992780931105E8CF0E946225DC
:100DC0001092E00410921105EAEDF4E086E0DF01F4
:100DD0001D928A95E9F767960FB6F894DEBF0FBEAD
:100DE000CDBFDF91CF911F910F91FF90EF900895AC
:100DF0003F924F925F926F927F928F929F92AF92AB
:100E0000BF92CF92DF92EF92FF920F931F93CF93F7
:100E1000DF93CDB7DEB729970FB6F894DEBF0FBECC
:100E2000CDBFFC018081918123813481232B31F05E
:100E30009F3F31F491E08F3F19F403C091E001C06E
:100E400090E090FD71C67F0185E0DE011196019072
:100E50000D928A95E1F7F701228189819A812223F7
:100E600049F00E94A522182F682F89819A810E943B
:100E7000DD2403C00E94B024182F69817A81812F5C
:100E80000E9485288C01F7018281882399F1C8018D
:100E900090568115F0E29F0748F0905E811520E1A1
:100EA000920720F0915C81159F4118F4C8019927A1
:100EB00008C00F3F110509F010F4C80102C080E01E
:100EC00090E09C01245031092432310518F08B97B1
:100ED0000E9780F4E091F201F0E0EE0FFF1FE95071
:100EE000FE4F808191818F3F2FE7920719F0019685
:100EF00091838083F7018281882309F4F2C09801ED
:100F000022513F452031310508F0FDC58FEF93E0B8
:100F10000E94882C8111EEC0025167E0862E62E0AB
:100F2000962E002379F08114F4E09F0609F4E2C0C4
:100F3000C4010E94882C811101C001502FEF821A38
:100F4000920AEFCF1E821F8218861986442443948A
:100F50005AE0352E84010F5F1F4FC4010E94882C78
:100F60008E831F82882309F4C5C09FEF980F9330AA
:100F700060F48F834E8232E0830E911CC8010E9480
:100F8000882C8887811102C0B5C048018E010A5F94
:100F90001F4FF80120812223E9F2213009F04CC0D3
:100FA0008181813049F46801F2E0CF0ED11CF80153
:100FB00082810E947E250AC0823051F46801F2E0ED
:100FC000CF0ED11CF80182810E94B705860186C030
:100FD000833049F46801F2E0CF0ED11CF801828120
:100FE0000E948605F3CF843019F00F5F1F4F76C043
:100FF000F80122810E5F1F4F80E090E030E0205327
:1010000031092A30310568F4389EA001399E500D0F
:101010001124C901840F951F0F5F1F4FF801208114
:10102000EDCF009709F45AC0EFE9FFE03197F1F7EF
:1010300000C000000197F5CFE22FF0E0EC54FE4F26
:101040005490822F86958695869590E0FC01EC550C
:10105000FE4F64902770712C022E02C07594679425
:101060000A94E2F7F1E06F227724FC01EC56FE4F80
:10107000A490B12C022E02C0B594A7940A94E2F772
:1010800031E0A322BB24FC01EC57FE4FC490D12CCD
:1010900002C0D594C7942A95E2F781E0C822DD24E6
:1010A0006114710419F081EE0E94B705A114B10416
:1010B00019F086EE0E94B705852D0E947E25AB288B
:1010C00019F086EE0E948605672819F081EE0E94CD
:1010D0008605CD2819F08CE20E947E250F5F1F4FF8
:1010E00058CF0031FFE51F0769F581E00E940D250B
:1010F0000E942D1680911205877009F415C5F7011D
:101100008281882309F410C58091DF0182FD0CC51E
:1011100082E029960FB6F894DEBF0FBECDBFDF91F7
:10112000CF911F910F91FF90EF90DF90CF90BF90E4
:10113000AF909F908F907F906F905F904F903F9077
:101140000C94192501312FE5120711F482E0CECF5E
:10115000033F3CE5130799F406E221EE40EE63EF0E
:101160007CE509C0073D2CE5120711F506E221EEEA
:1011700041EE67ED7CE5C7010E94A827BBCF043F85
:101180009CE5190708F05CC1083DECE51E0731F449
:1011900007E225EE45EE68ED7CE5EDCF093DFCE587
:1011A0001F0701F708E221E045EE69ED7CE5E3CF9A
:1011B000882309F47AC11092270503309DE51907A9
:1011C00058F40A3FECE51E0780F4C80182509C45A4
:1011D000449708F054C109C00136FDE51F0729F006
:1011E000053A2DE5120709F04AC10E949D1F909310
:1011F000DF018093DE0101313CE5130709F4C6C02D
:1012000008F042C009309CE5190709F49BC000F5BD
:101210000530FCE51F0709F485C078F403303CE590
:10122000130709F478C008F07AC002301C4509F0B1
:10123000F7C08091DE018160F1C00730ECE51E0748
:1012400009F478C008F07AC08091DE018061E6C0C0
:101250000D302CE5120709F487C058F40B308CE5EB
:10126000180709F479C008F07BC08091DE0188601E
:101270006FC00F30ECE51E0709F480C008F082C093
:101280008091DE01877FCAC00D3F2CE5120709F46B
:1012900071C000F505318CE5180709F485C068F4C4
:1012A0000331ECE51E0709F475C008F095C00E94F3
:1012B00062258091DE018F77B1C00B3F2CE51207CC
:1012C000A9F108F054C00A3F1C4509F0A9C080915B
:1012D000DF0140C001309DE5190709F489C058F4C9
:1012E0000F3FFCE51F0709F45AC008F069C0809160
:1012F000DF0182602FC001363DE5130709F47EC08F
:10130000053A8DE5180709F483C002301D4509F040
:1013100087C060E06EC08091DE0182607FC08091F6
:10132000DE0116C08091DE01886078C08091DF0107
:1013300082604FC08091DE01806270C08091DE01CA
:1013400080646CC00E9462258091DE01806866C066
:10135000846064C081603DC08091DE018E7F5EC08C
:101360008091DE018D7F5AC08091DE0116C0809190
:10137000DF0118C08091DF018D7F2BC08091DE01DD
:101380008F7E4CC08091DE018F7D48C08091DE0150
:101390008F7B44C08091DE01877F8B7F3FC080912F
:1013A000DF018D7F8E7F15C08091DE0182FB2227B9
:1013B00020F991E0922790FB82F990FB83F92EC0EF
:1013C0008091DF01982F909591708E7F892B90FBF3
:1013D00081F98093DF0124C00E9462258091DE01A3
:1013E00087FB222720F991E0922790FB87F916C00E
:1013F00061E08EE090E00E94962C12C08091DE01A8
:1014000084FB222720F991E0922790FB84F906C003
:101410008091DE01982F909590FB80F98093DE01FA
:101420006091DE011091DF0184E090E00E94962C33
:10143000612F82E290E00E94962C0E9462255ACE93
:10144000053F3CE5130731F406E221EE42EE65EF7D
:101450007CE591CE053F9CE5190730F407E225EEC7
:1014600044EE64EF7CE587CE063FECE51E0709F00D
:101470009FCE07E225EE46EE66EF7CE57CCE063198
:10148000FCE51F0751F580911C058A7A91E009F46B
:1014900090E09093CC01882311F065E301C069E2EC
:1014A00088EB94E00E94522715C006311C4509F0D4
:1014B00045C08091CC01882309F434C385E3E8EB6F
:1014C000F4E09281891301C01282319624E0EE3B50
:1014D000F207B9F70E94E7210DCE0A353DE5130763
:1014E00041F150F401159CE51907A9F00E3D1C458A
:1014F00029F50E947021FECD0B35FDE51F07D9F0BF
:101500000C351D45D9F48091DF0182FB882780F9D5
:1015100091E0892711C00E9462253FEF84E39CE09F
:10152000315080409040E1F700C000000E94AF269B
:10153000E1CD81E001C080E00E943625F701828183
:1015400000811181882349F0C8010E94A522D82E6C
:10155000682FC8010E94DD2404C0C8010E94B02485
:10156000D82EB8018D2D0E9485280E94AA1D082F13
:10157000C92EB82EF7011281858082944FE0842213
:10158000809112058770E1F01123D1F0892F807FBF
:10159000803449F090E2900F983090F0803619F442
:1015A000F6EF0F1769F08091DF0182FD09C082E03C
:1015B0000E941925809112058770AA24A394811195
:1015C000A12C9C2C92943FE09322892D90E08C30AA
:1015D000910508F04CC2FC01EA5AFF4F0C94642FAD
:1015E0009C2D9F708C2D807FD92E19F0D29420EFE6
:1015F000D2221123B9F0DD2009F4AAC180E2800FC4
:10160000883010F0B11006C080911C05D82AD09205
:101610001C0505C080911B05D82AD0921B050E948D
:10162000E72196C1802F0E948605DD2009F41FC2A4
:10163000005E083090F1BB2081F1D09480911B05B1
:10164000D822D0921B052CC09C2D9F708C2D807FA2
:10165000D92E803219F0D29490EFD922BB2021F0FC
:1016600021E0B216D9F149C08091DF0182FF1BC091
:10167000112369F0DD2039F080911C05D82AD09221
:101680001C050E94E72180E00E94B705F0C180E0C0
:101690000E948605DD2009F4EAC18D2D0E94E0211B
:1016A0000E94E721E4C1112381F080911D0588206B
:1016B00051F031E0831207C0D82AD81609F4D7C1F7
:1016C000D0921D05D4C18D2910C0882021F081E061
:1016D000881609F4CCC10E94DA2120C0112341F000
:1016E00095E0981508F4C3C18D2D0E947425BFC1E3
:1016F000E4E0E81508F4BBC111C0112349F08820CB
:1017000099F3F701858180FF23C18F708583ECCF2A
:10171000882021F0F9E3BF1229C120C18D2D0E943C
:101720006D25A5C18C2D86958695837019F0813025
:1017300071F09DC1112331F0802F9C2D93700E9478
:1017400082279BC180E090E00E948227AEC11123D6
:1017500031F0802F9C2D93700E946C278EC180E009
:1017600090E00E946C27A1C18C2D8370A1F511110E
:1017700082C1402F429546954770440F440F202F59
:101780002F7030E0C901042E01C0880F0A94EAF7D7
:1017900004FF08C02FE030E001C0220F4A95EAF7AD
:1017A000209501C020E03C2D3695369533703230BF
:1017B00069F040F440911E05313019F0822B8423EA
:1017C00002C0842B822B0E945E2555C1282B80915C
:1017D0001E058227F8CF112319F08C2D817001C0CE
:1017E0008695882309F447C1402F42954695477056
:1017F000440F440F202F2F7030E0C901042E01C088
:10180000880F0A94EAF704FF08C02FE030E001C017
:10181000220F4A95EAF7209501C020E03C2D36952D
:1018200036953370323051F070F440918702313088
:1018300019F0822B842308C0842B05C0282B8091AB
:101840008702822701C0822B0E94092514C1FC2D2A
:10185000FF70DF2E112339F08F2F0E945325802F28
:101860000E94742508C1802F0E946D258D2D0E9435
:101870000D2501C1802F22EFB21681F12B1538F012
:1018800030EFB31659F091EFB91619F15DC0E3EFDF
:10189000BE1659F1F4EFBF16C1F056C0112381F006
:1018A00024E0281508F4E3C02C2D2F7181E090E08E
:1018B00001C0880F2A95EAF790918702892720C0F6
:1018C00035E0381508F4D3C0EFCF8091DF0182FFF7
:1018D0001AC0112329F08C2D8F7128C01123D9F340
:1018E0008C2D8F710E940D25C2C0112341F081E023
:1018F0009C2D9F7101C0880F9A95EAF701C080E086
:101900000E940925B4C01123A1F00C2D0F71802F66
:101910000E9453258091DF0182FD07C0E8E00E9F01
:10192000C0011124836080931205802F0E945325EB
:101930009EC081E00E941925F1E0F81508F097C0DB
:1019400082E00E94192593C0112321F0882019F20A
:10195000802F9ACE882021F2893341F42FEF37EE81
:1019600083E0215030408040E1F704C0EFE3FCE920
:101970003197F1F700C00000802F0E94860577C0E4
:101980008B2D90E0FC01E05FF109E730F10508F0F4
:101990003EC0EE59FF4F0C94642F112309F485C00B
:1019A0009091D90481E0892715C01093D90465C0AE
:1019B00081E081270FC0111160C081E08093D904BC
:1019C00074C011115AC06FC0112339F082E08093A6
:1019D000CD0181E08093D90450C08091CD01823047
:1019E00019F481E08093CD018091CD01833009F01D
:1019F0005CC057C0112339F08091D804882381F24C
:101A00001092D8043AC0F4E0F81550F64EC0809118
:101A1000D8048820F9F0882341F09091D90481E01E
:101A200089278093D9041092D804112321F0802FA4
:101A30000E94B70522C08FE39CE90197F1F700C02F
:101A40000000802F0E94860586E0F70111928A959A
:101A5000E9F72BC0882389F011110FC09091D904A8
:101A600081E089278093D9041092D8041EC088EFA2
:101A7000890D843010F40E9498271123B1F08C2D29
:101A8000807F803619F4F6EFBF1679F08091CD0192
:101A9000823019F483E08093CD018091CD018130B3
:101AA00021F41092CD011092D904AA20E9F180917D
:101AB000120580FD39C0F7011282859585958595BF
:101AC0000E945325C7010E94F80680911205859552
:101AD0008595859529960FB6F894DEBF0FBECDBFCC
:101AE000DF91CF911F910F91FF90EF90DF90CF90FA
:101AF000BF90AF909F908F907F906F905F904F902E
:101B00003F900C940D2500313FE5130711F481E05F
:101B100006C001319FE5190709F01ACB82E00E9447
:101B20005325E6CA89E2CBCC29960FB6F894DEBFDE
:101B30000FBECDBFDF91CF911F910F91FF90EF901E
:101B4000DF90CF90BF90AF909F908F907F906F90DD
:101B50005F904F903F900895982F92959F7019F045
:101B6000892F24E001C020E0982F9695969511F0DA
:101B70002E5F892F982F969509F02F5F822F089559
:101B8000CF93DF93CDB7DEB7AC970FB6F894DEBF37
:101B90000FBECDBF84B7877F84BF0FB6F894A895DA
:101BA00080916000886180936000109260000FBE99
:101BB00090E080E80FB6F894809361009093610004
:101BC0000FBE85B7806885BF85B7806885BF86E70B
:101BD0009BE19093C1018093C0010E94C0190E94B3
:101BE000DF198091E20084608093E2007894809114
:101BF0006F028823A1F01091E9001F709091EC0012
:101C0000892F817090FD80E8182B1092E900809157
:101C1000E80083FD0E94A6161F701093E90082E081
:101C200084BD93E095BD9AEF97BD80936E001092AE
:101C3000CE011092CF011092D0011092D1010E94DA
:101C40004A29811102C00E943B290E940D1D8093E8
:101C500000010E940D1D81110E94CF2A8091000178
:101C600080910001882311F090E001C095E09093ED
:101C7000DD0185E0891B8093DC010BE511E080E646
:101C8000E82E81E0F82ED8018D918D018F3F11F063
:101C90000E94931DE016F106B1F700E611E0F8018D
:101CA00081918F018F3F11F00E94931DF1E0063664
:101CB0001F07A9F78AE0E8E5F2E0DF01282F1D926F
:101CC0002A95E9F7E2EDF1E0DF011D928A95E9F747
:101CD00080E090E00E94902C893E9E4F21F40E946B
:101CE0004A29811102C00E94702182E090E00E9486
:101CF000882C8093E1010E949D1F9093DF018093C7
:101D0000DE010E94AE1FEFE3FCE93197F1F700C05E
:101D100000000E94AE1F8091580280FF08C06FEF44
:101D20007FEF80E090E00E94B42C0E94AF2683E019
:101D300090E00E94882C0E945E250E940D1D882341
:101D400011F083E001C082E08093530280FD02C065
:101D500080E801C080E2809388020E9463296DE0E0
:101D600070E087E492E00E943816892B09F043C0A6
:101D70008091530263E070E081FD3AC084E492E018
:101D80000E943816892BB9F56DE070E084E392E08B
:101D90000E943816892B79F50E941127DC01CB01AE
:101DA000805E914BAF4FBF4F80931F0590932005EE
:101DB000A0932105B0932205EBE8F2E080E092E0E9
:101DC000DF019C011D9221503040E1F7F093920415
:101DD000E09391048FEF9FEF90938A0280938902A2
:101DE00081E080932405809323051092540203C060
:101DF00081E492E0C5CF80910001811106C084EF9B
:101E000080930F0185EF80930E0180910F01E82FE1
:101E1000E295EF70F0E041A1282F2F7081E090E073
:101E2000BC0102C0660F771F2A95E2F79B01362F8F
:101E30003095342331A332A1232B22A320910E010C
:101E4000E22FE295EF70F0E031A12F7001C0880F12
:101E50002A95EAF7982F9095932391A392A1892B25
:101E600082A38FE891E00197F1F700C00000209174
:101E70000F01E22FE295EF70F0E080A190E02F706B
:101E800002C0959587952A95E2F7817090910E0191
:101E9000E92FE295EF70F0E020A130E09F7002C0E2
:101EA000359527959A95E2F720FF02C092E001C090
:101EB00090E0892B80932D029091000181E098277A
:101EC00090932C02891B8093E0010E940D1D8111CB
:101ED00002C00E94D22A81E091E090932B0580936A
:101EE0002A05B0E46B2E80916F02853009F045C061
:101EF00000E112E180916F02853009F03AC08091D3
:101F00006F02843029F10E94922810922E05A8E1D8
:101F1000B0E00FB6F894A895A09360000FBE609251
:101F2000600083B7817F846083BF83B7816083BF94
:101F30007894889583B78E7F83BF0FB6F894A89561
:101F400080916000886180936000109260000FBEF5
:101F500080916E02882309F4CDCF0E94AE1FE8E580
:101F6000F2E08191811153C5B2E0E236FB07C9F777
:101F7000C1CF0E9462250E9498270E94AE1F782E32
:101F800081110E941127E8E5F2E0FCA7EBA7A2EE81
:101F9000B1E000E010E0C02ED1908D918D2549F187
:101FA000E12CFF24F394982F9F21F1F00E940D1D46
:101FB000882399F0E9A2CAA2DF2081E009F480E039
:101FC0008BA30E941D278160782F9DA38CA349A11C
:101FD0005AA16BA18DA10E941006F801EE51FE4F8F
:101FE0008081F826F0821AC0E394FF0C26E0E2120A
:101FF000DACF0F5F1F4F0A30110569F68FEF8EA3FE
:102000008FA318A60E941D278160782F9AA789A701
:102010004EA15FA168A58AA50E9410060E940D1D11
:10202000882309F4CAC0C090F701D090F8010D2CA4
:10203000000CEE08FF0810910D01412F50E0E9EF70
:10204000F1E081E090E04817590764F02191319167
:102050004901330FAA08BB08C80CD91CEA1CFB1C99
:102060000196F1CFF7FE03C0C12CD12C760160910F
:10207000F3017091F4018091F5019091F6010E94B5
:10208000E6261B012C01A0E6BAEEA70196010E94EC
:10209000712F4B015C0148EC149F90011124C90180
:1020A000330FAA0BBB0B9C01AD01220D331D441D48
:1020B000551DA5E0B0E00E94712F9B01AC01C50148
:1020C000B4010E94232F49015A0157FD0CC051EF62
:1020D00085169104A104B1044CF0A0EF8A2E912C36
:1020E000A12CB12C03C0812C912C540169EC261633
:1020F00031044104510414F18091F20190E0019601
:1021000069E170E00E940F2F8093F201880F991F00
:10211000FC01E950FE4F11821082183110F41F5F4C
:1021200001C018E110930D010E9411276093F30183
:102130007093F4018093F5019093F60172E0C71655
:10214000D104E104F1041CF4812C912C5401609120
:10215000EE017091EF018091F0019091F1010E94E8
:10216000E6266B017C0185E6C816D104E104F10482
:1021700084F00E9411276093EE017093EF01809329
:10218000F0019093F10180912E028093ED018092F5
:10219000EC011091ED01A091EC01B0E0A11BB1099F
:1021A000A70196010E947C2F24E630E040E050E039
:1021B0000E94452F120F10932E02E0912D025E2FE8
:1021C000550F550F20910F01E22FE295EF70F0E0CF
:1021D00080A190E02F7002C0959587952A95E2F72F
:1021E0008170992740910E01E42FE295EF70F0E0A5
:1021F00020A130E04F7002C0359527954A95E2F74F
:10220000F901E170FF2720FF02C0E2E0F0E0E82BD7
:10221000F92BE52BE0932D0210912C02EF70F0E0EA
:10222000EA59FE4F908180912B02890F80932B02F7
:1022300082308CF0E12FF0E0E75DFD4F80818F5F11
:102240008083111102C08AEA03C0113031F48BE49B
:102250000E947E2502C0D12C02C0DD24D39480913F
:102260002B028F3F94F4E12FF0E0E75DFD4F80817A
:1022700081508083111102C089EA03C0113019F422
:102280008EE40E947E25DD24D39480912B02082EBB
:10229000000C990B62E070E00E940F2F80932B02DC
:1022A000D1100E943B1F80912405882309F432C27B
:1022B00080915502909156020E940227C29708F41D
:1022C00028C10E941D2790935602809355028BE8E7
:1022D00092E090939204809391040E940D1D8823B4
:1022E00071F188E792E00E94E215809187020E94D6
:1022F000AC0D182F882329F0813031F48EE692E05E
:1023000005C083E792E002C08AE692E00E94F015E1
:1023100087E692E00E94E215123049F028F013306F
:1023200059F48AE592E005C082E692E002C08EE5AB
:1023300092E00E94F015EDC084E592E0FACF809122
:102340003102909132020E940227B0903002B09286
:102350002F02C0902E02C0923002813591050CF4FC
:102360005DC06C2D70E080E090E00E94E12D20E0E7
:1023700030E042E053E40E94372D20E030E040E0BE
:1023800052E40E94722E9B01AC0160E070E080E09C
:1023900092E40E94CA2C0E94A92D162FE62EF72E39
:1023A000862F972F90931A01809319010E94F5159B
:1023B00081E0810F0E94F51582E0810F0E94F515E2
:1023C00000E210E0E016F10654F40F3F9FEF19070A
:1023D00031F0802F0E94F51501501109F3CF80E0F4
:1023E00090E0FC01E65FFC4F229121839F012B5876
:1023F000324082179307C1F780589F4F8115A2E0A2
:102400009A0779F78FEF9FEF90938A028093890262
:102410000E941D279093320280933102B3E6BC15CF
:1024200008F40BC3E9E0EC1508F409C3C11009C3B3
:10243000109110016091300270E080E090E00E9405
:10244000E12D4B015C0120E030E048E452E40E94C1
:102450006D2E87FD41C020E030E042E053E4C5012D
:10246000B4010E946D2E18169CF0A501940160E045
:1024700070E082E093E40E94CA2C9B01AC0160E012
:1024800070E080EA92E40E94CA2C0E94A92D02C04A
:1024900060E570E0072E000C880B990B0E94E12D7F
:1024A00020E030E044E250E40E94722E20E030E070
:1024B00048E452E40E94CB2C4B015C0120E030E068
:1024C0004FE753E40E946D2E181654F0C501B40175
:1024D0000E94B02D062F05C01233D9F002E303C0CD
:1024E0000FEF0117B1F080912405882391F0198234
:1024F00081E88A830B8324E630E043E050E0BE01AC
:102500006F5F7F4F88E70E941A2A892B11F400938E
:10251000100180912405882309F4E1C020918902EB
:1025200030918A022115310509F4D9C080915402F5
:102530008111D5C0482E512CAA24A394B12C082E69
:1025400002C0AA0CBB1C0A94E2F7A9014A215B2134
:10255000452B11F48F5FEECF90915302920165E00D
:10256000220F331F6A95E1F790FD12C08295880F04
:10257000807680931D01220F232F221F330B31956C
:1025800020932001815E80931E011092210112C0D0
:1025900045E0369527954A95E1F7220F220F220F45
:1025A00020931D0110922001295F20931E0183E0DA
:1025B0008093210124E630E047E050E06BE171E0D8
:1025C00088E70E941A2A892B09F089C0809153025A
:1025D00080FD23C0C20135E0880F991F3A95E1F7CD
:1025E000AC0145575D4F04E610E020E230E060E4C6
:1025F00088E70E94412A892B09F071C00E94AC280B
:10260000A094B0948091890290918A02A822B92264
:10261000B0928A02A092890262C080E2E3E3F2E013
:10262000DF011D928A95E9F795E0440C551C9A95B7
:10263000E1F72AE7222E21E0322E66E771E0F10170
:1026400081911F01DB019D91BD019201290F311D77
:10265000F901E557FD4F4F0190E08D5C9D4FFC0166
:1026600007E09F01281B390BEE24E39401C0EE0C18
:102670002A95EAF7A401F12CDA011D91AD011E2182
:10268000202F2F192770C22E022E000C330BB12FD2
:1026900001C0BB0FCA94EAF7CB2E319521953109C1
:1026A0002770332701C016952A95EAF7C12A1081B1
:1026B000C12AC082F39428E0F212DECF0150319695
:1026C0000F3F79F63EE7231631E0330609F0B7CF26
:1026D00004E610E020E230E043E352E088CF80914E
:1026E00023058823B9F00E94112700911F0510913E
:1026F00020052091210530912205DC01CB01801BB2
:10270000910BA20BB30B8F3F9F4FAF4FBF4710F4FE
:102710000E949228711001C0D1100E94AC280E9422
:1027200098279091570289138093570280916F02E6
:10273000843009F0D8CB83E08093E9008091E800F1
:1027400082FFD1CB8091E80085FF23C00E94171B38
:1027500081111DC080E2E82EF12C8E010F5F1F4F0A
:1027600009C08091F100D8018D938D01B1E0EB1A81
:10277000F10869F08091E80085FDF3CF8091E800D1
:102780008B778093E8000E94171B882399F391E0D0
:1027900001C090E08091E8008B778093E800992356
:1027A00009F4A1CBE9818E2F90E0FC013197E33150
:1027B000F10508F003C1E759FF4F0C94642F1A820A
:1027C00089E05AC08A81823009F473C1833051F0A4
:1027D000813009F0F3C00E9411279B838C837D8395
:1027E0006E83EEC0FE013396CE010D96ABA5BCA55F
:1027F0002D91BCA7ABA72193E817F907B9F7E0C063
:102800008A81823009F0DAC06B817C818D819E8162
:102810000E946A2F0E941929D3C04C816B818A8142
:102820000E945F289D834CC10D811E8110270127C6
:1028300010278C81EB809A81BCE0EB9E7001112403
:10284000E8E79E9FE00CF11C1124E80EF11CE80E55
:10285000F11C612FC70187960E94962C602FC7013B
:1028600088960E94962CACC00E942B28A9C080E1BB
:1028700058C081E08A8389EF8B83A2C0EA80FB8005
:10288000FE24EF24FE24AC80B12C8E010F5F1F4F7D
:102890006801C701895F9D4F9601201B310B2A15E6
:1028A0003B0508F08DC0F9EFEF16F1E0FF0630F4BC
:1028B0000E94882CD60114968C9302C0F6011482D3
:1028C000FFEFEF1AFF0A2FEFC21AD20AE2CFEA8017
:1028D000FB80FE24EF24FE24AC80B12C8E010F5F20
:1028E0001F4F6801C701895F9D4F9601201B310B67
:1028F0002A153B0508F064C039EFE31631E0F30612
:1029000028F4D60114966C910E94962CBFEFEB1A16
:10291000FB0AEFEFCE1ADE0AE5CF0E941B2850C05B
:1029200084E08A834DC0EA80FB80FE24EF24FE24ED
:10293000AC80B12C8E010F5F1F4F6801C7018796D5
:102940009601201B310B2A153B05D0F5F0EEEF1652
:10295000F1E0FF0630F40E94882CD60114968C9387
:1029600002C0F6011482FFEFEF1AFF0A2FEFC21A1E
:10297000D20AE4CFEA80FB80FE24EF24FE24AC8060
:10298000B12C8E010F5F1F4F6801C701879696011A
:10299000201B310B2A153B0598F430EEE31631E08D
:1029A000F30628F4D60114966C910E94962CBFEF82
:1029B000EB1AFB0AEFEFCE1ADE0AE7CF8FEF89831F
:1029C00080916F02843009F08ECA1091E9001F7067
:1029D0009091EC00892F817090FD80E8182B82E0A7
:1029E0008093E9008091E80080FF0DC040E050E056
:1029F00060E270E0CE0101960E944A1B8091E800DF
:102A00008E778093E8001F701093E9006CCA09BDAF
:102A100019BD09B400FEFDCF8091D8008F7D809351
:102A2000D8008091E00082608093E0008091E00017
:102A300081FDFCCF0E9462255DCA10E003C011E059
:102A400001C012E0BC1439F04AE065E171E08C2D60
:102A500090E00E94532C125F20918802F6E01F9FA5
:102A6000C001112433E0239F800D911D1124811595
:102A700042E0940714F080E090E085579D4F9093DA
:102A8000920480939104E1E1F1E001900020E9F7E4
:102A90008F0101501109E1E1EE2EE1E0FE2EE0167A
:102AA000F10608F0C5CCD7018D917D010E94621519
:102AB000F6CF86E290E00E94882C1B821C821D8249
:102AC0008E837ECFCF93DF938A3011F481E003C0F1
:102AD0008D3029F480E0DF91CF910C94D228682FBB
:102AE000809191049091920426E0FC01ABE8B4E05F
:102AF00001900D922A95E1F7603E30F026E0FC014E
:102B000011922A95E9F70AC0F6E06F9FB0011124EF
:102B100066557C4F46E050E00E944A2CC0919104DB
:102B2000D091920446E050E0BE018BE894E00E9410
:102B3000932F892B49F19E012B583240A90185E042
:102B4000569547958A95E1F781E090E0BC0102C077
:102B5000660F771F4A95E2F74091890250918A02E9
:102B6000462B572B2B5F3F4F65E0369527956A958F
:102B7000E1F702C0880F991F2A95E2F7842B952B65
:102B800090938A02809389029E0125583240409199
:102B90008802642F70E0C9010E94362C481B463021
:102BA00010F4240F311D211582E0380710F020E0C9
:102BB00030E025573D4F3093920420939104DF91EC
:102BC000CF910895CF93DF93EC01FE018491882388
:102BD00021F00E9462152196F8CFDF91CF910895E0
:102BE0000E94E21581E00C94D228209188022230C4
:102BF00098F1982F969596959695929F900111240D
:102C00002F5F3F4F211592E0390734F5F901E55761
:102C1000FD4F6081877041E050E0DA0102C0AA0FE9
:102C2000BB1F8A95E2F7CD01862B6817A9F0808338
:102C300085E0369527958A95E1F702C0440F551F28
:102C40002A95E2F78091890290918A02482B592BAC
:102C500050938A0240938902089580918702982FA9
:102C60009670963011F4886001C0877F0C94092516
:102C7000EF92FF920F931F93CF93DF93EC017B01B1
:102C800064E670E088E70E9469298C01EC0EFD1E65
:102C9000CE15DF0561F017FD0AC0FE01849164E6E0
:102CA00070E00E94EA298C012196892B89F30E9409
:102CB0006E2AC801DF91CF911F910F91FF90EF9085
:102CC0000895EF92FF920F931F93CF93DF93C82F36
:102CD0008B01D42F7901FB01608171818281938105
:102CE0000E94E626643671058105910510F4DD2306
:102CF00029F10C2E000CDD0BFE0183E0EE0FFF1F0F
:102D00008A95E1F7ED5DFE4F8181928187589D4F55
:102D1000408150E04115510511F041E050E0B7010C
:102D20000E94A02FCE010E94BB2B882341F00E945D
:102D30001127F801608371838283938381E0DF919F
:102D4000CF911F910F91FF90EF9008951F93CF9314
:102D5000DF93CDB7DEB7AA970FB6F894DEBF0FBEEC
:102D6000CDBFE1E7F2E089E792E02091F100219305
:102D70008E179F07D1F780917202833009F463C0E8
:102D800030F4813071F0823009F49DC0B4C08A30D3
:102D900009F489C08B3009F46EC0893009F0ABC0EA
:102DA00020C080917102813A09F0A5C08091E800AD
:102DB000877F8093E8008091750290917602892B3D
:102DC00021F468E085E692E003C060E080E090E0F6
:102DD00070E00E9451268091E8008B778093E80094
:102DE0008AC080917102813209F085C0809175029C
:102DF00090917602009719F0029709F07CC08091BB
:102E0000E800877F8093E8008091E80082FD05C09C
:102E100080916F028111F8CF6EC02091F3008091F4
:102E2000F20090E0922B029731F48091F100813012
:102E300011F0863021F48091F1008093640280913A
:102E4000E8008B7754C080917102813A09F053C039
:102E50008091750290917602892B09F04CC0809187
:102E6000E800877F8093E8008091E80080FFFCCF36
:102E70008091220137C0809171028132E1F5809109
:102E8000750290917602892BB1F58091E800877FD9
:102E90008093E8000E94FD258091730280932201B7
:102EA0000E94622528C080917102813221F58091B3
:102EB000E800877F8093E8000E94FD2580917402DE
:102EC0008093630218C080917102813AA1F48091CD
:102ED000E800877F8093E8008091E80080FFFCCFC6
:102EE000809163028093F1008091E8008E77809357
:102EF000E8000E94FD258091E80083FFDFC18091FA
:102F0000710290917202492F50E04A30510508F049
:102F1000D5C1FA01E458FF4F0C94642F803821F09A
:102F2000823809F0CBC108C080916D0290916E0289
:102F3000992389F082600FC0809175028F7087306D
:102F400008F0BCC18093E9008091EB0085FB8827E5
:102F500080F91092E9009091E800977F9093E80043
:102F60008093F1001092F10070C1282F2D7F09F09D
:102F7000A5C1882319F0823061F0A0C1809173024D
:102F8000813009F09BC1933009F080E080936E029C
:102F90002EC08091730281112AC0809175028F70BA
:102FA0002FEF280F263008F089C18093E900209187
:102FB000EB0020FF1CC0933021F48091EB00806275
:102FC00014C09091EB0090619093EB0021E030E011
:102FD000A90102C0440F551F8A95E2F74093EA0009
:102FE0001092EA008091EB0088608093EB001092D1
:102FF000E9008091E800877F8093E8000E94FD252A
:103000005DC181115BC1109173021F778091E30054
:103010008078812B8093E3008091E800877F809304
:10302000E8000E94FD258091E80080FFFCCF8091A0
:10303000E30080688093E300111102C082E001C0C8
:1030400083E080936F023AC18058823008F036C125
:1030500020917302309174022C3D53E0350779F5CD
:1030600083E08A838AE289834FB7F894DE0113965E
:1030700020E03EE051E2E32FF0E050935700E4916E
:1030800020FF03C0E295EF703F5FEF708E2F90E05E
:10309000EA3010F0C79601C0C0968D939D932F5FC4
:1030A000243149F74FBF8091E800877F8093E80083
:1030B0006AE270E0CE0101960E945126B4C0809170
:1030C000750290917602432F552743305105A9F0A0
:1030D00068F44130510509F400C14230510509F04E
:1030E000EDC08BE590E0EFE0F3E04BC041325105DD
:1030F00029F14232510589F1E1C0C9019927813096
:103100009105A1F058F0029709F0D8C0ECE7F3E080
:10311000E4918E2F90E0ECE7F3E030C0E6EAF3E0D4
:10312000E4918E2F90E0E6EAF3E028C0EAE8F3E0CD
:10313000E4918E2F90E0EAE8F3E020C0833091051F
:1031400008F0BCC0880F991FFC01E757FE4F0190A3
:10315000F081E02D89E090E014C08330910508F003
:10316000ADC0FC01EE0FFF1FED57FE4F0190F08147
:10317000E02DDC01A058BE4F8C9190E0009709F43F
:103180009DC02091E800277F2093E80020917702DE
:10319000309178022817390708F4C90140E00097F8
:1031A00089F120916F02222309F43DC02530D9F125
:1031B0002091E80023FD37C02091E80022FD2FC0B8
:1031C0002091E80020FFEBCF4091F3002091F20026
:1031D00030E0342B009759F02830310540F4449109
:1031E0004093F100319601972F5F3F4FF3CF41E0BD
:1031F0002830310509F040E02091E8002E77209337
:10320000E800CDCF4111CDCF0AC080916F02882355
:1032100051F0853041F08091E80083FD04C0809139
:10322000E80082FFF2CF8091E8008B778093E8007E
:1032300045C0803809F042C08091E800877F8093C4
:10324000E800809170028093F1008091E8008E7711
:10325000D3CE811133C0809173029091740299276B
:10326000029764F58091E800877F8093E8001091D1
:103270007302109370020E94FD25111106C0809107
:10328000E30087FD02C081E001C084E080936F020B
:1032900042E061EC81E00E941C2642E261EC84E0A5
:1032A0000E941C2642E261EC82E00E941C2642E25F
:1032B00060EC83E00E941C2680916F028091E80000
:1032C00083FF10C08091E800877F8093E8008091A1
:1032D000EB0080628093EB0005C082E190E0EAE6BB
:1032E000F3E04FCFAA960FB6F894DEBF0FBECDBF66
:1032F000DF91CF911F9108951F920F920FB60F92F9
:1033000011242F933F934F935F936F937F938F93EA
:103310009F93AF93BF93CF93DF93EF93FF93C091AE
:10332000E900CF708091EC00D82FD17080FDD0E8FB
:103330001092E9008091F000877F8093F0007894EC
:103340000E94A6161092E9008091F0008860809398
:10335000F000CD2BCF70C093E900FF91EF91DF918A
:10336000CF91BF91AF919F918F917F916F915F911D
:103370004F913F912F910F900FBE0F901F90189576
:10338000E8EDF0E080818E7F80831092E200109261
:10339000DA001092E100A0EEB0E08C9181608C9395
:1033A00080818F77808319BCA7EDB0E08C918E7FF0
:1033B0008C9380818F7E8083109262020895CF92D9
:1033C000DF92EF92FF920F931F93CF93DF93C8ED9D
:1033D000D0E088818F7E8883E7EDF0E08081816096
:1033E000808384E082BF81E08093620288818E7F47
:1033F000888302EE10E0F80110821092DA0081EE6C
:10340000C82ED12CF601108288818F77888388811D
:103410008068888388818F7D888319BC10926F02B1
:103420001092700210926E0210926D0290EEE92ED0
:10343000F12CF70180818B7F808388818160888374
:1034400042E060E080E00E941C26F60180818E7FD1
:103450008083F8018081816080838081886080839F
:10346000F70180818E7F8083888180618883DF91EE
:10347000CF911F910F91FF90EF90DF90CF90089523
:103480001F920F920FB60F9211242F933F934F93D9
:103490005F936F937F938F939F93AF93BF93EF93BC
:1034A000FF938091E10082FF09C08091E20082FFDA
:1034B00005C08091E1008B7F8093E1008091DA006C
:1034C00080FF2AC08091D80080FF26C08091DA005A
:1034D0008E7F8093DA008091D90080FF18C080E150
:1034E00089BD82E189BD09B400FEFDCF81E08093F2
:1034F0006F028091620281110FC00E94C0190E9468
:10350000DF198091E20084608093E20005C019BC5D
:1035100010926F02109262028091E10080FF17C04A
:103520008091E20080FF13C08091E2008E7F809343
:10353000E2008091E20080618093E2008091D800F7
:1035400080628093D80019BC85E080936F028091DF
:10355000E10084FF30C08091E20084FF2CC080E154
:1035600089BD82E189BD09B400FEFDCF8091D800FC
:103570008F7D8093D8008091E1008F7E8093E10061
:103580008091E2008F7E8093E2008091E200816072
:103590008093E20080917002882311F084E007C0DC
:1035A0008091E30087FD02C081E001C083E0809349
:1035B0006F0280916F028091E10083FF27C08091AC
:1035C000E20083FF23C08091E100877F8093E100C8
:1035D00082E080936F02109270028091E1008E7FF2
:1035E0008093E1008091E2008E7F8093E2008091E1
:1035F000E20080618093E20042E060E080E00E94AF
:103600001C268091F00088608093F000FF91EF917C
:10361000BF91AF919F918F917F916F915F914F91EA
:103620003F912F910F900FBE0F901F9018952091F2
:10363000E4003091E50095E64091EC00842F817024
:1036400040FF23C08091E80080FD1DC080916F0283
:10365000882399F0853099F08091EB0085FD11C0A9
:103660004091E4005091E5002417350729F391506B
:1036700011F09A01E1CF84E0089582E0089583E09B
:10368000089581E0089580E008954091E80042FFA8
:10369000DDCF0895EF92FF920F931F93CF93DF93A7
:1036A0007C018B010E94171B811119C0E7010115D4
:1036B0001105A1F08091E80085FD0AC08091E80025
:1036C0008E778093E8000E94171B882381F307C040
:1036D00089918093F10001501109E9CF80E0DF91D9
:1036E000CF911F910F91FF90EF90089580E0089582
:1036F0009091DE0192FF0DC0282F2871283019F417
:10370000877F846006C0282F2471243011F48B7FBA
:10371000886093FF0DC0282F2871283119F4877E07
:10372000846106C0282F2471243111F48B7E8861B6
:103730002091DF0120FF0DC0382F3871383019F487
:10374000877F816006C0382F3171313011F48E7F50
:10375000886021FF0DC0282F2871283119F4877E39
:10376000816106C0282F2171213111F48E7E88617C
:1037700094FD877E0895AF92BF92CF92DF92EF9231
:10378000FF920F931F93CF93DF937C015B016A013C
:103790008091B7048A3018F001E010E002C00AE01E
:1037A00010E0C1E0D0E0F894B501C701F601099539
:1037B0007894811115C021960C171D0794F0CC9FA9
:1037C0009001CD9F300D300D112480E090E045E355
:1037D0004A95F1F70000019682179307C1F7E3CFEE
:1037E00081E0DF91CF911F910F91FF90EF90DF90DB
:1037F000CF90BF90AF900895CF93DF931F92CDB736
:10380000DEB78091230589832091860230E090E025
:1038100041E02817390709F440E09E012F5F3F4F30
:1038200063EB74E086E00E9461160F90DF91CF9108
:103830000895CF93DF931F92CDB7DEB780912E020C
:10384000898341E090918502981301C040E09E0178
:103850002F5F3F4F6FEA74E085E00E9461160F9082
:10386000DF91CF9108956F927F928F929F92AF9246
:10387000BF92CF92DF92EF92FF920F931F93CF935D
:10388000DF931F92CDB7DEB7C62E4A015901682ECD
:10389000880F7708C3010E94BB2B882309F466C0F8
:1038A000C30123E0880F991F2A95E1F7FC01ED5D24
:1038B000FE4F438150E04115510511F041E050E0C9
:1038C000FC01ED5DFE4F6481758167587D4FCE012F
:1038D00001960E94A02FF401608171818281938101
:1038E0000E94E626643671058105910538F4B7011A
:1038F000C8010E94022999818917D1F10C2C000C72
:10390000DD08C6010E94BB2B782E8823E1F0E1146C
:10391000F104C9F0960183E0220F331F8A95E1F785
:10392000F901ED5DFE4F438150E0E416F50608F421
:10393000A701F901ED5DFE4F6481758167587D4FE8
:10394000C5010E94A02FB701C8010E94022991E081
:103950002981281390E0D92ED72089F00E941127C1
:10396000F401608371838283938309C0D12C02C0E8
:10397000DD24D394A701B801C5010E94A02F8D2D8D
:103980000F90DF91CF911F910F91FF90EF90DF90FB
:10399000CF90BF90AF909F908F907F906F90089541
:1039A000CF92DF92EF92FF920F931F93CF93DF930B
:1039B00000D000D01F92CDB7DEB76B0185E0E82EB6
:1039C000F12C0AE712E09E012F5F3F4F43EA54E0DB
:1039D00061E080E00E94331C882349F095E0FE01FD
:1039E0003196AEE9B4E001900D929A95E1F795E039
:1039F000EEE9F4E0D60101900D929A95E1F70F906F
:103A00000F900F900F900F90DF91CF911F910F911A
:103A1000FF90EF90DF90CF90089580919D048111E9
:103A200018C08091D80080618093D8008AE18A957F
:103A3000F1F700C08091D90080FD02C082E001C092
:103A400081E080939D04823021F40E94C01910927D
:103A50006F0281E090919D04913009F080E008951B
:103A60000F931F93CF93DF9300D000D0CDB7DEB775
:103A70006091AB047091AC048091AD049091AE0460
:103A80000E94E626643671058105910508F441C05F
:103A90000E940D1D882319F00E9411270EC00E945C
:103AA00011270091CE011091CF012091D0013091CA
:103AB000D101600F711F821F931FDC01CB010296A1
:103AC000A11DB11D89839A83AB83BC83809144017E
:103AD0009091450187589D4F4091430150E04530FA
:103AE000510510F044E050E0BE016F5F7F4F0E942F
:103AF000A02F84E090E00E94BB2B882359F00E9405
:103B000011276093AB047093AC048093AD04909341
:103B1000AE0481E00F900F900F900F90DF91CF9146
:103B20001F910F910895F894E82FE295EF70F0E05F
:103B300031A1282F2F7081E090E001C0880F2A95D5
:103B4000EAF7982F9095932391A392A1892B82A3B2
:103B500078940895CF93DF938238910569F1B0F49A
:103B60008133910509F46FC048F48932910509F455
:103B700065C08A32910509F46BC08AC0853391050E
:103B800009F457C089339105B9F082C0833E91058D
:103B900071F138F4803E9105B1F0823E910511F14A
:103BA00077C0863E9105B9F1873E9105C9F1843E03
:103BB000910509F06DC024C02091DE0120FD53C0A5
:103BC00021FD51C065C08091DE0180FD46C080911D
:103BD000DF0180FF48C08091DE0184FD47C183EE94
:103BE00090E046C18091DE0182FF3AC0F4CF80911F
:103BF000DE0182FD35C08091DF0180FD34C0EBCF56
:103C00008091DF0181FF35C08091DE0184FD2EC1EE
:103C100087EE90E02DC18091DE0183FF27C0F4CFB5
:103C20008091DE0183FD22C08091DF0181FD21C0F2
:103C3000EBCF8091DE0185FD1FC021C08091DE01A8
:103C400085FD1DC019C08091DE0186FD1BC01DC011
:103C50008091DE0186FD19C015C089E390E008C19E
:103C600082EE90E005C180EE90E002C186EE90E029
:103C7000FFC084EE90E0FCC089E290E0F9C085E3EB
:103C800090E0F6C08AE290E0F3C081E390E0F0C0FB
:103C9000811532E5930708F069C0811541E5940765
:103CA00028F0982F8827816F906AE2C0883E91059E
:103CB00068F5803E910508F0DBC0883A9105B8F4BC
:103CC000853A910548F0855AE82FF0E0E157FE4F1C
:103CD000808190E09064CCC08130910509F4C3C02C
:103CE00008F4C4C08430910508F4C0C0C1C08F3B43
:103CF000910508F0BBC0885AE82FF0E0EE0FFF1FD7
:103D0000EE56FE4F808191819464B2C0811520E50A
:103D10009207F0F09C0174E0369527957A95E1F7CB
:103D2000922F9370482F437021E030E002C0220FA1
:103D3000331F4A95E2F73C68392B8F70982F969580
:103D4000969540E2949FC0011124822B932B90C042
:103D5000811530E4930718F09F70906A89C09C0128
:103D60003A9521153F4108F483C080C0EC01C1158C
:103D700086E5D807E8F5C11525E5D20748F08C2F70
:103D80000E94781B8F7190E0982F8827906270C0F6
:103D9000C11534E5D30728F09C2F8827846F906ADB
:103DA00067C0AE01437055272C2F26952695C11567
:103DB000D34578F481E090E002C0880F991F4A95BE
:103DC000E2F740E2249F90011124822B932B9C6800
:103DD0004FC081E090E002C0880F991F4A95E2F73A
:103DE00040E2249F90011124822B932B9A6840C0BB
:103DF000C11529E5D20788F4C11538E5D30728F0A5
:103E00009C2F8827806F906A33C0C11547E5D4077F
:103E100068F5CE01992790662BC0C1158AE5D807B1
:103E200090F48C2F8F700E94781B94E0D695C795E4
:103E30009A95E1F7CF70D0E0DC2FCC27D0699E01B6
:103E4000282BC90115C0CE0190568115904270F4FF
:103E50008D2F8F710E94781B282F2F71CE019927EB
:103E60009062922B05C081E090E002C080E090E07B
:103E7000DF91CF9108950C941127CF92DF92EF92AA
:103E8000FF920F931F93CF93DF931F92CDB7DEB7AF
:103E9000EE24E394F12C00E812E09E012F5F3F4FE7
:103EA00047EA54E063E082E00E94331CC82E882376
:103EB000C9F10091E001802F90E09C01275D3D4F0A
:103EC00079011981F9018081181BD12E80E01D1420
:103ED00084F4DA94F70180818F5F8083011102C03E
:103EE0008AEA03C0013019F48BE40E947E2581E048
:103EF000EECF912F17FD90E0191B112381F01F5F6A
:103F0000F701808181508083011102C089EA03C0DA
:103F1000013019F48EE40E947E2581E0EECF8111FC
:103F20000E943B1F8C2D0F90DF91CF911F910F911D
:103F3000FF90EF90DF90CF900895CF9384E090E0D2
:103F40000E94882CC82F82E290E00E94882C2C2F9F
:103F500030E0A901582BCA01CF9108957F928F922A
:103F60009F92AF92BF92CF92DF92EF92FF920F9308
:103F70001F93CF93DF93CDB7DEB72F970FB6F8948B
:103F8000DEBF0FBECDBF9E012F5F3F4F79018AE09C
:103F9000D9011D928A95E9F70BE511E0690180E6E8
:103FA000A82E81E0B82E88248394912CF80180817A
:103FB0008F3F09F441C0F894E82FE295EF70F0E0EC
:103FC00021A18F70A40102C0440F551F8A95E2F70A
:103FD000CA01922F982B91A392A18095892382A345
:103FE000789400C0E0E6F1E0712C31E021912F3FA0
:103FF00089F0A22FA295AF70B0E090968C9190E0DE
:104000002F7002C0959587952A95E2F780FD02C032
:10401000832F01C080E0782A330F51E0E636F507A0
:1040200029F7D8018C918F3F11F00E94931DB0EABF
:10403000BA95F1F7F60170820F5F1F4FFFEFCF1AAD
:10404000DF0AA016B10609F0B1CF4AE050E0B7018F
:1040500082ED91E00E94932F8C01892B41F08AE040
:10406000F701A2EDB1E001900D928A95E1F7F09091
:10407000DD010115110549F081E0809395040E944E
:104080001D27909394048093930480919504882332
:10409000B9F080919304909194040E9402270597AF
:1040A00078F0A2EDB1E0EF2DF0E0E85AFD4F87ED9A
:1040B00091E02D9121938A179B07D9F710929504CF
:1040C0000115110509F0E1C00E940D1DE091DD010F
:1040D0009E01255F3F4F7901882309F46DC085E07B
:1040E000D9011D928A95E9F70E2F10E0085A1D4F4D
:1040F0008091B7048A3048F440ED5CE1B701C80113
:104100000E94BB1B882359F10AC0809196049091AC
:1041100097040E940227843F914070F732C04DE31C
:104120005FE1B701C8010E94BB1B8823C1F040E3D7
:104130005DE1B701C8010E94BB1B882381F049E102
:104140005CE1B701C8010E94BB1B882341F04CEF22
:104150005BE1B701C8010E94BB1B811199C080912E
:10416000B7048F3F19F08F5F8093B7048091B70435
:104170008A3008F48FC00E941D2790939704809383
:10418000960480919C04811102C000E094C085E0F7
:10419000F70111928A95E9F710929C04A091DC0135
:1041A000B0E0A85ABD4F85E0FE013B9601900D920C
:1041B0008A95E1F701E07FC0F0E0E85AFD4FF894FE
:1041C00085E0AAE7B2E001900D928A95E1F765E0FB
:1041D00070E08AE792E00E94022980937902789445
:1041E000F894E0912C02F0E0E75DFD4F80818B8731
:1041F0008093800261E070E0C7010E9402298093F1
:104200007F027894F894C0908102D0908202E0906E
:104210008302F09084028091980490919904A09177
:104220009A04B0919B04C816D906EA06FB06D1F0A1
:10423000C0929804D0929904E0929A04F0929B0460
:104240000E940D1D81110EC00E941127C61AD70AA7
:10425000E80AF90AC092CE01D092CF01E092D001D3
:10426000F092D1017894F8948091850280932E0287
:104270007894F89480918602882319F00E94AC28E3
:1042800002C00E949228789416C001E010E013C08A
:104290001092B7048091DC0190E045E050E0B70156
:1042A000885A9D4F0E94932F21E020939C04892BD4
:1042B00009F074CF6ACF802F2F960FB6F894DEBF27
:1042C0000FBECDBFDF91CF911F910F91FF90EF9067
:1042D000DF90CF90BF90AF909F908F907F90089588
:1042E00069EE7EEF80E090E00E94B42C60E082E016
:1042F00090E00E94962C60E083E090E00E94962C73
:1043000010921E0560E084E090E00E94962C60E030
:1043100082E290E00E94962C60E085E090E00E94AE
:10432000962C60E086E090E00E94962C6FEF87E08C
:1043300090E00E94962C40E050E0BA0188E090E0C6
:104340000E94A82C60E08DE090E00E94962C40E056
:1043500050E0BA0188E190E00E94A82C60E087E17B
:1043600090E00E94962C40E050E0BA018CE190E091
:104370000E94A82C60E070E080E290E00E94B42CE3
:1043800040E050E0BA0188E190E00E94A82C80E073
:104390000E941D290E943B2940E050E0BA018FE0B5
:1043A00090E00E94A82C40E050E0BA0183E190E048
:1043B0000C94A82C80911D05811110921D05089563
:1043C000809590911C05892380931C0508959091F8
:1043D0001C0580911B05982B9093B80480911D05B6
:1043E000882389F0892B8093B804EAEBF4E097E006
:1043F00080E0915029F021912223D9F38F5FF9CFEA
:1044000081110E94DA2148E050E063E175E088EB19
:1044100094E00E94932F892BA9F088E0E8EBF4E068
:10442000A3E1B5E001900D928A95E1F7E0912A05AC
:10443000F0912B05309731F00280F381E02D88EB6D
:1044400094E00994089580E090E00E94822780E043
:1044500090E00E946C2710921B050C94E72180913C
:1044600011059091E004891719F08F5F8770FBCFD9
:1044700008950F931F93CF93DF938091DF0482956C
:104480008F7009F05DC08091DC04882309F458C066
:10449000809111051091E0046091DA047091DB04C1
:1044A000C091DD04D091DE0491E06F3F09F090E00F
:1044B000292F06E0811709F443C0209721F07F3FA0
:1044C00021F030E003C031E001C0322F90E030FD38
:1044D00034C0089FF001099FF00D1124DF01AF5196
:1044E000BB4F11963C911197371327C03C9136135F
:1044F00024C012963C91129731111FC013964D9112
:104500005C9114974C1B5D0B44365105B0F48091BF
:10451000DF048F7080618093DF04EA51FB4F80815C
:104520008F70806180838AED94E00E94F806DF91AD
:10453000CF911F910F910C942F2201968770BACFC3
:10454000DF91CF911F910F910895CF92DF92FF924B
:104550000F931F93CF93DF936C010091870280919B
:104560001E05082BC7E0D0E010E0C8010C2E02C0E9
:10457000959587950A94E2F780FD04C02197A8F7E6
:10458000F12C09C0FC2EB6018C2F0E9485280E94B8
:10459000AA1D019799F38F2DDF91CF911F910F9154
:1045A000FF90DF90CF900895CF93DF93EC010E94AE
:1045B000A522BE010E9485280E94AA1DDF91CF91ED
:1045C0000895FC01808191810E94D42292959F7070
:1045D000963079F010F4925001C09A50923068F4FD
:1045E000803F69F018F4883E40F409C0843F29F404
:1045F00006C0883E20F0813F11F080E0089581E000
:1046000008959F92AF92BF92CF92DF92EF92FF9266
:104610000F931F93CF93DF93CDB7DEB761970FB69C
:10462000F894DEBF0FBECDBF8C0185E0F801DE013E
:104630001D9601900D928A95E1F7F801E280909124
:10464000DA046091DB044091DD045091DE044115F1
:10465000510531F06F3F31F481E09F3F19F403C001
:1046600081E001C080E0F82FF1709F2E80FD1AC11B
:10467000F80130812181C380D4808AEDA82E84E0A6
:10468000B82EF090DC04F601E41BF50BFF2009F4D2
:10469000C6C08091DF04E436F10508F091C0482FD0
:1046A000407F09F050C0621311C093130FC0FE2C5D
:1046B000E1100CC08F7080618093DF04C5010E94FF
:1046C000F8068091DF04F801858337C1CD2831F0E9
:1046D0002F3F31F481E03F3F19F403C081E001C076
:1046E00080E080FD03C081E08E2502C080E090E084
:1046F000F82FF170FF2E80FF1CC0809111054091B2
:10470000E00456E0841709F4F6C090E0589FF001E9
:10471000599FF00D1124EF51FB4F6181261306C004
:104720006081631303C06281E61203C00196877043
:10473000E9CFFE2CEE2009F400C18091DF048160F6
:104740008093DF0449C0621306C0931304C0E110D4
:1047500002C0F80186C0C8010E94E122882351F1FD
:10476000EE2041F12091DF04822F82958F7090E03E
:10477000029774F08091DA049091DB0498878F831C
:104780001986DB86CA862C87CE0107960E94F8061A
:1047900086E0F801AAEDB4E001900D928A95E1F768
:1047A0000E9439220AC06217C9F0C8010E94E122A2
:1047B00081111EC0C8010E94F806FF24F394BDC0F9
:1047C000482F407F81F78AED94E00E94F80686E04A
:1047D000F50111928A95E9F7F12CAFC09313E5CF5B
:1047E000E110E3CFF8018583C8010E94F80654C0A8
:1047F000EE2001F32091DF04822F82958F7090E0EC
:10480000029734F28091DA049091DB049A838983D1
:104810001B82DD82CC822E83CE010196B7CFE43697
:10482000F105D0F5FE2CEE2029F2621327C0931378
:1048300025C02091DF0420FD18C0822F82958F7043
:10484000482F50E04115510581F0F80125834F3084
:10485000510541F08F5F982F9295907F822F8F7036
:10486000892B8583C8010E94F80686E0F801AAED2D
:10487000B4E001900D928A95E1F75FC0C8010E94F3
:10488000E122811185CF8091DF0481608093DF0474
:10489000C8010E94F80651C086E0F50111928A9580
:1048A000E9F74BC0EE2009F485CFC8010E94E12250
:1048B000F82E882309F47ECF86E0F801AAEDB4E053
:1048C00001900D928A95E1F78091DA049091DB04D2
:1048D0000E94D42292959F70963051F4863F41F009
:1048E0008091D90491E089278093D9049093D804CA
:1048F0000E94392222C03D872E878D859E850E9489
:10490000D422292F22952F70223028F49F7039F05D
:10491000811105C00BC0243028F49F7049F4805EDB
:10492000883020F0C8010E94F8069F2CF92C05C0A1
:10493000F8019581907F99F7F9CF8F2D61960FB689
:10494000F894DEBF0FBECDBFDF91CF911F910F91C5
:10495000FF90EF90DF90CF90BF90AF909F90089521
:10496000292F220F920F990F890F682F6695669550
:104970006695982F977083E0689FB001112440E0FE
:1049800050E080E0FB01E40FF51FE054FB4F208175
:1049900030E0092E02C0369527950A94E2F721707F
:1049A0003327042E01C0220F0A94EAF7822B4F5FAF
:1049B0005F4F4330510531F70895292F220F920F91
:1049C000990F890FE82FE695E695E695877051E0F7
:1049D00001C0550F8A95EAF783E0E89FF0011124A2
:1049E000E054FB4F20E030E070E04081CB01022E2C
:1049F00002C0969587950A94E2F781708195842785
:104A00008523842781932F5F3F4F2330310569F73A
:104A10000895809387020C94232221E030E001C0A6
:104A2000220F8A95EAF720958091870282230C94C1
:104A30000925209112058095822380931205982FD5
:104A4000977099F430E0482F082E000C550B24176E
:104A5000350759F09091DF0192FD07C08595859546
:104A600085950E940D25109212050895CF93C0914F
:104A7000DF01C2FB992790F9981799F080FBC2F9E2
:104A8000C093DF016091DE0184E090E00E94962CEB
:104A90006C2F82E290E00E94962C82E0CF910C94E1
:104AA0001925CF91089521E030E001C0220F8A95A9
:104AB000EAF780918702822B0C94092580931E05CA
:104AC0000C94232210921C0586E0EAEBF4E0DF014F
:104AD0001D928A95E9F70C942322882321F00E94E5
:104AE000E0210C94E7210895882339F090911C056A
:104AF000892B80931C050C94E72108951F93CF9375
:104B0000DF93182F893319F0CAE0D0E002C0C0E566
:104B1000D0E0812F0E94B7058FE99FE00197F1F760
:104B200000C000002197C1F7812FDF91CF911F9125
:104B30000C948605089508958091640208958093E9
:104B40003305709335056093340580916F0284308E
:104B5000F9F48093E9008FEF9091E800815095FD82
:104B600006C095ED9A95F1F700008111F5CF80917F
:104B7000E80085FF0DC040E050E063E070E083E3B3
:104B800095E00E944A1B8091E8008E778093E800B0
:104B90000895BC0184E00C949F25BC0183E00C9433
:104BA0009F25CF93DF9321E02093E9002FEF3091F1
:104BB000E800215035FD06C035ED3A95F1F70000CB
:104BC0002111F5CF2091E80025FF14C0EC0140E051
:104BD00050E068E070E00E944A1B8091E8008E7708
:104BE0008093E80088E0FE01A5E6B2E001900D9216
:104BF0008A95E1F7DF91CF9108958091710287FF47
:104C000011C08091E80082FD05C080916F02811182
:104C1000F8CF11C08091E8008B770BC080916F02B4
:104C2000882349F08091E80080FFF8CF8091E80068
:104C30008E778093E8000895982F973068F59093C9
:104C4000E900981739F07091EC002091ED00509137
:104C5000F00003C0242F762F50E021FD02C09F5F9B
:104C6000ECCF3091EB003E7F3093EB003091ED00C4
:104C70003D7F3093ED003091EB0031603093EB00DD
:104C80007093EC002093ED005093F0002091EE0023
:104C900027FDE5CF80E008958F708093E90081E0E3
:104CA000089520917702309178022617370748F04F
:104CB0006115710539F42091E8002E772093E80002
:104CC00001C0B901FC0120E06115710579F1809105
:104CD0006F028823F1F18530F1F18091E80083FDC6
:104CE0003CC08091E80082FD2EC08091E80080FFEA
:104CF000EBCF2091F3008091F20090E0922B6115B0
:104D0000710551F08830910538F421912093F1001C
:104D1000615071090196F3CF21E0089709F020E076
:104D20008091E8008E778093E800CECF2111CFCF1D
:104D30000AC080916F02882361F0853061F0809114
:104D4000E80083FD0AC08091E80082FFF2CF80E096
:104D5000089582E0089583E0089581E0089587E74B
:104D600097E790930108809300089AE088E10FB6D6
:104D7000F894A895809360000FBE90936000FFCFD9
:104D800078941F920F920FB60F9211248F939F93D6
:104D9000AF93BF9380912F0590913005A09131057D
:104DA000B09132050196A11DB11D80932F059093FE
:104DB0003005A0933105B0933205BF91AF919F911B
:104DC0008F910F900FBE0F901F901895CF92DF928A
:104DD000EF92FF922FB7F894C0902F05D090300536
:104DE000E0903105F09032052FBFA7019601261BF8
:104DF000370B480B590BCA01B901FF90EF90DF90B8
:104E0000CF9008959C014FB7F89480912F05909111
:104E10003005A0913105B09132054FBF821B930B35
:104E200008952FB7F89460912F0570913005809107
:104E30003105909132052FBF08952FB7F8948091D6
:104E40002F0590913005A0913105B09132052FBF0B
:104E500008951F920F920FB60F9211248F939F9374
:104E6000AF93BF9380912E05811113C080912F05C0
:104E700090913005A0913105B09132054196A11D68
:104E8000B11D80932F0590933005A0933105B09309
:104E90003205BF91AF919F918F910F900FBE0F90F0
:104EA0001F9018959C01FC0132969FEF80E0419184
:104EB000461789F09F3F19F4411101C0982F8F5F69
:104EC0008630A9F79F3F39F0F901E90FF11D97FDF1
:104ED000FA9562830895089520912C0530912D054F
:104EE0002817390771F090932D0580932C05E091D8
:104EF0002A05F0912B05309721F00084F185E02DF3
:104F0000099408952091280530912905281739071B
:104F100071F09093290580932805E0912A05F0917E
:104F20002B05309721F00680F781E02D0994089534
:104F30000E940D1D882351F0E0912A05F0912B0568
:104F4000309721F00190F081E02D099480E00895E0
:104F50000F931F93CF93DF93C42FD22FFC01828135
:104F60008823C9F0409327050E941D2790932605AA
:104F70008093250580E28C0F883008F057C0C770F9
:104F800081E001C0880FCA95EAF7DF91CF911F91A8
:104F90000F910C94742580912705481330C080919F
:104FA0002505909126050E9402278436910538F543
:104FB00010E21D0FCD17B9F080E28C0F883040F45D
:104FC000C77081E001C0880FCA95EAF70E946D257D
:104FD000183028F581E09D2F977001C0880F9A95B1
:104FE000EAF70E947425802F0E947E251830F0F485
:104FF000D77081E001C0880FDA95EAF70AC080E235
:105000008C0F883098F4C77081E001C0880FCA9572
:10501000EAF7DF91CF911F910F910C946D25802FAE
:10502000DF91CF911F910F910C947E25DF91CF914D
:105030001F910F910895CF93DF93C7E0D2E060E016
:10504000CE010E94962C2196C11584E0D807B9F7AD
:10505000DF91CF910895CF92DF92EF92FF920F935D
:105060001F93CF93DF93C0E0D0E08E0108581F4F0D
:105070006E018CE0C80ED11CFE01E251F74FE590A5
:10508000F4906F2DCE0187960E94962C6E2DCE0146
:1050900088960E94962C2296CC15DD0569F70C1790
:1050A0001D0731F7E801003E1140F9F6DF91CF917D
:1050B0001F910F91FF90EF90DF90CF9008950F9385
:1050C0001F93CF93DF93C42FD0E0CC0FDD1F2CE0D4
:1050D000629FC00DD11D112438E7839FC00DD11DE3
:1050E0001124CE0187960E94882C082F10E0102FE3
:1050F0000027CE0188960E94882C9801282BC90190
:10510000DF91CF911F910F910895462F843038F48D
:105110007A3028F4663018F4672F0C945F2880E00A
:1051200090E008958091240590912305882389F0CB
:10513000992369F062E070E08CEE98E00E943816E6
:10514000892B19F0809123050895109223059091E1
:10515000230581E089270895809124058823F9F0AB
:105160000E941127DC01CB01805E914BAF4FBF4FF6
:1051700080931F0590932005A0932105B0932205ED
:105180008091230581110BC062E070E08AEE98E007
:105190000E943816892B19F481E0809323058091B1
:1051A00023050895CF93E82F209191043091920424
:1051B0002B58324040918802642F70E0C9010E9450
:1051C000362C481B842FEE2351F066E00E94032FFB
:1051D000C82FC150A8F080E20E946215FACFA90141
:1051E000480F511D4115524018F080E020E030E09A
:1051F000280F311D25573D4F309392042093910481
:10520000CF910895FC01680F791F8FEF91E3E617A6
:10521000F70771F02191822728E030E087FF03C073
:10522000880F892701C0880F21503109B9F7EFCFC6
:10523000089586E290E00C94962CCF93C82F8111AC
:1052400002C06FEF01C062E283E290E00E94962C00
:10525000C11102C06FEF01C061E084E290E00E94E2
:10526000962CC11102C06FEF01C060E285E290E0B0
:10527000CF910C94962C80E00E941D2960E070E094
:10528000CB010E9419290E942B280E941B2881E033
:105290000C941D2983E290E00E94882C823281F4D4
:1052A00084E290E00E94882C813051F485E290E005
:1052B0000E94882C91E0803209F090E0892F01C093
:1052C00080E0817008951092B9008CE08093B8005E
:1052D00008959F92AF92BF92CF92DF92EF92FF928A
:1052E0000F931F93CF93DF93B82EEB010E941D27DE
:1052F0006C01C431D10558F0CF3F8FEFD80759F07A
:10530000CE0164E170E00E94362C7B0107C0EE24E0
:10531000E394F12C03C025E0E22EF12C84E8A82EC2
:1053200094EA992E1092BC009092BC000E941D2716
:105330008C018091BC0087FD08C00E941D27801B46
:10534000910B8E159F05A8F32AC08091B900887F24
:10535000883041F08091B900887F803119F00FEFDB
:105360001FEF1FC0B092BB00A092BC000E941D277F
:105370008C018091BC0087FD08C00E941D27801B06
:10538000910B8E159F05A8F30AC08091B900887F04
:10539000883111F0803419F700E010E00EC00EEFF4
:1053A0001FEFCF3F8FEFD80709F4BCCFC6010E9493
:1053B00002278C179D0708F4B5CFC801DF91CF9164
:1053C0001F910F91FF90EF90DF90CF90BF90AF9023
:1053D0009F9008950F931F93CF93DF93EB018093DA
:1053E000BB0084E88093BC000E941D278C01809143
:1053F000BC0087FD0EC0CF3F8FEFD807C1F30E94DE
:105400001D27801B910B8C179D0788F38EEF9FEF54
:105410000CC02091B900287F81E090E0283211F47F
:1054200080E090E0919581959109DF91CF911F9156
:105430000F910895CF92DF92EF92FF920F931F93F7
:10544000CF93DF936B018A017901B9010E94692929
:10545000E6010C0D1D1DC017D10761F424E920934E
:10546000BC00DF91CF911F910F91FF90EF90DF90E3
:10547000CF90089597FDF2CFB70189910E94EA2954
:10548000EACFCF92DF92EF92FF920F931F93CF93C9
:10549000DF93C62F6A017901B8010E94692997FD3F
:1054A00011C0B8018C2F0E94EA29E601EC0CFD1C0A
:1054B000CE15DF0539F097FD05C0B80189910E942E
:1054C000EA29F6CF24E92093BC00DF91CF911F9108
:1054D0000F91FF90EF90DF90CF90089584E9809333
:1054E000BC0008958EE14A9B02C08150E1F74A9BBF
:1054F000FECF08955A9880E28A95F1F75A9A089556
:10550000FC012AE02A95F1F728E090E080E031E004
:1055100040E14A95F1F7880F4A9B02C081609327CA
:1055200000C0000040E14A95F1F7215089F720E1E1
:105530002A95F1F729B100C0000030E13A95F1F762
:1055400022FB222720F992272081920F9083089531
:10555000EF92FF920F931F93CF93DF931F92CDB7DC
:10556000DEB719828C017C01E60EF11C0E151F05B9
:1055700051F00E94722ACE0101960E94802AF80101
:1055800081938F01F3CF81E09981911180E00F9099
:10559000DF91CF911F910F91FF90EF900895529A54
:1055A0005A9A089552985A9AEA9AE9E6F0E0808168
:1055B0008F7C80830895615091E001C0990F6A95B6
:1055C000EAF720E031E0992361F0492F482319F0F0
:1055D0005A9A232701C05A9840E24A95F1F79695C6
:1055E000F2CF222311F05A9A01C05A9880E28A958C
:1055F000F1F75A980895FF920F931F93CF93DF937B
:10560000EC018C01060F111DC017D10741F0F99074
:105610000E947A2A68E08F2D0E94DB2AF5CFDF9165
:10562000CF911F910F91FF9008951F920F920FB687
:105630000F9211240F931F932F933F934F935F93D8
:105640006F937F938F939F93AF93BF93EF93FF934A
:10565000CF93DF931F92CDB7DEB719820E94722AD3
:10566000CE0101960E94802A082F06950695069580
:10567000902F96959570202F2570920F292F2370CB
:1056800096959695920F877089135FC089818111D5
:105690005CC0083008F059C080E18A95F1F75A9A49
:1056A000529A82E08A95F1F700C05A9888E0089FE4
:1056B00080011124D801AD5DBE4F1696ED91FC918D
:1056C00017973097A9F060917E0170917F01149631
:1056D0002D913C911597260F371F11968D919C9116
:1056E0001297680F791F13964C9113978C91099517
:1056F000F801ED5DFE4F6381662351F080917E01DC
:1057000090917F0124813581820F931F0E94FB2A93
:105710000E947A2A80E18A95F1F75A9852985A9A0B
:1057200080E18A95F1F7F801ED5DFE4F6081662317
:1057300051F080917E0190917F0121813281820F11
:10574000931F0E94A82A0E94722A0F90DF91CF9186
:10575000FF91EF91BF91AF919F918F917F916F9149
:105760005F914F913F912F911F910F910F900FBE1D
:105770000F901F9018950F931F93CF93DF9388304E
:1057800091050CF06DC0EC01F894529A5A9885E09E
:105790008A95F1F700009C2F969595702C2F257017
:1057A000920F892F83709695969523E0CC0FDD1F7D
:1057B0002A95E1F7980F8E01092B0E947A2A84E03E
:1057C0008A95F1F700C068E0802F0E94DB2A80E113
:1057D0008A95F1F752985A9A4A9902C000C0FCCFB4
:1057E00087E090E04A9B08C0019721F4529A5A9AA8
:1057F000789436C000C0F6CFFE01ED5DFE4F6381A8
:10580000662381F080917E0190917F012481358112
:10581000820F931F0E94A82A811104C0529A5A9A9B
:1058200078941FC00E94722A80E28A95F1F75A98F4
:10583000529A80E18A95F1F7CD5DDE4F688166234B
:1058400051F080917E0190917F0129813A81820FF0
:10585000931F0E94FB2A0E947A2A789481E001C05B
:1058600080E0DF91CF911F910F910895AA1BBB1B80
:1058700051E107C0AA1FBB1FA617B70710F0A61B50
:10588000B70B881F991F5A95A9F780959095BC0171
:10589000CD010895FB01DC0102C005900D9241503D
:1058A0005040D8F70895BB274A3031F4992322F4A9
:1058B000BDE2909581959F4F0C945F2CBB27FB0117
:1058C0005527AA27880F991FAA1FA41710F0A41BF9
:1058D00083955051B9F7A05DAA3308F0A95DA19353
:1058E000009779F7B111B1931192CB010C94782CF8
:1058F000DC01FC01672F71917723E1F7329704C037
:105900007C916D9370836291AE17BF07C8F30895C1
:10591000F999FECF92BD81BDF89A992780B5089577
:10592000A8E1B0E042E050E00C94BC2C262FF9999D
:10593000FECF92BD81BDF89A019700B4021639F0EE
:105940001FBA20BD0FB6F894FA9AF99A0FBE0895BF
:105950000396272F0E94972C0E94962C252F0E9499
:10596000972C242F0C94972C0196272F0E94972C6C
:105970000C94962CDC01CB01FC01F999FECF06C0FA
:10598000F2BDE1BDF89A319600B40D9241505040FD
:10599000B8F708955058BB27AA270E94E22C0C9410
:1059A000332E0E94252E38F00E942C2E20F039F440
:1059B0009F3F19F426F40C94222E0EF4E095E7FB99
:1059C0000C941C2EE92F0E94442E58F3BA1762073C
:1059D00073078407950720F079F4A6F50C94662EDA
:1059E0000EF4E0950B2EBA2FA02D0B01B9019001FA
:1059F0000C01CA01A0011124FF27591B99F0593F3E
:105A000050F4503E68F11A16F040A22F232F342F85
:105A10004427585FF3CF469537952795A795F040D3
:105A20005395C9F77EF41F16BA0B620B730B840BE8
:105A3000BAF09150A1F0FF0FBB1F661F771F881FA0
:105A4000C2F70EC0BA0F621F731F841F48F48795F8
:105A500077956795B795F7959E3F08F0B0CF9395EA
:105A6000880F08F09927EE0F9795879508950E9463
:105A70004B2D0C94332E0E942C2E58F00E94252E74
:105A800040F029F45F3F29F00C941C2E51110C9426
:105A9000672E0C94222E0E94442E68F39923B1F3B2
:105AA000552391F3951B550BBB27AA276217730744
:105AB000840738F09F5F5F4F220F331F441FAA1FD8
:105AC000A9F335D00E2E3AF0E0E832D09150504094
:105AD000E695001CCAF72BD0FE2F29D0660F771F42
